:020000040800F2
:100000000050002021020008290200082D020008EB
:10001000A1020008A5020008ED020008000000008F
:100020000000000000000000000000003503000890
:1000300039030008000000003D0300086D110008AE
:100040005103000851030008510300085103000840
:100050005103000851030008510300085103000830
:100060005103000851030008510300085103000820
:100070005103000851030008510300085103000810
:100080005103000851030008510300085103000800
:1000900051030008510300085103000851030008F0
:1000A00051030008510300085103000851030008E0
:1000B00051030008510300085103000851030008D0
:1000C00051030008510300085103000851030008C0
:1000D0005103000879130008510300085103000878
:1000E00051030008510300085103000800000000FC
:1000F0000000000000000000000000000000000000
:1001000000000000000000005FF808F100B583B0B7
:1001100000F0B0F9304B314A1360314A1360314B73
:10012000314A03E011681960043304322F498B42CD
:10013000F8D32A4B1A682E4B9A4204D1284B1A68DE
:100140002C4B9A4200D0FEE7234B2B4A13602B4ADC
:1001500013602B4B02E000221A600433294A9342B9
:10016000F9D3254B1B6813B9244B1B6803B1FEE779
:1001700000F08CF9694601A800F026F9224C234BC7
:100180001C1BA410002504E01F4B53F82530984792
:100190000135AC42F8DC1E4C1E4B1C1BA410002584
:1001A00004E01B4B53F8253098470135AC42F8DC8E
:1001B0000099019801F084FA0546174C174B1C1B57
:1001C000A41004E0013C144B53F824309847002C51
:1001D000F8DC284600F0D4F8BABADECA00000020E5
:1001E000D400002000000020A0220008D800002039
:1001F0007856341232547698D8000020C803002074
:10020000D8000020CC0300207C0300087C030008F9
:100210007C0300087C0300087C0300087C030008C2
:1002200008B5FFF773FF00BF00BEFEE71EF0040F26
:100230000CBFEFF30880EFF309807146414A104785
:100240002DE9F04182B004468846134B5E6B9F6BEC
:100250009D6A1B6B13F0020F0DD00F4BDB6A002B56
:1002600009DA4BF6AB6100F08DF920B14FF0004296
:10027000094BDA620CE0094800F0AEF8CDF80080D6
:100280003B4632462946204600F004F900BEFEE710
:1002900002B0BDE8F08100BF00ED00E0C821000819
:1002A00000BEFEE71EF0040F0CBFEFF30880EFF373
:1002B00009807146244A10472DE9F04182B0044676
:1002C0008846084B5E6B9F6B9D6A074800F084F878
:1002D000CDF800803B4632462946204600F0DAF849
:1002E00000BEFEE700ED00E0D82100081EF0040F7C
:1002F0000CBFEFF30880EFF309807146134A1047F3
:100300002DE9F04182B004468846084B5E6B9F6B36
:100310009D6A074800F060F8CDF800803B46324601
:100320002946204600F0B6F800BEFEE700ED00E0EA
:10033000E421000800BEFEE700BEFEE700BEFEE7C7
:100340007047000041020008B902000801030008DC
:0403500000BEFEE706
:10035400A022000800000020D8000020A0220008ED
:100364000000000000000000D8000020CC030020A2
:08037400000000000000000081
:10038000FEE700BF08B50D4B1B6813B90C4A0B4BB9
:100390001A600A4B1A68C31C23F00303134409496B
:1003A0008B4206D901F014FA0C2303604FF0FF30A2
:1003B00008BD02490B60104608BD00BFDC000020EC
:1003C000CC030020004C002001230360014B0B6094
:1003D000704700BF040000200FB400B583B004AB29
:1003E00053F8042B01938021064801F047FA0028B6
:1003F00003DD0146034800F039F803B05DF804EB73
:1004000004B07047E40000202DE9F04385B00446B5
:100410000F46435613BB042528462146ABBE04466F
:100420001FE03546102E28BF1025002306E014F9E2
:10043000011B04AA1A4402F8101C0133AB42F6D384
:1004400004AA1344002203F8102CE9464FF00408D4
:1004500040464946ABBE8046761B00E00E46002E65
:10046000DFD1384605B0BDE8F08300BF08B5FFF71F
:10047000CBFF08BD08B500F0FBF8024B024A9A60BA
:1004800008BD00BF00ED00E00000000808B500F066
:1004900017F908BDF8B504460D4617461E4626480E
:1004A000FFF79AFF21682548FFF796FF6168244807
:1004B000FFF792FFA1682348FFF78EFFE16822480B
:1004C000FFF78AFF21692148FFF786FF616920480D
:1004D000FFF782FFA1691F48FFF77EFFE1691E4811
:1004E000FFF77AFF1D48FFF777FF29461C48FFF703
:1004F00073FF1C4CE16A1C48FFF76EFF216B1B4821
:10050000FFF76AFFE16B1A48FFF766FF15F0800FEF
:1005100003D039461748FFF75FFF15F4004F03D0AB
:1005200031461548FFF758FF1448FFF755FF069965
:100530001348FFF751FFF8BDAC200008BC200008AD
:10054000CC200008DC200008EC200008FC2000087B
:100550000C2100081C2100082C2100083C21000867
:100560004821000800ED00E058210008682100083B
:10057000782100088821000898210008A821000897
:10058000B021000883691A888A4207D10268033AB9
:10059000012A05D80233836101207047002070478B
:1005A0000020704782B00023019300932C4A136807
:1005B00043F4803313602A4B1B6803F40033009329
:1005C000019B01330193009B1BB9019BB3F5A06F05
:1005D000F1D1234B1B6813F4003F02D00123009399
:1005E00001E000230093009B012B36D11D4B1A68BC
:1005F00042F010021A601A6822F003021A601A68A8
:1006000042F002021A60A3F580535A685A605A6891
:100610005A605A6842F480625A605A6822F47C1226
:100620005A605A6842F4E8125A601A6842F08072BE
:100630001A600B4B1B6813F0007FFAD0084B5A6806
:1006400022F003025A605A6842F002025A60044BD8
:100650005B6803F00C03082BF9D102B0704700BFB0
:10066000001002400020024008B5FFF79BFF08BDC4
:1006700008B5104B1A6842F001021A6059680E4A18
:100680000A405A601A6822F0847222F480321A609A
:100690001A6822F480221A605A6822F4FE025A6014
:1006A0004FF41F029A60FFF7DFFF4FF00062034B29
:1006B0009A6008BD001002400000FFF800ED00E065
:1006C0001F4B5B6803F00C03042B06D0082B08D0EB
:1006D0003BBB1C4A1C4B1A6026E01A4A1A4B1A6094
:1006E00022E0174A53685268C3F38343023312F47B
:1006F000803F05D1154A02FB03F3134A136013E050
:100700000F4A526812F4003F05D0104A02FB03F36F
:100710000D4A136008E00B4A02FB03F30A4A136018
:1007200002E0084A084B1A60054B5B68C3F30313E9
:10073000074AD35CDAB204490B68D3400B607047B8
:100740000010024000127A001C00002000093D0049
:100750000C00002010B5044600F0010207214120E2
:1007600000F068FAC4F340020621412000F062FA6A
:10077000C4F380020521412000F05CFAC4F3C002FA
:100780000421412000F056FAC4F300120321412055
:1007900000F050FAC4F340120221412000F04AFA5E
:1007A000C4F380120121412000F044FAE209002143
:1007B000412000F03FFA10BD08B500220C21422074
:1007C00000F038FA00220D21422000F033FA062012
:1007D000FFF7C0FF01220E21422000F02BFA08BDD6
:1007E00008B500220C21422000F024FA00220D213D
:1007F000422000F01FFA0120FFF7ACFF01220E217A
:10080000422000F017FA08BD08B500220C21422052
:1008100000F010FA00220D21422000F00BFA0C200B
:10082000FFF798FF01220E21422000F003FA08BDD5
:1008300008B500220E21422000F0FCF908BD00BFDF
:1008400008B500220C21422000F0F4F900220D210D
:10085000422000F0EFF93820FFF77CFF01220E2143
:10086000422000F0E7F908BD08B51A4B1B7843BBDE
:1008700000220C21422000F0DDF900220D2142204F
:1008800000F0D8F9144B1B7843B9144B18780F2893
:100890000ED880F08000FFF75DFF09E0012B07D143
:1008A0000E4B18780F2803D84038C0B2FFF752FF1C
:1008B00001220E21422000F0BDF90122054B1A70E1
:1008C00008BD00220E21422000F0B4F90222014BA3
:1008D0001A7008BD20000020A9010020A8010020F6
:1008E00008B5114B1B78ABB900220C21422000F057
:1008F000A1F900220D21422000F09CF90120FFF710
:1009000029FF01220E21422000F094F90122064B1A
:100910001A7008BD00220E21422000F08BF902223D
:10092000014B1A7008BD00BF2000002008B5194B0C
:100930001B78E3B901220C21422000F07BF9002250
:100940000D21422000F076F9134B1B78134A1278E0
:100950009B1A134A1268D05CFFF7FCFE01220E219D
:10096000422000F067F901220A4B1A7008BD0022EC
:100970000E21422000F05EF90022064B1A70074A51
:100980001378013BDBB2137013B90222014B1A70CA
:1009900008BD00BF20000020A5010020A401002008
:1009A000AC01002010B5084C2278084B53F82230D7
:1009B000984723780133DBB22370082B02D1012240
:1009C000034B1A7010BD00BF6401002030000020EE
:1009D000A701002008B501220C21422000F0C2F836
:1009E00001220D21422000F0BDF801220E214220FB
:1009F00000F0B8F801220721412000F0B3F80122ED
:100A00000621412000F0AEF801220521412000F02E
:100A1000A9F801220421412000F0A4F801220321B9
:100A2000412000F09FF801220221412000F09AF8B5
:100A300001221146412000F095F8012200214120B9
:100A400000F090F8024A0A21024800F05DFE08BD5D
:100A5000B00100209C01002000B585B01E4B1B7822
:100A6000002B34D01D4800F059FE18B11C4B1B78E8
:100A7000022B2ED01A4B1B78022B1BD10022184BB5
:100A80001A7001A9154800F077FE9DF80420154B57
:100A90001A709DF80C30144A1370144A1370144BDA
:100AA000029A1A609DF80520124B1A709DF80620D4
:100AB000114B1A700C4B1B7813B90A4B1B7843B1BE
:100AC000084B1A780D4B53F82230984701E0FFF796
:100AD00069FF05B05DF804FBA70100209C01002020
:100AE00020000020A6010020A4010020A501002074
:100AF000AC010020A9010020A80100202400002052
:100B000000B585B002238DF804308DF806108DF8FD
:100B1000050004AB13E90E00024800F00DFE05B01D
:100B20005DF804FB9C01002000B585B000238DF822
:100B3000043002908DF80C3002E001338DF80C3057
:100B40009DF80C30C25C0AB10F2BF6D904AB13E947
:100B50000E00034800F0F0FD05B05DF804FB00BF97
:100B60009C01002030B4422824D0432843D041289F
:100B700054D107290CD889000F2303FA01F0284C1F
:100B8000236823EA000302FA01F11943216045E0DA
:100B90000F2943D8A1F10805EDB2AC000F2303FAE9
:100BA00004F12048036823EA010302FA04F41C4319
:100BB000046033E007290CD889000F2303FA01F001
:100BC000194C236823EA000302FA01F1194321605A
:100BD00024E00F2922D8A1F10805EDB2A8000F23C7
:100BE00003FA00F1114C236823EA010302FA00F032
:100BF0001843206012E0A1F10D03DBB2022B0DD8E7
:100C0000A1F10803DBB29B000F249C400848016857
:100C100021EA040402FA03F12143016030BC704769
:100C20000008014004080140000C0140040C014090
:100C300004100140422816D0432827D0412837D13C
:100C4000012A07D1012303FA01F11A4B1A68114353
:100C500019607047012303FA01F1164A136823EA69
:100C6000010313607047012A07D1012303FA01F140
:100C7000114B1A68114319607047012303FA01F1FF
:100C80000D4A136823EA010313607047012A07D154
:100C9000012303FA01F1094B1A68114319607047E7
:100CA000012303FA01F1054A136823EA01031360E3
:100CB000704700BF0C0801400C0C01400C100140B3
:100CC00042280AD043280FD0412813D10A4B1A6872
:100CD00022FA01F303F001030CE0084B1A6822FA30
:100CE00001F303F0010305E0054B1A6822FA01F352
:100CF00003F001031846704708080140080C014042
:100D0000081001402DE9F04F83B0002151E0D0E9F7
:100D1000024500914FEA810ECEF12008AEF1200C81
:100D200024FA0EF205FA08F842EA080225FA0CFC49
:100D300042EA0C0202F00C084FF00009B9F1000F72
:100D400008BFB8F10C0F26D14FF00F0CAEF12009FF
:100D5000CEF120080CFA09FB2CFA08F84BEA080B34
:100D60000CFA0EFA24EA0A0425EA0B054FF0080CE7
:100D7000CEF120080CFA09F72CFA08F847EA080720
:100D80000CFA0EF634433D43C0E9024505690124DF
:100D90008C402C610BE002F0080400252C4306D0A7
:100DA000056901950124009DAC40019D6C610131F4
:100DB000C9B20F29ABD90169D0E90045D1E90023B7
:100DC00022402B40C1E900230169D0E90245D1E965
:100DD000002322432B43C1E90023012003B0BDE8D7
:100DE000F08F00BFF0280DD810B44409074951F81E
:100DF000242000F01F03012000FA03F3134341F8FD
:100E0000243001E00020704710BC704700E100E092
:100E1000034B5B6803F00C0303700120704700BFB5
:100E200000100240034A536823F003031843506044
:100E3000012070470010024010F0005F14D0FE291E
:100E400009D0FF293FD1244B5A6920F000501043AC
:100E5000586101207047204A536920F0005023EA6E
:100E60000000506101207047002814DAFE2909D0E3
:100E7000FF292AD1184BDA6920F000401043D861CD
:100E800001207047144AD36920F0004023EA000093
:100E9000D0610120704710F0804F18D0FE2909D092
:100EA000FF2916D10C4B9A6920F0804010439861BD
:100EB00001207047084A936920F0804023EA00002F
:100EC000906101207047002070470020704700208B
:100ED00070470020704700BF0010024000B583B08B
:100EE0000DF10700FFF794FF9DF8073053B3042B73
:100EF00006D1184B1B6813F4802F25D0002026E064
:100F0000082B23D1134B5B6813F4803F0ED0114B99
:100F10001B6813F4802F01D0002300E00E4B0D4A14
:100F2000526812F4003F02D05B0800E00B4B094A04
:100F30005068C0F383400230102800D9102003FB12
:100F400000F004E0044802E0034800E0002003B0A1
:100F50005DF804FB0010024000127A0000093D0019
:100F600008B5FFF7BBFF204B5B6803F0F003802B55
:100F700001D1400808BD1C4B5B6803F0F003902BC7
:100F800001D1800808BD184B5B6803F0F003A02B6B
:100F900001D1C00808BD144B5B6803F0F003B02B0F
:100FA00001D1000908BD104B5B6803F0F003C02BB2
:100FB00001D1800908BD0C4B5B6803F0F003D02B16
:100FC00001D1C00908BD084B5B6803F0F003E02BBA
:100FD00001D1000A08BD044B5B6803F0F003F02B5D
:100FE00000D1400A08BD00BF0010024008B5FFF75D
:100FF000B7FF084B5B6813F4005F0AD0054B5B68D2
:10100000C3F3C223043B022202FA03F3DBB2B0FBB8
:10101000F3F008BD00100240024A13780133137048
:10102000704700BF6C02002010B50022134B1A60FD
:101030001FE0134A02EB0312526882B9104A02EB16
:101040000312D2685AB90E4C1B01E3581B681B6887
:1010500098470A4B1B6804EB0314A36863600748B6
:101060000368074A02EB03125168013951600133EA
:101070000360024B1B68032BDBD910BD6802002004
:101080002802002038B5FFF76BFF144CA4FB003496
:10109000A40C00F03DF8214641F2883000F054F8ED
:1010A0000F4800F059F8002314E00E4A02EBC30188
:1010B0000D4D1C012819295149680C4CA4FB015104
:1010C0008908416052F833205268A4FB021292084A
:1010D00082600133032BE8D938BD00BF83DE1B4398
:1010E00019100008F421000828020020CDCCCCCC37
:1010F00008B500F01BF8054B1B78002BFBD0002235
:10110000024B1A70FFF790FFF5E700BF6C0200205A
:10111000054A136823F0805323F0020343F00203CF
:1011200013600120704700BF10E000E0054A13681B
:1011300023F0805323F0010343F0010313600120E7
:10114000704700BF10E000E0C90800FB01F0014B50
:101150001860704714E000E018B1034A10600120E5
:1011600070470020704700BF6801002008B5024B9F
:101170001B6803B1984708BD6801002038B50024FA
:101180002CE0254604EB44029300164A13449B6866
:101190000C2B0AD1104663002344990053180122F6
:1011A000415C1879FFF746FD0BE0082B09D10D488B
:1011B00063002344990043180022415C1879FFF72B
:1011C00039FD08486A0051198B001946034408226A
:1011D000415C1879FFF7C6FC0134E4B2042CD0D985
:1011E00038BD00BF14220008014B185C704700BFD7
:1011F0007002002038B500242FE02546184963000E
:1012000023449A008B18895C1879FFF759FD154B18
:101210001B5D984204D1144A135D0133135502E05B
:101220000022114B1A55104B5B5D042B11D105EBBD
:10123000450293000A4A13449B680C2B04D180F0AA
:1012400001030A4A535501E0084B58550022064B4A
:101250005A55044B58550134E4B2042CCDD938BD4D
:10126000142200086C01002074010020700200208C
:101270000068C0F3C01070470068C0F340107047AA
:10128000C36823F080031943C1607047C36823F02B
:1012900020031943C160704738B50D4C247B5C2C8A
:1012A00013D10B4C0D252573626021602361049BD3
:1012B00063610023A3600B784360A3680133A360DC
:1012C0008021FFF7DDFF012038BD002038BD00BFC1
:1012D0007802002038B50A4C247B5C2C0ED1084CD7
:1012E0000D25257321600021A16062602361049BAC
:1012F00063612021FFF7CAFF012038BD002038BDFF
:1013000090020020C36823F400531943C160704762
:10131000C36823F008031943C1607047C36823F012
:1013200004031943C160704738B504460D464FF4B5
:101330000051FFF7E7FF08212046FFF7E9FF0421EE
:101340002046FFF7EBFFE36823F4B053E360236923
:1013500023F440532361054BA3FB0535AD0AA5607B
:101360005C23034A1373034A137338BDB5814E1BC4
:10137000780200209002002010B52148FFF77CFF82
:10138000D8B1204B19689A681D48406888549A68FB
:1013900001329A605B689A4230D11A4C5C23237305
:1013A00000211748FFF772FF236903B19847154BD7
:1013B0005B691BB31248984710BD1148FFF758FFEF
:1013C000E0B1114B9A685B689A4208D20E4B1968DB
:1013D000895C0B4A51609A6801329A6010BD0A4CD0
:1013E0005C23237300210648FFF74AFF236903B1FA
:1013F0009847054B5B690BB10148984710BD00BF8A
:10140000003801409002002078020020074B0A2299
:101410001A705A70064959609960D960054B1A7064
:101420005A70054A5A609A60DA607047A802002034
:10143000C8020020B8020020400300204078B0FA23
:1014400080F04009704700BF42780078824214BFA4
:1014500000200120704700BF38B504460D46FFF755
:10146000EDFFA8B9636895E8070083E807006168A5
:101470000C316160E068237803EB43039A00024477
:10148000914200D160606378013B6370012038BDF8
:10149000002038BD38B504460D46FFF7D5FFA8B982
:1014A000A36893E8070085E80700A1680C31A160F4
:1014B000E068237803EB43039A000244914200D191
:1014C000A060637801336370012038BD002038BD0F
:1014D00070B586B00646FF214FF04020FFF7ACFC08
:1014E000FF210D48FFF7A8FC6C460C4D0FCD0FC433
:1014F00095E8030084E803006846FFF703FC252015
:10150000FFF770FCFFF772FD01463046FFF70CFF56
:10151000FFF77CFF06B070BD0400004050220008B9
:10152000F0B587B00F4616461D460B4C0094FFF7EA
:10153000B3FE044660B903978DF81060059507481F
:10154000FFF77CFF20B903A90448FFF785FF0124BA
:10155000204607B0F0BD00BF61150008A8020020BA
:1015600010B584B004460848FFF76EFF50B901A9D2
:101570000548FFF78FFF039B9DF80820019920463F
:10158000FFF7CEFF04B010BDA8020020F0B587B071
:101590000F4616461D460B4C0094FFF79BFE044673
:1015A00060B903978DF8106005950748FFF746FF6F
:1015B00020B903A90448FFF74FFF0124204607B0D4
:1015C000F0BD00BFCD150008B802002010B584B0F2
:1015D00004460848FFF738FF50B901A90548FFF74E
:1015E00059FF039B9DF8082001992046FFF7CEFF85
:1015F00004B010BDB80200200122014B1A707047E0
:10160000BC03002038B5134B1B7833B9124B0422AE
:1016100012491348FFF7BAFF38BD104A13785478BF
:1016200003EB0423947803EB0443D47803EB0464C2
:1016300005210020FFF764FA0A4D22460A49284690
:1016400000F0CCF82846FFF76FFA0022014B1A7021
:1016500038BD00BFBC030020F9150008C0030020FE
:1016600000380140840100206822000808B50020ED
:10167000FFF7BAFD012817D10D4B1B78BBB901222A
:101680000B4B1A700B4A1368013313600A490B7035
:101690001A0A4A701A0C8A701B0ECB70002304229F
:1016A0000648FFF73DFF08BD0022014B1A7008BD38
:1016B000800100207C010020B80300200038014098
:1016C00008B5FF210C48FFF7B7FBFF210B48FFF7D8
:1016D000B3FBFF210A48FFF7AFFB0120FFF7A2FB96
:1016E0000848FFF7F5FEFFF749FDFFF773F9FFF72D
:1016F000C9FCFFF7FDFCFEE71000004004000040BD
:101700000800004000380140034628B1002018704E
:1017100059705A6001207047002070470078B0FA75
:1017200080F04009704700BF02784078824214BFC1
:1017300000200120704700BF10B584B004AC04E95C
:101740000E0098B10446FFF7EFFF88B96168227870
:1017500002EB420293000B4404AA12E9070083E85B
:101760000700237801332370012002E0002000E00D
:10177000002004B010BD00BF18B338B5054611B342
:101780000C46FFF7CBFF00BB6B6893E8070084E8CB
:1017900007002B78013B2B7000230DE0696803EBF9
:1017A000430294000C44013303EB430082000A44DB
:1017B00007CA84E80700DBB22A789342EED30120FF
:1017C00038BD00207047002038BD002038BD00BF64
:1017D000014B1868704700BFD00000200EB400B560
:1017E0004FF402719CB0ADF814106FF000410491F9
:1017F00007914FF6FF711DAB02900690084853F811
:10180000042BADF81610006802A9019300F09EF8B1
:10181000029B00221A701CB05DF804EB03B0704705
:10182000D000002030B5141E05469BB0184604DADF
:101830008B232B604FF0FF301DE04FF40273ADF8A7
:101840000C300CBF234604F1FF33029305934FF68F
:10185000FF7300910491ADF80E3002461E9B69465D
:10186000284600F073F8431CBCBF8B232B6014B1D7
:10187000009B00221A701BB030BD000007B500931A
:1018800013460A46014603480068FFF7CBFF03B042
:101890005DF804FBD00000202DE9F0478E688246F9
:1018A0009E420C46914698463ED88A8912F4906F23
:1018B0003AD02568096902236F1A656905EB450569
:1018C00095FBF3F57B1C43449D4238BF1D465305F1
:1018D0000FD5294600F04AFB064698B13A462169E1
:1018E00000F0D2FAA38923F4906343F08003A3812C
:1018F00013E02A4600F098FB064670B9216950466D
:1019000000F0E8FA0C23CAF80030A3894FF0FF304A
:1019100043F04003A381BDE8F08726613E44266082
:1019200046466561ED1BA560464528BF46464946CB
:101930003246206800F0B3FAA36800209B1BA36026
:1019400023681E442660BDE8F08700002DE9F04FB3
:101950009DB003938B8980461C060D4616460DD517
:101960000B695BB9402100F001FB2860286118B9C0
:101970000C23C8F80030CDE040236B6100230993AD
:1019800020238DF82930DFF89CB130238DF82A30E0
:1019900037463C4614F8013B1BB9B7EB060910D09B
:1019A00003E0252BF9D02746F3E74B46324629467C
:1019B0004046FFF771FF013000F0A780099B4B44C0
:1019C00009933B78002B00F0A08000234FF0FF32FA
:1019D00004930793059206938DF853301A930126CA
:1019E000052221784E4800F041FA671C049B38B16B
:1019F0004B4A3C46801A06FA00F018430490EFE781
:101A0000D90644BF20228DF853201A0744BF2B2249
:101A10008DF8532022782A2A03D0079A00210A2021
:101A20000BE0039A111D12680391002A10DA52424A
:101A300043F00200079204900BE027463B78013404
:101A4000303B092B03D800FB02320121F5E701B13D
:101A500007923B782E2B1ED17B782A2B0AD1039B31
:101A600002371A1D1B680392002BB8BF4FF0FF33DB
:101A7000059310E0002319460593781C0A240746B5
:101A80003A780130303A092A03D804FB01210123B6
:101A9000F5E703B1059103223978224800F0E6F911
:101AA00040B14023CBEB000003FA00F0049B013768
:101AB00018430490397806221B487E1C8DF82810A4
:101AC00000F0D4F988B1194B33B9039B073323F0E5
:101AD00007030833039314E003AB00932A46144B27
:101AE00004A94046AFF3008007E003AB00932A4609
:101AF0000F4B04A9404600F093F8B0F1FF3F824637
:101B000003D0099B5344099342E7AB895B0601D498
:101B1000099801E04FF0FF301DB0BDE8F08F00BF25
:101B20006C220008722200087622000800000000E3
:101B3000991800082DE9F04791461F460A698B68FD
:101B400006469342B8BF1346C9F8003091F84320C7
:101B50000C46DDF8208012B10133C9F8003023684B
:101B6000990642BFD9F800300233C9F80030256821
:101B700015F0060510D104F1190A07E001235246B9
:101B800039463046C04701301AD00135E368D9F8EC
:101B900000209B1A9D42F1DB94F843302268003309
:101BA00018BF012392060FD5E118302081F84300B9
:101BB0005A1C94F845102244023382F8431003E083
:101BC0004FF0FF30BDE8F08704F14302394630465C
:101BD000C0470130F4D02268D9F80050E36802F021
:101BE0000602042A08BF5D1B2269A3680CBF25EA10
:101BF000E57500259342C4BF9B1AED184FF000090C
:101C00001A344D4509D00123224639463046C04793
:101C10000130D5D009F10109F3E70020BDE8F087D4
:101C20002DE9F04317460A7E85B06E2A984606468F
:101C30000C460C9B01F1430E00F0AE8011D8632AD4
:101C400022D009D8002A00F0BB80582A40F0CA8070
:101C500081F84520834955E0642A1ED0692A1CD0AA
:101C6000C0E0732A00F0B08009D86F2A2ED0702A05
:101C700040F0B8800A6842F020020A603EE0752A0F
:101C800024D0782A3AD0ADE01A6801F14205111D3E
:101C90001960136884F84230A8E021681A6811F0CE
:101CA000800F02D0111D196008E011F0400F02F101
:101CB0000401196002D0B2F9003000E01368002B73
:101CC0003CDA2D225B4284F8432037E021681A6811
:101CD00011F0800F02D0111D196007E011F0400FC4
:101CE00002F10401196001D0138800E01368227E1C
:101CF0005C496F2A14BF0A2208221BE078225A4945
:101D000084F845202268186812F0800F00F104055D
:101D10001D6003D1550601D5038800E00368D00794
:101D200044BF42F0200222601BB9226822F0200248
:101D300022601022002084F8430001E049490A2271
:101D40006568002DA56008DB206820F00400206095
:101D50002BB9002D7DD175460CE0002B79D075464E
:101D6000B3FBF2F002FB1033CB5C05F8013D0346F8
:101D70000028F5D1082A0BD12368DA0708D5236992
:101D800062689A42DEBF302305F8013C05F1FF3559
:101D9000C5EB0E0323612EE008681A6810F0800F6F
:101DA000496903D0101D1860136808E010F0400F57
:101DB00002F104001860136801D0198000E0196076
:101DC00000232361754616E01A68111D1960156815
:101DD00000216268284600F049F808B1401B6060A5
:101DE000636804E004F1420584F842200123236182
:101DF000002384F84330CDF800803B4603AA2146F7
:101E00003046FFF797FE013002D14FF0FF3026E059
:101E100023692A4639463046C0470130F5D0236849
:101E20009B0710D5002504F1190907E001234A4654
:101E300039463046C0470130E7D00135E368039AA0
:101E40009B1A9D42F2DBE068039B9842B8BF18469C
:101E500005E00B7804F1420584F842308AE705B0CA
:101E6000BDE8F0837D2200088E22000810B5C9B2BB
:101E700002449042034605D01C7801308C42F8D1D0
:101E8000184610BD002010BD10B5431E0A449142F3
:101E900004D011F8014B03F8014FF8E710BD884258
:101EA00010B501EB020301D8421E0BE09842FBD2B1
:101EB0008118D21AD34204D013F8014D01F8014D14
:101EC000F8E710BD994204D011F8014B02F8014F18
:101ED000F8E710BD38B50546002944D051F8043C58
:101EE0000C1F002BB8BFE41800F0D4F81E4A13688A
:101EF000114613B96360146030E0A3420DD9226823
:101F0000A018834201BF18685B68121822606360E2
:101F10000C6023E0A24203D813465A68002AF9D184
:101F200018681918A1420BD121680144581882423F
:101F3000196013D110685268014419605A600DE0AD
:101F400002D90C232B6009E021686018824201BF8E
:101F5000106852680918216062605C602846BDE81C
:101F6000384000F098B838BD9401002070B5CD1C01
:101F700025F0030508350C2D38BF0C25002D06462D
:101F800001DBA94202D90C23336046E000F082F85D
:101F9000234B1C681A462146A1B10B685B1B0ED46B
:101FA0000B2B03D90B60CC18CD501EE08C420BBF1D
:101FB00063684B681360636018BF0C4615E00C46FD
:101FC0004968E9E7174C23681BB9304600F052F81E
:101FD00020602946304600F04DF8431C18D0C41C40
:101FE00024F00304A0420DD12560304600F053F8E0
:101FF00004F10B00231D20F00700C31A0ED05A4233
:10200000E25070BD211A304600F034F80130EBD1B7
:102010000C233360304600F03EF8002070BD00BF56
:102020009401002090010020F8B5074615460E46A1
:1020300021B91146BDE8F840FFF798BF1AB9FFF77C
:1020400049FF2846F8BD00F027F885420ED92946F9
:102050003846FFF78BFF044650B131462A46FFF75A
:1020600013FF31463846FFF735FF01E03046F8BD33
:102070002046F8BD38B5064C0023054608462360C7
:10208000FEF780F9431C02D1236803B12B6038BDF1
:10209000980100207047704751F8040C0028BEBF1B
:1020A000091851F8043CC018043870475374616330
:1020B0006B206672616D653A0A0000002052302084
:1020C0003D2020253038580A0000000020523120E1
:1020D0003D2020253038580A0000000020523220D0
:1020E0003D2020253038580A0000000020523320BF
:1020F0003D2020253038580A00000000205231329F
:10210000203D20253038580A00000000204C522085
:102110003D2020253038580A000000002050432080
:102120003D2020253038580A00000000205053522E
:10213000203D20253038580A000000004653522F19
:102140004641523A0A0000002043465352203D20A7
:1021500020253038580A00002048465352203D20A0
:1021600020253038580A00002044465352203D2094
:1021700020253038580A00002041465352203D2087
:1021800020253038580A0000204D4D464152203D50
:1021900020253038580A00002042464152203D2078
:1021A00020253038580A00004D6973630A0000008A
:1021B000204C522F4558435F52455455524E3D20B6
:1021C000253038580A0000005B486172644661752A
:1021D0006C745D0A000000005B4275734661756CAB
:1021E000745D0A005B55736167654661756C745D6B
:1021F0000A000000680000200000000050000020DD
:1022000000000000600000200000000058000020D6
:10221000000000000B000000420000000C00000065
:1022200000000000000000000000000000000000AE
:10223000000000000000000000000000000000009E
:10224000000000000000000000000000000000008E
:10225000FFFFFFFF0FF0FFFF0000000090040000F1
:102260000008014000000000256C7500232D302B74
:102270002000686C4C006566674546470030313287
:1022800033343536373839414243444546003031DE
:0F2290003233343536373839616263646566003E
:1022A00078563412E000002000000000000000001A
:1022B00000000000010203040607080900A24A0406
:1022C00002FFFFFF2D090008E10800086908000867
:1022D0004108000831080008090800083108000812
:1022E000E107000831080008B907000831080008B4
:1022F000051600081E0000006D1600081E000000F4
:10230000590A000805000000F5110008050000004A
:1023100000000000000000000000000000000000BD
:1023200000000000000000000000000000000000AD
:10233000000000000000000000000000000000009D
:10234000000000000000000000000000000000008D
:10235000000000000000000000000000000000007D
:10236000000000000000000000000000000000006D
:08237000700000203254769841
:040000050800010DE1
:00000001FF
