:020000040800F2
:100000000050002021020008270200082B020008EF
:100010009D020008A1020008E9020008000000009B
:100020000000000000000000000000003103000894
:10003000350300080000000039030008DD0900084E
:100040004D0300084D0300084D0300084D03000850
:100050004D0300084D0300084D0300084D03000840
:100060004D0300084D0300084D0300086911000806
:10007000C511000825120008851200082D1300087C
:10008000D5130008351400084D0300084D0300087F
:100090004D0300084D0300084D0300084D03000800
:1000A0004D0300084D0300084D0300084D030008F0
:1000B0004D0300084D0300084D0300084D030008E0
:1000C0004D0300084D0300084D0300084D030008D0
:1000D0004D030008190800084D0300084D030008EF
:1000E0004D0300084D0300084D0300080000000008
:1000F0000000000000000000000000000000000000
:1001000000000000000000005FF808F100B583B0B7
:1001100000F0AAF9304B314A1360314A1360314B79
:10012000314A32498B4204D21168196004330432D7
:10013000F7E72A4B1A682E4B9A4200D0FEE7284B6D
:100140001A682C4B9A42F9D1234B2B4A13602B4A45
:1001500013602B4B02E000221A600433294A9342B9
:10016000F9D3254B1B6813B9244B1B6803B1FEE779
:1001700000F086F9694601A800F022F9224C234BD1
:10018000E41AA4100025AC4214DC214C214BE41AE3
:10019000A4100025AC4213DC0099019801F052FC38
:1001A00005461D4C1D4BE41AA410002C0EDC2846FD
:1001B00000F0E2F8154B53F8253098470135E2E797
:1001C000144B53F8253098470135E3E7013C134BB6
:1001D00053F824309847E8E7BABADECA0000002096
:1001E0008C000020000000209C2C000890000020C3
:1001F000785634123254769890000020280B002054
:10020000900000202C0B00207803000878030008E1
:1002100078030008780300087803000878030008D2
:1002200008B5FFF773FF00BEFEE71EF0040F0CBF1A
:10023000EFF30880EFF309807146414A10472DE93A
:10024000F04182B004468846124B5E6B9F6B9D6AFC
:100250001B6B13F0020F03D00E4BDB6A002B0CDB81
:100260000D4800F0B5F8CDF800803B4632462946EF
:10027000204600F009F900BEFEE74BF6AB6100F046
:100280007DF90028ECD0034B4FF00042DA6202B057
:10029000BDE8F08100ED00E08C29000800BEFEE71B
:1002A0001EF0040F0CBFEFF30880EFF309807146D6
:1002B000244A10472DE9F04182B004468846084B95
:1002C0005E6B9F6B9D6A074800F082F8CDF8008056
:1002D0003B4632462946204600F0D6F800BEFEE7EF
:1002E00000ED00E09C2900081EF0040F0CBFEFF3A6
:1002F0000880EFF309807146134A10472DE9F04159
:1003000082B004468846084B5E6B9F6B9D6A074827
:1003100000F05EF8CDF800803B4632462946204684
:1003200000F0B2F800BEFEE700ED00E0A8290008EA
:1003300000BEFEE700BEFEE700BEFEE7704700001D
:100340003F020008B5020008FD02000800BEFEE7FB
:100350009C2C000800000020900000209C2C00082D
:100360000000000000000000900000202C0B002086
:08037000000000000000000085
:10037800FEE7000008B503460C4A12685AB10B4A5A
:100388001068033323F003030344094A934206D851
:10039800064A136008BD054A06491160EFE701F0F7
:1003A80033FE0C2303604FF0FF30F3E79400002086
:1003B800004C00202C0B002001230360014B0B6034
:1003C800704700BF040000200FB400B583B004AB31
:1003D80053F8042B01938021064801F047FE0028BA
:1003E80003DD0146034800F037F803B05DF804EB7D
:1003F80004B070479C0000202DE9F04385B0044606
:100408000F4643560BB10E461EE0042528462146EA
:10041800ABBE0446384605B0BDE8F08314F9011BAD
:1004280004AA1A4402F8101C0133AB42F6D304AAFA
:100438001344002203F8102C4FF00408E946404604
:100448004946ABBE8046761B002EE3D03546102EBB
:1004580028BF10250023E8E708B5FFF7CDFF08BD42
:1004680008B500F0FDF8024A024B9A6008BD00BFCB
:100478000000000800ED00E008B500F019F908BD1B
:10048800F8B504460D4617461E462748FFF79CFF59
:1004980021682648FFF798FF61682548FFF794FF11
:1004A800A1682448FFF790FFE1682348FFF78CFF15
:1004B80021692248FFF788FF61692148FFF784FF17
:1004C800A1692048FFF780FFE1691F48FFF77CFF1B
:1004D8001E48FFF779FF29461D48FFF775FF1D4C99
:1004E800E16A1D48FFF770FF216B1C48FFF76CFF9E
:1004F800E16B1B48FFF768FF15F0800F0AD115F470
:10050800004F0CD11748FFF75FFF06991648FFF711
:100518005BFFF8BD39461548FFF756FFEFE7314650
:100528001348FFF751FFEDE77028000880280008FE
:1005380090280008A0280008B0280008C028000853
:10054800D0280008E0280008F02800080029000842
:100558000C29000800ED00E01C2900082C290008DF
:100568003C2900086C290008742900084C29000857
:100578005C29000883691A888A4201D000207047E4
:100588000268033A012A03D80233836101207047C5
:100598000020704782B00023019300932C4A13680F
:1005A80043F4803313602A4B1B6803F40033009331
:1005B800019B01330193009B1BB9019BB3F5A06F0D
:1005C800F1D1234B1B6813F4003F06D0012300939D
:1005D800009B012B04D002B0704700230093F7E77B
:1005E8001C4B1A6842F010021A601A6822F00302C3
:1005F8001A601A6842F002021A60A3F580535A681A
:100608005A605A685A605A6842F480625A605A6856
:1006180022F47C125A605A6842F4E8125A601A6846
:1006280042F080721A600A4B1B6813F0007FFAD000
:10063800074B5A6822F003025A605A6842F00202D5
:100648005A60034B5B6803F00C03082BF9D1C2E72F
:10065800001002400020024008B5FFF79BFF08BDCC
:1006680008B5104B1A6842F001021A6059680E4A20
:100678000A405A601A6822F0847222F480321A60A2
:100688001A6822F480221A605A6822F4FE025A601C
:100698004FF41F029A60FFF7DFFF044B4FF0006230
:1006A8009A6008BD001002400000FFF800ED00E06D
:1006B8001F4B5B6803F00C03042B15D0082B17D0D5
:1006C8001BB11C4B1C4A1A6002E01A4B1A4A1A60EA
:1006D800174B5B68C3F30313184AD35CDAB21549A6
:1006E8000B68D3400B607047124B134A1A60EFE750
:1006F8000F4A53685268C3F38343023312F4803FAE
:100708000AD00B4A526812F4003F0BD00C4A02FB85
:1007180003F3084A1360DBE7094A02FB03F3054ABF
:100728001360D5E7044A02FB03F3024A1360CFE7DC
:10073800001002401C00002000127A000C0000206B
:1007480000093D000068C0F3801070470068C0F3DE
:10075800401070470068C0F300207047C36823F05A
:1007680080030B43C3607047C36823F020030B4327
:10077800C3607047C36823F040030B43C3607047EE
:1007880008B5426942F0C0024261026822F04002A4
:1007980002604021FFF7EEFF08BDC36823F4005351
:1007A8000B43C3607047C36823F008030B43C3605F
:1007B8007047C36823F004030B43C360704700000D
:1007C80038B504460D464FF40051FFF7E6FF0821FF
:1007D8002046FFF7E8FF04212046FFF7EAFFE36819
:1007E80023F4B053E360236923F440532361054B9A
:1007F800A3FB0535AD0AA5600023034A1373034A1A
:10080800137338BDB5814E1B440100202C01002014
:1008180010B53E48FFF79EFF20BB3C48FFF792FF0C
:1008280000284DD000BF394A136823F040031360F5
:10083800374B1B68052B27D0062B45D1354800F0D0
:100848002DFF3548FFF7C0FD344B9A685B689A4224
:1008580027D2324B1968895C2C4A51609A68013258
:100868009A6031E02E4800F019FF284A136823F4F3
:10087800B07313602B4B1B6833B32B48FFF7A4FDF1
:10088800284B1B6898471FE0284B00221A701F4A04
:10089800136823F040031360254B1B68A3B19847E6
:1008A80012E01E4C002121731848FFF757FF2369F7
:1008B80003B19847194B5B6933B11448984703E073
:1008C8001248FFF743FF00B910BD1A4800F0E6FED2
:1008D8000E4B5968184C2268A368D1540133A360A1
:1008E8001648FFF771FDA26863689A42ECD10021AF
:1008F80021730648FFF738FF236903B198470E4B69
:100908005B69002BE0D001489847DDE700380140DB
:1009180024010020C8290008D0290008440100202B
:10092800B829000820010020C0290008280100205B
:100938001C010020E42900082C010020E8290008F7
:10094800014B1860012070471C01002011480078F5
:1009580008B10020704710B58AB018460E4B052420
:100968001C600C4B0D241C7010230193002305936D
:10097800069302930393802304930792074B0893EB
:100988000991FFF7DDFF01A9032000F08DFB01208D
:100998000AB010BD280100202401002004380140BD
:1009A80010B58AB00020019002900390802404942E
:1009B800059006900792064A089209911946042064
:1009C80000F0C4FB01A9042000F06EFB0AB010BDC2
:1009D8000438014008B5024B1B6803B1984708BDAD
:1009E8005C010020034B5B6803F00C0303700120DB
:1009F800704700BF00100240034A536823F0030306
:100A080018435060012070470010024010F0005F4A
:100A180014D0FE2909D0FF293FD1244A536920F078
:100A280000501843506101207047204A536920F054
:100A3800005023EA000050610120704700280EDBB7
:100A480010F0804F2DD0FE291ED0FF292BD1174A38
:100A5800936920F080401843906101207047FE2977
:100A680009D0FF291BD1114AD36920F0004018434F
:100A7800D061012070470D4AD36920F0004023EA75
:100A88000000D06101207047084A936920F0804037
:100A980023EA000090610120704700207047002081
:100AA8007047002070470020704700BF00100240C8
:100AB80000B583B00DF10700FFF794FF9DF80730EC
:100AC80063B3042B03D0082B08D0002027E0164B73
:100AD8001B6813F4802F25D0002020E0124B5B68A0
:100AE80013F4803F0ED0104B1B6813F4802F07D0EF
:100AF80000200D4B5B6813F4003F04D0400802E06F
:100B08000A48F6E70A48084B5B68C3F38343023395
:100B1800102B00D9102300FB03F000E0034803B0BA
:100B28005DF804FB0148FAE70010024000127A0061
:100B380000093D0008B5FFF7BBFF204B5B6803F0D9
:100B4800F003802B2BD01D4B5B6803F0F003902B38
:100B580027D01A4B5B6803F0F003A02B23D0174B68
:100B68005B6803F0F003B02B1FD0144B5B6803F0F5
:100B7800F003C02B1BD0114B5B6803F0F003D02BA4
:100B880017D00E4B5B6803F0F003E02B13D00B4B30
:100B98005B6803F0F003F02B02D1400A00E0400844
:100BA80008BD8008FCE7C008FAE70009F8E78009F3
:100BB800F6E7C009F4E7000AF2E700BF00100240B8
:100BC80008B5FFF7B7FF084B5B6813F4005F09D05F
:100BD800054B5B68C3F3C2231A1F02239340DBB2A1
:100BE800B0FBF3F008BD00BF00100240F0280ED89B
:100BF80010B44409074951F8242000F01F030120CC
:100C080000FA03F3134341F8243010BC7047002066
:100C1800704700BF00E100E00B4BDB6813F0010FE9
:100C2800FAD1094B1A6942F001021A615861018030
:100C3800054BDB6813F0010FFAD1034A136923F05F
:100C4800010313610120704700200240034B044A4E
:100C58005A6002F188325A60704700BF0020024093
:100C680023016745194B1B6913F0800F2CD1174BD3
:100C7800DB6813F0010FFAD1144B1A6942F0020233
:100C88001A6120F47F7222F003025A611A6942F055
:100C980040021A610D4BDB6813F0010FFAD10023F3
:100CA800B3F5007F07D201884FF6FF72914204D155
:100CB80001339BB2F4E7012000E00020034A1369E6
:100CC80023F00203136170470020704700200240A0
:100CD800B24B1B6913F0800F40F057812DE9F04F9C
:100CE800ADF6240D22F0010AAAF1020A824420F48A
:100CF8007F7323F00303CDF80834DDF808346FEA76
:100D080093236FEA8323CDF80C34DDF80834AAEB7B
:100D180003035B109846002B46DBC8F3472808F10D
:100D280001085FFA88F8DDF80834C31AC3F34F03E3
:100D3800ADF81034B8F1010F39D02AF47F7323F0DD
:100D48000303CDF81438BDF81034C3F500739BB213
:100D5800ADF81234DDF81438AAEB03035B10013345
:100D68009BB2ADF81E38DDF814386FEA93236FEAAA
:100D78008323CDF81838DDF81838A3EB0A03C3F33A
:100D88004F03ADF81C38DDF808740023BDF81224B1
:100D980092B29A4214D930F813404FF6FF72944237
:100DA80021D101339BB2F1E703F2FF18B5E7C2F393
:100DB8004F02ADF81224ADF81E28CDF81408D2E77A
:100DC800142300930023BDF81E2892B29A420DD92D
:100DD800DDF8142832F813404FF6FF72944213D10D
:100DE80001339BB2EFE719230093EBE74FF0140BA5
:100DF800009B192B1AD0BBF1190F27D089460190F7
:100E080000242646012383E04FF0190BF0E7DDF8B4
:100E1800082432F8132002AC24F8132001339BB2C3
:100E2800BDF8102492B29A42F1D8E4E70023F7E71C
:100E3800531C3AF813500DF2144424F812509AB285
:100E4800BDF81C389BB29342F2D8D7E70022F7E7E7
:100E5800009A192A03D0012B63D100251EE03846D9
:100E6800FFF700FF03460128F5D10025BDF810243F
:100E780092B2AA42EFD9DDF8080402AB33F8151094
:100E880000EB4500FFF7C8FE03460028E3D0013514
:100E9800ADB2EBE70136B6B20135ADB2BDF81224FA
:100EA80092B2AA423DD939F81610019B03EB4500CE
:100EB800FFF7B2FE03460028ECD132E0B8F1010F8B
:100EC80015D1012B34D10025BDF81C2892B2AA42B5
:100ED8002ED9681C0DF2144333F815100AEB4000A4
:100EE800FFF79AFE034618B30135ADB2ECE7384672
:100EF800FFF7B8FE0346E4E73846FFF7B3FE0346BC
:100F0800012830D0002B43D007F580670134E4B2C4
:100F180044453DD21CB108F1FF329442ECD1002C7B
:100F280096D008F1FF329442EED1BBF1190FC5D02B
:100F3800012BE9D1B8F1010FE6D00025BDF81E2834
:100F480092B2AA42E0D9DDF8140839F8161000EB7D
:100F58004500FFF761FE03460028D5D00136B6B23A
:100F68000135ADB2EAE70025B5F5007FCAD239F8F8
:100F7800161007EB4500FFF74FFE03460028C1D0C7
:100F88000136B6B20135ADB2EEE700231846704718
:100F980018460DF6240DBDE8F08F00BF0020024072
:100FA800044B1B688000013023FA00F000F00100B8
:100FB800704700BF00000240044B1B6880000230ED
:100FC80023FA00F000F00100704700BF0000024063
:100FD800044B1B688000033023FA00F000F0010086
:100FE800704700BF0000024004494B688000421C63
:100FF8000120904003434B60704700BF000002404F
:1010080004494B688000821C0120904003434B60D8
:10101800704700BF0000024004494B688000C21CB2
:101028000120904003434B60704700BF000002401E
:1010380008B5FF210C48FFF7E9FC0B20FFF7D6FDA8
:101048000C20FFF7D3FD0D20FFF7D0FD0E20FFF792
:10105800CDFD0F20FFF7CAFD1020FFF7C7FD1120B7
:10106800FFF7C4FD08BD00BF01000020034600EBE8
:1010780080018A0002F1804202F50032926822F46F
:10108800405222F00E0242F00202062809D900203E
:1010980003EB8303990001F1804303F500339A6061
:1010A80070470120F4E700000346254A105C002839
:1010B80043D1F0B4234AD55C002D3AD1204A2220EE
:1010C800D05403EB8300820002F1804202F5003223
:1010D800946824F49F4424F0710408688A680243E1
:1010E800C86802430869024348690243224312F46C
:1010F800804F0AD148680243202801D0012008E027
:1011080010482324C454012003E04868202812D042
:1011180001200D4E9D00EF18BC003444A2608A697E
:10112800E260CA6922610A6A6261A26842F0010249
:10113800A260F0BC70472846EBE70020704700BF6C
:10114800100A0020080A00200000024021B1034ACA
:1011580042F82010012070470020704760010020ED
:1011680008B50020FFF71CFF48B10020114B18708C
:10117800FFF73AFF104B1B6803B1984708BD0020E2
:10118800FFF71AFF40B10020FFF73AFF0A4BDB696F
:10119800002BF3D09847F1E70020FFF719FF00284C
:1011A800ECD00020FFF738FF034B9B6B002BE5D0FA
:1011B8009847E3E7100A00206001002008B50120E5
:1011C800FFF7EEFE50B1134B00225A700120FFF7D3
:1011D8000BFF114B5B6803B1984708BD0120FFF76F
:1011E800EBFE40B10120FFF70BFF0B4B1B6A002BF6
:1011F800F3D09847F1E70120FFF7EAFE0028ECD08A
:101208000120FFF709FF044BDB6B002BE5D0984763
:10121800E3E700BF100A00206001002008B50220A3
:10122800FFF7BEFE50B1134B00229A700220FFF761
:10123800DBFE114B9B6803B1984708BD0220FFF7FE
:10124800BBFE40B10220FFF7DBFE0B4B5B6A002BB5
:10125800F3D09847F1E70220FFF7BAFE0028ECD058
:101268000220FFF7D9FE044B1B6C002BE5D09847F2
:10127800E3E700BF100A00206001002008B5234BF7
:101288001B6893B1012B17D0022B1CD00320FFF74A
:1012980087FEF8B11E4B0022DA700320FFF7A4FE88
:1012A8001C4BDB6803B1984708BD1B48FFF78CF857
:1012B800164B01221A60E9E71848FFF785F8134B27
:1012C80002221A60E2E71648FFF77EF80F4B002269
:1012D8001A60DBE70320FFF76FFE40B10320FFF73A
:1012E8008FFE0C4B9B6A002BDED09847DCE703206F
:1012F800FFF76EFE0028D7D00320FFF78DFE054BC1
:101308005B6C002BD0D09847CEE700BFB40100201B
:10131800100A002060010020F8290008102A00089F
:10132800202A000808B5234B1B6893B1012B17D05E
:10133800022B1CD00420FFF733FEF8B11E4B00220D
:101348001A710420FFF750FE1C4B1B6903B1984724
:1013580008BD1B48FFF738F8164B01221A60E9E769
:101368001848FFF731F8134B02221A60E2E71648D3
:10137800FFF72AF80F4B00221A60DBE70420FFF77B
:101388001BFE40B10420FFF73BFE0C4BDB6A002B31
:10139800DED09847DCE70420FFF71AFE0028D7D0F4
:1013A8000420FFF739FE054B9B6C002BD0D09847E3
:1013B800CEE700BFB8010020100A0020600100201D
:1013C800382A0008482A0008642A000808B50520B9
:1013D800FFF7E6FD50B1134B00225A710520FFF7C5
:1013E80003FE114B5B6903B1984708BD0520FFF761
:1013F800E3FD40B10520FFF703FE0B4B1B6B002BF1
:10140800F3D09847F1E70520FFF7E2FD0028ECD07C
:101418000520FFF701FE044BDB6C002BE5D0984755
:10142800E3E700BF100A00206001002008B506208D
:10143800FFF7B6FD50B1134B00229A710620FFF753
:10144800D3FD114B9B6903B1984708BD0620FFF7F0
:10145800B3FD40B10620FFF7D3FD0B4B5B6B002BB0
:10146800F3D09847F1E70620FFF7B2FD0028ECD04B
:101478000620FFF7D1FD044B1B6D002BE5D09847E4
:10148800E3E700BF100A0020600100202DE9F04FBB
:1014980083B0002127E04FF00F0EACF12009CCF10A
:1014A80020080EFA09FB2EFA08F84BEA080B0EFA88
:1014B8000CFA24EA0A0425EA0B054FF0080ECCF1D1
:1014C80020080EFA09F72EFA08F847EA08070EFA74
:1014D8000CF634433D43C0E90245056901248C40BC
:1014E8002C610131C9B20F2929D8D0E902450091F0
:1014F8004FEA810CCCF12008ACF1200E24FA0CF252
:1015080005FA08F842EA080225FA0EFE42EA0E0237
:1015180002F00C084FF00009B9F1000F08BFB8F14C
:101528000C0FB8D002F0080400252C43D9D0056967
:1015380001950124009DAC40019D6C61D1E70169D2
:10154800D0E90045D1E9002302EA040603EA0507C9
:10155800C1E900670169D0E90245D1E9002342EAFF
:10156800040643EA0507C1E90067012003B0BDE8A6
:10157800F08F02784078824214BF00200120704723
:1015880010B584B004AC04E90E00A0B10446FFF71E
:10159800F0FF90B96368227802EB420291000B4495
:1015A80004AA12E9070083E80700237801332370AF
:1015B800012004B010BD0020FBE70020F9E700007F
:1015C80008B500F059FB094900F0A4FA00F0FCFC4A
:1015D80000F052FB064900F05BFC00F0F5FC00232C
:1015E80001E000BF01338342FBD308BD0456223F0C
:1015F800FFE7B03B074B0A221A705A700649596038
:101608009960D960054B1A705A70054A5A609A60F9
:10161800DA607047180A0020380A0020280A0020DB
:10162800B00A002070B586B00646FF214FF0402072
:10163800FFF7ECF9FF210D48FFF7E8F96C460C4D70
:101648000FCD0FC495E8030084E803006846FFF750
:101658001DFF2520FFF7CAFAFFF7B2FA0146304608
:10166800FFF7AEF8FFF7C6FF06B070BD04000040F4
:10167800982A000810B504460320FFF7F7FC042059
:10168800FFF7F4FC2046FFF77BF810BD08B5FFF71D
:101698005DF908BD08B5FFF783F908BD00B585B049
:1016A80000238DF8043002908DF80C3002E00133ED
:1016B8008DF80C309DF80C30C25C0AB10F2BF6D9AE
:1016C80004AB13E90E000348FFF75AFF05B05DF8B5
:1016D80004FB00BFBC010020552313705170012387
:1016E80053801071AA2353710620704740787047C1
:1016F80010B50B685C78844204D00848FEF764FE95
:10170800002010BD5B8813800B6804330B60044A0B
:101718001378013313700120F3E700BFB02A0008E3
:10172800C4010020014B024A1A6070470CED00E02A
:101738000400FA0508B50548FEF746FE044B1522D5
:1017480004490548FFF7A6FF08BD00BF002C0008A4
:10175800C1170008C80500200038014008B5114B22
:101768001B68B3F5806F0CD80F48FEF72DFE0D4BA4
:101778001A6805320D4B92B20D490E48FFF78AFFE1
:1017880008BD0948FEF720FE084B40F2054208490B
:101798000848FFF77FFF034A1368A3F580631360C7
:1017A800EEE700BFF8090020E82B0008D51800086C
:1017B800C80500200038014030B583B0324B019392
:1017C800002002AA22F8060D01A9FFF791FF0128BF
:1017D80004D02E48FEF7F8FD03B030BD019B196810
:1017E8002B4C21605A6862609A68A260DB68E360EB
:1017F8002848FEF7E9FD61682748FEF7E5FDA1687E
:101808002648FEF7E1FDE1682548FEF7DDFDE168C1
:10181800244D29606268244B1A602448FEF7D4FDE1
:101828002B68E3B1204B1B68CBB1214C2246002129
:101838001520FFF751FF054640F6B830FFF7C0FE08
:1018480000232A4621461B48FFF720FF0446FFF7DE
:1018580085FF012CC0D11848FEF7B6FDBCE70C4B3C
:101868001A68164B9A42B7D11548FEF7ADFD084BDA
:101878001A6814490A609B684B6008221248FFF7EF
:1018880027FAFFF74FFFA7E7C8050020C82B000875
:10189800D80900205C2B0008682B0008782B00086A
:1018A8008C2B0008F8090020E8090020982B000874
:1018B800D009002000380140B02B000822442244FF
:1018C800BC2B0008EC0900200038000830B583B0B4
:1018D8004A48019002AC002324F8063DFFF706FFB2
:1018E8000546224601A9FFF703FF012818D0444CFA
:1018F800224629461520FFF7EFFE054640F6B83088
:10190800FFF75EFE00232A4621463E48FFF7BEFE4B
:101918003D48FEF759FD3D48FEF756FD03B030BD82
:101928003B4C019B23603B4B19683B48FEF74CFD41
:101938003A4B59683A48FEF747FD21683948FEF79F
:1019480043FD002305E0019AD15C374AD1540133A5
:101958009BB2BDF802209A42F5D8019B1A4412F8AE
:10196800012C19783148FEF72FFD3148FEF72CFD80
:10197800BDF802202C49294B5868FFF7A9F901281E
:1019880024D02C48FEF720FDBDF8023021490A6812
:1019980002EB43020A6021494A681A444A60B3F5D7
:1019A800806F17D2164C224629461520FFF794FE61
:1019B800054640F6B830FFF703FE00232A462146C5
:1019C8001048FFF763FEFFF7B5FEA4E71A48FEF7D5
:1019D800FBFCD9E70A4C224629461520FFF77CFE76
:1019E800054640F6B830FFF7EBFD00232A462146AE
:1019F8000448FFF74BFEFFF7B1FE8CE7C80500204F
:101A0800D009002000380140C82B0008402B0008EE
:101A1800F4090020E8090020C42A0008D809002099
:101A2800DC2A0008FC2A0008C8010020102B000846
:101A380008290008302B0008202B000808B5244B83
:101A48001B6819682348FEF7BFFC234B1B681968FD
:101A58002248FEF7B9FC224B1A68224B9A420CD056
:101A68001F4B1A68204B9A4224D0204C2046FEF780
:101A7800ABFC2046FEF7A8FCFEE7FF211C48FEF75A
:101A8800C5FFFF211B48FEF7C1FFFF211A48FEF7DB
:101A9800BDFF0120FEF7B0FF184C2046FFF7C2FD3E
:101AA800FFF7C6FA2046FFF7E5FDFFF7CFF8FFF787
:101AB80041FEDAE71248FEF787FC074B1B681A68F5
:101AC800104B9A42D1D0104B1B689847CDE700BF06
:101AD80024000020182C0008200000202C2C0008CE
:101AE80000380008DDCCBBAA22442244602C000840
:101AF8001000004004000040080000400038014089
:101B0800442C0008AABBCCDD0438000880F0004053
:101B180002E000BF81F0004142001FBF5FEA4103BD
:101B280092EA030F7FEA226C7FEA236C6AD04FEABD
:101B38001262D2EB1363C1BFD21841404840414002
:101B4800B8BF5B42192B88BF704710F0004F40F4B4
:101B5800000020F07F4018BF404211F0004F41F4D0
:101B6800000121F07F4118BF494292EA030F3FD09C
:101B7800A2F1010241FA03FC10EB0C00C3F12003AF
:101B880001FA03F100F0004302D5494260EB40003E
:101B9800B0F5000F13D3B0F1807F06D340084FEAA9
:101BA800310102F10102FE2A51D2B1F1004F40EB9E
:101BB800C25008BF20F0010040EA03007047490006
:101BC80040EB000010F4000FA2F10102EDD1B0FAD1
:101BD80080FCACF1080CB2EB0C0200FA0CF0AABFC6
:101BE80000EBC25052421843BCBFD0401843704764
:101BF80092F0000F81F4000106BF80F4000001326A
:101C0800013BB5E74FEA41037FEA226C18BF7FEA40
:101C1800236C21D092EA030F04D092F0000F08BF82
:101C28000846704790EA010F1CBF0020704712F069
:101C38007F4F04D1400028BF40F00040704712F1A8
:101C480000723CBF00F50000704700F0004343F00D
:101C5800FE4040F4000070477FEA226216BF084643
:101C68007FEA23630146420206BF5FEA412390EA06
:101C7800010F40F4800070474FF0000304E000BFFC
:101C880010F0004348BF40425FEA000C08BF7047AD
:101C980043F0964301464FF000001CE050EA010271
:101CA80008BF70474FF000030AE000BF50EA010286
:101CB80008BF704711F0004302D5404261EB410173
:101CC8005FEA010C02BF84460146002043F0B64398
:101CD80008BFA3F18053A3F50003BCFA8CF2083ABD
:101CE800A3EBC25310DB01FA02FC634400FA02FCC6
:101CF800C2F12002BCF1004F20FA02F243EB0200CD
:101D080008BF20F00100704702F1200201FA02FC2E
:101D1800C2F1200250EA4C0021FA02F243EB020021
:101D280008BF20EADC7070474FF0FF0C1CEAD05265
:101D38001EBF1CEAD15392EA0C0F93EA0C0F6FD026
:101D48001A4480EA010C400218BF5FEA41211ED004
:101D58004FF0006343EA501043EA5111A0FB0131F0
:101D68000CF00040B1F5000F3EBF490041EAD371C5
:101D78005B0040EA010062F17F02FD2A1DD8B3F141
:101D8800004F40EBC25008BF20F00100704790F0B0
:101D9800000F0CF0004C08BF49024CEA502040EA02
:101DA80051207F3AC2BFD2F1FF0340EAC2507047C8
:101DB80040F400004FF00003013A5DDC12F1190F06
:101DC800DCBF00F000407047C2F10002410021FA78
:101DD80002F1C2F1200200FA02FC5FEA310040F190
:101DE800000053EA4C0308BF20EADC70704792F009
:101DF800000F00F0004C02BF400010F4000F013A41
:101E0800F9D040EA0C0093F0000F01F0004C02BF3B
:101E1800490011F4000F013BF9D041EA0C018FE7AA
:101E28000CEAD15392EA0C0F18BF93EA0C0F0AD0B0
:101E380030F0004C18BF31F0004CD8D180EA0100D6
:101E480000F00040704790F0000F17BF90F0004F6F
:101E5800084691F0000F91F0004F14D092EA0C0F51
:101E680001D142020FD193EA0C0F03D14B0218BFE4
:101E7800084608D180EA010000F0004040F0FE402A
:101E880040F40000704740F0FE4040F440007047C6
:101E98004FF0FF0C1CEAD0521EBF1CEAD15392EA45
:101EA8000C0F93EA0C0F69D0A2EB030280EA010C35
:101EB80049024FEA402037D04FF0805343EA1111CE
:101EC80043EA10130CF000408B4238BF5B0042F12C
:101ED8007D024FF4000C8B4224BF5B1A40EA0C00D1
:101EE800B3EB510F24BFA3EB510340EA5C00B3EB03
:101EF800910F24BFA3EB910340EA9C00B3EBD10FF1
:101F080024BFA3EBD10340EADC001B0118BF5FEA42
:101F18001C1CE0D1FD2A3FF650AF8B4240EBC2506B
:101F280008BF20F0010070470CF0004C4CEA50202C
:101F38007F32C2BFD2F1FF0340EAC250704740F47B
:101F480000004FF00003013A37E792F0000F00F06D
:101F5800004C02BF400010F4000F013AF9D040EAEB
:101F68000C0093F0000F01F0004C02BF490011F47F
:101F7800000F013BF9D041EA0C0195E70CEAD15377
:101F880092EA0C0F08D142027FF47DAF93EA0C0F5E
:101F98007FF470AF084676E793EA0C0F04D14B0242
:101FA8003FF44CAF08466EE730F0004C18BF31F0F4
:101FB800004CCAD130F000427FF45CAF31F00043EE
:101FC8007FF43CAF5FE700BF42000ED2B2F1FE4F94
:101FD8000BD34FF09E03B3EB126209D44FEA0023F0
:101FE80043F0004323FA02F070474FF000007047B7
:101FF80012F1610F01D1420202D14FF0FF30704758
:102008004FF00000704700BF014B1868704700BFD1
:102018002800002030B5141E05469BB0184605DA86
:102028008B234FF0FF302B601BB030BD4FF4027391
:10203800ADF80C300CBF234604F1FF33029305932F
:102048004FF6FF7300910491ADF80E3002461E9BC7
:102058006946284600F072F8431CBCBF8B232B60EE
:10206800002CE1D00022009B1A70DDE707B5009331
:1020780013460A46014603480068FFF7CBFF03B042
:102088005DF804FB280000202DE9F0478E688246A1
:102098009E420C469046994637D88A8912F4906F2A
:1020A80031D00223256809696F1A656905EB450572
:1020B80095FBF3F509F101033B449D4238BF1D46EA
:1020C800530530D5294600F035FB064650B90C2398
:1020D8004FF0FF30CAF80030A38943F04003A381D2
:1020E800BDE8F0873A46216900F0B4FAA38923F4E1
:1020F800906343F08003A38126613E4426604E46E8
:102108006561ED1BA5604E4500D94E4632464146F5
:10211800206800F0AAFAA36800209B1BA36023682C
:102128001E442660DCE72A4600F05EFB06460028CF
:10213800E2D12169504600F0B1FAC8E72DE9F04F25
:102148009DB003938B8980461D060C4616460FD515
:102158000B696BB9402100F0EDFA2060206128B9C5
:102168000C23C8F800304FF0FF30C7E0402363610C
:102178000023099320238DF8293030234FF0010BD9
:102188008DF82A3037463D4615F8013B0BB1252B13
:102198003ED1B7EB060A0BD053463246214640469D
:1021A800FFF772FF013000F0A480099B53440993A4
:1021B8003B78002B00F09D8000234FF0FF32CDE9E3
:1021C8000523049307938DF853301A932F4605225D
:1021D80017F8011B4F4800F02FFA049BD0B9D90615
:1021E80044BF20228DF853201A0744BF2B228DF8B4
:1021F80053202A782A2A15D02F4600200A25079A24
:10220800394611F8013B303B092B4DD9B8B10FE0E5
:102218002F46B8E73F4A3D46801A0BFA00F01843AC
:102228000490D3E7039A111D12680391002A01DB79
:10223800079204E0524243F00203079204933B786A
:102248002E2B0CD17B782A2B33D1039B02371A1DF6
:102258001B680392002BB8BF4FF0FF3305932E4D38
:1022680003223978284600F0E7F938B14023401BAB
:1022780003FA00F0049B01370343049339780622DC
:1022880026487E1C8DF8281000F0D6F9002838D092
:10229800234B13BB039B073323F007030833039334
:1022A800099B4B4409936DE705FB023201200F4659
:1022B800A6E700230A25194601370593384610F882
:1022C800012B303A092A03D9002BC8D00591C6E75B
:1022D80005FB012101230746F0E703AB00932246E3
:1022E800104B04A94046AFF30080B0F1FF3F814690
:1022F800D6D1A3895B063FF536AF09981DB0BDE876
:10230800F08F03AB00932246064B04A9404600F029
:1023180081F8EAE7682C00086E2C0008722C000887
:1023280000000000912000082DE9F04791461F4663
:102338008A680B6906469342B8BF1346C9F800304D
:1023480091F843200C46DDF8208012B10133C9F81A
:1023580000302368990642BFD9F800300233C9F823
:102368000030256815F0060507D104F1190AE3685D
:10237800D9F800209B1AAB4229DC94F84330226834
:10238800003318BF012392062ED404F143023946C4
:102398003046C047013021D02368E56803F00603C2
:1023A800042B18BF0025D9F800204FF0000908BFFA
:1023B800AD1AA368226908BF25EAE5759342C4BF30
:1023C8009B1AED181A344D451AD1002008E0012354
:1023D800524639463046C047013003D14FF0FF30EE
:1023E800BDE8F0870135C2E73020E11881F84300E5
:1023F8005A1C94F845102244023382F84310C4E76B
:102408000123224639463046C0470130E6D009F15B
:102418000109D8E72DE9F04301F1430C0C46097E88
:1024280085B06E291746064698460C9A00F0B38088
:1024380022D8632936D00AD8002900F0B980582953
:1024480000F0838004F1420584F8421032E06429E8
:1024580001D06929F6D120681368050603F1040143
:102468002AD51B681160002B03DA2D225B4284F801
:1024780043206F480A2239E0732900F09D8008D86C
:102488006F2920D07029DDD1236843F02003236011
:1024980003E0752917D07829D4D17823654884F8C2
:1024A800453055E0136804F14205191D1B68116099
:1024B80084F8423001238CE01B6810F0400F116053
:1024C80018BF1BB2CFE713682568181D10602806CF
:1024D80001D51B6802E06806FBD51B886F2914BF6D
:1024E8000A2208225248002184F843106568002D0A
:1024F800A560C0F29580216821F004012160002BBD
:102508003DD1002D40F08E806546082A0BD1236806
:10251800DB0708D5236962689A42DEBF302305F8D5
:10252800013C05F1FF35ACEB05032361CDF80080D4
:102538003B4603AA21463046FFF7F6FE01304DD14F
:102548004FF0FF3005B0BDE8F083394884F84510F6
:10255800136821681D1D1B6815600A060BD5CA077C
:1025680044BF41F0200121601BB9226822F02002FB
:1025780022601022B7E74D0648BF9BB2EFE76546D9
:10258800B3FBF2F102FB1133C35C05F8013D0B46C6
:102598000029F5D1B9E713682568181D616910602D
:1025A80028061B6801D5196002E06A06FBD5198068
:1025B800002365462361B9E71368191D11601D687A
:1025C80062680021284600F037F808B1401B6060B7
:1025D80063682361002384F84330A7E723692A4608
:1025E80039463046C0470130AAD023689B0713D428
:1025F800E068039B9842B8BF1846A3E701234A4600
:1026080039463046C04701309AD00135E368039A0D
:102618009B1AAB42F2DCEBE7002504F11909F5E758
:10262800002BACD1037804F1420584F842306CE702
:10263800792C00088A2C000810B5C9B202449042CF
:10264800034601D1002303E01C7801308C42F6D107
:10265800184610BD10B5431E0A44914200D110BD62
:1026680011F8014B03F8014FF7E7884210B501EB69
:10267800020307D8421E99420AD011F8014B02F80A
:10268800014FF8E78342F5D98118D21AD34200D115
:1026980010BD13F8014D01F8014DF7E738B50546AF
:1026A800002943D051F8043C0C1F002BB8BFE41894
:1026B80000F0D0F81E4A1368104633B963601460FE
:1026C8002846BDE8384000F0C6B8A3420BD92168B7
:1026D8006218934201BF1A685B68521822606360EF
:1026E8000460EDE713465A680AB1A242FAD919689C
:1026F8005818A0420BD1206801445818824219602A
:10270800DED110685268014419605A60D8E702D9CE
:102718000C232B60D4E7206821188A4201BF116876
:1027280052680918216062605C60C9E738BD00BF63
:10273800FC09002070B5CD1C25F0030508350C2DCB
:1027480038BF0C25002D064601DBA94203D90C230E
:102758003360002070BD00F07DF8214A14682146DE
:1027680091B9204C23681BB9304600F063F820600B
:102778002946304600F05EF8431C24D10C2330462D
:10278800336000F068F8E4E70B685B1B18D40B2B88
:102798000FD90B60CC18CD50304600F05CF804F12E
:1027A8000B00231D20F00700C31AD3D05A42E25071
:1027B800D0E74B688C4216BF636013600C46EBE7AA
:1027C8000C464968CCE7C41C24F00304A04205D099
:1027D800211A304600F02EF80130CFD02560DBE713
:1027E800FC090020000A0020F8B5074614460E46EA
:1027F80021B9BDE8F8401146FFF79CBF22B9FFF7A1
:102808004DFF25462846F8BD00F026F8A0420FD215
:1028180021463846FFF78EFF05460028F2D031469C
:102828002246FFF717FF31463846FFF737FFE9E73B
:102838003546E7E738B50023054C054608462360CA
:10284800FDF798FD431C02D1236803B12B6038BD06
:10285800040A00207047704751F8043C181F002BE9
:10286800BCBF0B58C0187047537461636B20667205
:10287800616D653A0A000000205230203D20202575
:102888003038580A00000000205231203D20202511
:102898003038580A00000000205232203D20202500
:1028A8003038580A00000000205233203D202025EF
:1028B8003038580A0000000020523132203D2025CF
:1028C8003038580A00000000204C52203D202025B6
:1028D8003038580A00000000205043203D202025B1
:1028E8003038580A0000000020505352203D20255F
:1028F8003038580A000000004653522F4641523AD9
:102908000A0000002043465352203D20202530383D
:10291800580A00002048465352203D2020253038D0
:10292800580A00002044465352203D2020253038C4
:10293800580A00002041465352203D2020253038B7
:10294800580A0000204D4D464152203D2025303880
:10295800580A00002042464152203D2020253038A8
:10296800580A00004D6973630A000000204C522F7A
:102978004558435F52455455524E3D2025303858EE
:102988000A0000005B486172644661756C745D0AF8
:10299800000000005B4275734661756C745D0A0047
:1029A8005B55736167654661756C745D0A0000006C
:1029B800427265616B000000427265616B0A00003B
:1029C80053656E7400000000646174612074726164
:1029D8006E736D69747465640A0000007265630043
:1029E800646174612072656369657665640A0000D4
:1029F80073796E63206279746520616E6420504932
:102A0800442073656E740A0064617461206279748D
:102A1800652073656E740A0020636865636B73755F
:102A28006D20627974652073656E740A0000000079
:102A3800627265616B2072656369657665640A0018
:102A480073796E63206279746520616E64205049E1
:102A5800442072656369657665640A002064617460
:102A680061206279746520616E6420636865636BB8
:102A780073756D20627974652873656E7429207288
:102A8800656369657665640A00000000000000005F
:102A9800FFFFFFFF0FF0FFFF0000000090040000A1
:102AA800000801400000000077726F6E67206865BB
:102AB80061646572207265714E6F0A00466C6173BD
:102AC8006820416464726573733A20307825780908
:102AD8000000000063757272656E745F6672616DE6
:102AE800652E616464726573733A203078257809BD
:102AF8000000000052414D20416464726573733ACE
:102B080020307825780A0000307825303278203057
:102B180078253032782000000A466C61736820649A
:102B28006F6E650A000000000A466C6173682066D3
:102B380061696C65640A0000646174612065787479
:102B48007261637465642064617461206672616D8A
:102B580065000000206B6579203D20257800000085
:102B68002061646472657373203D2025780000003D
:102B780020656E747279506F696E74203D202578D7
:102B8800000000002073697A65203D202578000048
:102B98000A73697A65546F52656365697665203D85
:102BA8002025640A000000000A61793761676161C5
:102BB80061610A004C617374206672616D650A0078
:102BC8004572726F722065787472616374696E679A
:102BD800204669727374206672616D65000000009A
:102BE800526563656976696E672064617461206601
:102BF80072616D6500000000526563656976696EF3
:102C080067204669727374206672616D6500000002
:102C18006D61726B65722076616C75653A202578F6
:102C280000000000656E74727920706F696E742000
:102C380076616C75653A2025780000004A756D70DC
:102C4800696E6720746F20656E74727920706F6981
:102C58006E742E2E2E0A000068616D61646100009A
:102C6800232D302B2000686C4C006566674546476D
:102C780000303132333435363738394142434445F0
:102C8800460030313233343536373839616263645F
:032C98006566006E
:102C9C00785634129800002000000000000000005C
:102CAC0000000000010203040607080900A24A0400
:102CBC0004380008003800082C0000200000000038
:102CCC0000000000000000000000000000000000F8
:102CDC0000000000000000000000000000000000E8
:102CEC0000000000000000000000000000000000D8
:102CFC0000000000000000000000000000000000C8
:102D0C0000000000000000000000000000000000B7
:102D1C000000000000000000000000003254769813
:08380000DDCCBBAA4433221108
:040000050800010DE1
:00000001FF
