:020000040800F2
:100000000050002021020008290200082D020008EB
:10001000A1020008A5020008ED020008000000008F
:100020000000000000000000000000003503000890
:1000300039030008000000003D030008F90B000828
:100040005103000851030008510300085103000840
:100050005103000851030008510300085103000830
:100060005103000851030008510300080D10000857
:1000700065100008BD10000815110008B511000832
:1000800055120008AD120008510300085103000882
:1000900051030008510300085103000851030008F0
:1000A00051030008510300085103000851030008E0
:1000B00051030008510300085103000851030008D0
:1000C00051030008510300085103000851030008C0
:1000D00051030008C109000851030008510300083A
:1000E00051030008510300085103000800000000FC
:1000F0000000000000000000000000000000000000
:1001000000000000000000005FF808F100B583B0B7
:1001100000F0B0F9304B314A1360314A1360314B73
:10012000314A03E011681960043304322F498B42CD
:10013000F8D32A4B1A682E4B9A4204D1284B1A68DE
:100140002C4B9A4200D0FEE7234B2B4A13602B4ADC
:1001500013602B4B02E000221A600433294A9342B9
:10016000F9D3254B1B6813B9244B1B6803B1FEE779
:1001700000F08CF9694601A800F026F9224C234BC7
:100180001C1BA410002504E01F4B53F82530984792
:100190000135AC42F8DC1E4C1E4B1C1BA410002584
:1001A00004E01B4B53F8253098470135AC42F8DC8E
:1001B0000099019801F086FE0546174C174B1C1B51
:1001C000A41004E0013C144B53F824309847002C51
:1001D000F8DC284600F0D4F8BABADECA00000020E5
:1001E0008C00002000000020002B00089000002060
:1001F0007856341232547698900000200403002080
:1002000090000020080300207C0300087C03000805
:100210007C0300087C0300087C0300087C030008C2
:1002200008B5FFF773FF00BF00BEFEE71EF0040F26
:100230000CBFEFF30880EFF309807146414A104785
:100240002DE9F04182B004468846134B5E6B9F6BEC
:100250009D6A1B6B13F0020F0DD00F4BDB6A002B56
:1002600009DA4BF6AB6100F08DF920B14FF0004296
:10027000094BDA620CE0094800F0AEF8CDF80080D6
:100280003B4632462946204600F004F900BEFEE710
:1002900002B0BDE8F08100BF00ED00E0CC2800080E
:1002A00000BEFEE71EF0040F0CBFEFF30880EFF373
:1002B00009807146244A10472DE9F04182B0044676
:1002C0008846084B5E6B9F6B9D6A074800F084F878
:1002D000CDF800803B4632462946204600F0DAF849
:1002E00000BEFEE700ED00E0DC2800081EF0040F71
:1002F0000CBFEFF30880EFF309807146134A1047F3
:100300002DE9F04182B004468846084B5E6B9F6B36
:100310009D6A074800F060F8CDF800803B46324601
:100320002946204600F0B6F800BEFEE700ED00E0EA
:10033000E828000800BEFEE700BEFEE700BEFEE7BC
:100340007047000041020008B902000801030008DC
:0403500000BEFEE706
:10035400002B00080000002090000020002B000863
:1003640000000000000000009000002008030020AE
:08037400000000000000000081
:10038000FEE700BF08B50D4B1B6813B90C4A0B4BB9
:100390001A600A4B1A68C31C23F00303134409496B
:1003A0008B4206D901F0BAFD0C2303604FF0FF30F9
:1003B00008BD02490B60104608BD00BF9400002034
:1003C00008030020004C002001230360014B0B6058
:1003D000704700BF040000200FB400B583B004AB29
:1003E00053F8042B01938021064801F0C9FD002831
:1003F00003DD0146034800F039F803B05DF804EB73
:1004000004B070479C0000202DE9F04385B00446FD
:100410000F46435613BB042528462146ABBE04466F
:100420001FE03546102E28BF1025002306E014F9E2
:10043000011B04AA1A4402F8101C0133AB42F6D384
:1004400004AA1344002203F8102CE9464FF00408D4
:1004500040464946ABBE8046761B00E00E46002E65
:10046000DFD1384605B0BDE8F08300BF08B5FFF71F
:10047000CBFF08BD08B500F0FBF8024B024A9A60BA
:1004800008BD00BF00ED00E00000000808B500F066
:1004900017F908BDF8B504460D4617461E4626480E
:1004A000FFF79AFF21682548FFF796FF6168244807
:1004B000FFF792FFA1682348FFF78EFFE16822480B
:1004C000FFF78AFF21692148FFF786FF616920480D
:1004D000FFF782FFA1691F48FFF77EFFE1691E4811
:1004E000FFF77AFF1D48FFF777FF29461C48FFF703
:1004F00073FF1C4CE16A1C48FFF76EFF216B1B4821
:10050000FFF76AFFE16B1A48FFF766FF15F0800FEF
:1005100003D039461748FFF75FFF15F4004F03D0AB
:1005200031461548FFF758FF1448FFF755FF069965
:100530001348FFF751FFF8BDB0270008C027000897
:10054000D0270008E0270008F0270008002800084E
:10055000102800082028000830280008402800083B
:100560004C28000800ED00E05C2800086C2800081A
:100570007C2800088C2800089C280008AC2800086B
:10058000B428000883691A888A4207D10268033AAE
:10059000012A05D80233836101207047002070478B
:1005A0000020704782B00023019300932C4A136807
:1005B00043F4803313602A4B1B6803F40033009329
:1005C000019B01330193009B1BB9019BB3F5A06F05
:1005D000F1D1234B1B6813F4003F02D00123009399
:1005E00001E000230093009B012B36D11D4B1A68BC
:1005F00042F010021A601A6822F003021A601A68A8
:1006000042F002021A60A3F580535A685A605A6891
:100610005A605A6842F480625A605A6822F47C1226
:100620005A605A6842F4E8125A601A6842F08072BE
:100630001A600B4B1B6813F0007FFAD0084B5A6806
:1006400022F003025A605A6842F002025A60044BD8
:100650005B6803F00C03082BF9D102B0704700BFB0
:10066000001002400020024008B5FFF79BFF08BDC4
:1006700008B5104B1A6842F001021A6059680E4A18
:100680000A405A601A6822F0847222F480321A609A
:100690001A6822F480221A605A6822F4FE025A6014
:1006A0004FF41F029A60FFF7DFFF4FF00062034B29
:1006B0009A6008BD001002400000FFF800ED00E065
:1006C0001F4B5B6803F00C03042B06D0082B08D0EB
:1006D0003BBB1C4A1C4B1A6026E01A4A1A4B1A6094
:1006E00022E0174A53685268C3F38343023312F47B
:1006F000803F05D1154A02FB03F3134A136013E050
:100700000F4A526812F4003F05D0104A02FB03F36F
:100710000D4A136008E00B4A02FB03F30A4A136018
:1007200002E0084A084B1A60054B5B68C3F30313E9
:10073000074AD35CDAB204490B68D3400B607047B8
:100740000010024000127A001C00002000093D0049
:100750000C000020074B084A1A6000225A60074923
:100760009960DA60064919615A6106499961DA614E
:10077000704700BFD0020020702A0008782A0008C5
:10078000A02A0008C42A0008024A13780133137013
:10079000704700BFF002002010B50022134B1A6012
:1007A0001FE0134A02EB0312526882B9104A02EBAF
:1007B0000312D2685AB90E4C1B01E3581B681B6820
:1007C00098470A4B1B6804EB0314A368636007484F
:1007D0000368074A02EB0312516801395160013383
:1007E0000360024B1B68032BDBD910BD5C010020AA
:1007F0001C01002038B500F0AFFA154CA4FB003402
:10080000A40C00F0CBF9214641F2883000F0E2F967
:10081000104800F0E7F9FFF79DFF002314E00E4AAF
:1008200002EBC3010D4D1C012819295149680C4CDC
:10083000A4FB01518908416052F833205268A4FB9F
:100840000212920882600133032BE8D938BD00BF41
:1008500083DE1B4389070008D00200201C01002012
:10086000CDCCCCCC08B500F0A7F9054B1B78002BFC
:10087000FBD00022024B1A70FFF78EFFF5E700BF96
:10088000F0020020034B1A68034B03EB0213012212
:10089000DA6070475C0100201C0100200068C0F392
:1008A000801070470068C0F3401070470068C0F3C4
:1008B00000207047C36823F080031943C16070476C
:1008C000C36823F020031943C1607047C36823F055
:1008D00040031943C1607047C36843F00103C3601C
:1008E000704700BF08B5426942F0C0024261026829
:1008F00022F0400202604021FFF7E8FF08BD00BF80
:1009000038B50C4C247B8CB90B4C247984B9094C38
:100910000D25257321600021A16062602361049B85
:1009200063612021FFF7CCFF012038BD002038BDD6
:10093000002038BD88010020FC020020C36823F499
:1009400000531943C1607047C36823F0080319437B
:10095000C1607047C36823F004031943C160704746
:1009600038B504460D464FF40051FFF7E7FF082164
:100970002046FFF7E9FF04212046FFF7EBFFE3687D
:1009800023F4B053E360236923F4615323F020037D
:1009900043F040032361636923F02A036361054B3D
:1009A000A3FB0535AD0AA5600023034A1373034A70
:1009B000137338BDB5814E1B6001002088010020F3
:1009C00010B53E48FFF772FF90B13D4801F040FA84
:1009D0003A4A136823F4B07313603A4B1B68002B38
:1009E0006BD03948FFF7F8FC364B1B68984710BDB1
:1009F0003248FFF753FF00283CD000BF2F4A13684E
:100A000023F040031360314B1B68052B0DD10022EE
:100A10002F4B1A70294A136823F0400313602D4BA3
:100A20001B68002B49D0984710BD062B45D12A489A
:100A300001F00EFA2948FFF7CFFC294B9A685B6852
:100A40009A4208D2264B1968895C1C4A51609A6800
:100A500001329A6010BD224C002121731748FFF724
:100A600029FF236903B198471D4B5B692BB31348DA
:100A7000984710BD1148FFF715FFF0B1194801F074
:100A8000E7F9194C2268A3680C494968D15401332D
:100A9000A3601648FFF7A0FCA26863689A420CD1D5
:100AA000002121730548FFF70BFF236903B1984725
:100AB0000D4B5B690BB10148984710BD00380140F0
:100AC000F828000884010020002900087C0100208B
:100AD0008001002078010020082900081029000862
:100AE000600100202429000888010020282900082E
:100AF000014B1860012070477801002018B1034AAB
:100B00001060012070470020704700BF8401002062
:100B100012480078E8B910B58AB018460524104B81
:100B20001C600D240D4B1C701023019300230593B2
:100B3000069302930393802304930792094B08932F
:100B40000991FFF7D5FF01A9032000F0FDF901206D
:100B500001E0002070470AB010BD00BF80010020F6
:100B60007C0100200438014010B58AB000200190BB
:100B70000290039080240494059006900792064A00
:100B8000089209911946042000F036FA01A90420C0
:100B900000F0DAF90AB010BD04380140054A1368C4
:100BA00023F0805323F0020343F00203136001207B
:100BB000704700BF10E000E0054A136823F080533F
:100BC00023F0010343F0010313600120704700BFCD
:100BD00010E000E0C90800FB01F0014B186070470D
:100BE00014E000E018B1034A1060012070470020B3
:100BF000704700BFA001002008B5024B1B6803B17D
:100C0000984708BDA0010020034B5B6803F00C036C
:100C100003700120704700BF00100240034A536870
:100C200023F0030318435060012070470010024076
:100C300010F0005F14D0FE2909D0FF293FD1244BCA
:100C40005A6920F000501043586101207047204A33
:100C5000536920F0005023EA0000506101207047E2
:100C6000002814DAFE2909D0FF292AD1184BDA69A5
:100C700020F000401043D86101207047144AD36926
:100C800020F0004023EA0000D0610120704710F0FE
:100C9000804F18D0FE2909D0FF2916D10C4B9A6934
:100CA00020F080401043986101207047084A936902
:100CB00020F0804023EA000090610120704700206E
:100CC000704700207047002070470020704700BF29
:100CD0000010024000B583B00DF10700FFF794FF4C
:100CE0009DF8073053B3042B06D1184B1B6813F43F
:100CF000802F25D0002026E0082B23D1134B5B68E2
:100D000013F4803F0ED0114B1B6813F4802F01D0D9
:100D1000002300E00E4B0D4A526812F4003F02D04F
:100D20005B0800E00B4B094A5068C0F38340023077
:100D3000102800D9102003FB00F004E0044802E072
:100D4000034800E0002003B05DF804FB00100240FF
:100D500000127A0000093D0008B5FFF7BBFF204BE9
:100D60005B6803F0F003802B01D1400808BD1C4BE9
:100D70005B6803F0F003902B01D1800808BD184B8D
:100D80005B6803F0F003A02B01D1C00808BD144B31
:100D90005B6803F0F003B02B01D1000908BD104BD4
:100DA0005B6803F0F003C02B01D1800908BD0C4B38
:100DB0005B6803F0F003D02B01D1C00908BD084BDC
:100DC0005B6803F0F003E02B01D1000A08BD044B7F
:100DD0005B6803F0F003F02B00D1400A08BD00BFB0
:100DE0000010024008B5FFF7B7FF084B5B6813F42B
:100DF000005F0AD0054B5B68C3F3C223043B0222A9
:100E000002FA03F3DBB2B0FBF3F008BD00100240BE
:100E1000F0280DD810B44409074951F8242000F0F7
:100E20001F03012000FA03F3134341F8243001E0CB
:100E30000020704710BC704700E100E0044B1B68C5
:100E40008000013023FA00F000F00100704700BF7D
:100E500000000240044B1B688000023023FA00F0BF
:100E600000F00100704700BF00000240044B1B6807
:100E70008000033023FA00F000F00100704700BF4B
:100E80000000024004494B6880000130012202FA50
:100E900000F003434B6070470000024004494B6878
:100EA00080000230012202FA00F003434B607047D9
:100EB0000000024004494B6880000330012202FA1E
:100EC00000F003434B6070470000024008B5FF216B
:100ED0000C48FFF7ADFE0B20FFF79AFF0C20FFF741
:100EE00097FF0D20FFF794FF0E20FFF791FF0F20D3
:100EF000FFF78EFF1020FFF78BFF1120FFF788FF11
:100F000008BD00BF0100002010B400EB8002930078
:100F100003F1804303F500339B6823F4405323F02F
:100F20000E0343F00202062801D9002400E0012448
:100F300000EB8003990001F1804303F500339A60D0
:100F4000204610BC704700BF284A125C002A47D1D7
:100F50000346274A125C002A44D1F0B42220234AD7
:100F6000D05403EB8300820002F1804202F500328C
:100F7000946824F49F4020F071000C688A68144340
:100F8000CA6814430A6914434A69224340EA0204C6
:100F900014F4804F08D14A681443202A09D1232031
:100FA000134AD054012007E04A68202A03D00120C8
:100FB00002E0012000E000200E4D9E00F718BA006C
:100FC00017462A4494608C69D460CC691461096A1C
:100FD0005161916841F001013A462A44916003E071
:100FE0000020704700207047F0BC7047FC020020D2
:100FF000F40200200000024021B1034A42F8201010
:101000000120704700207047A801002008B500208B
:10101000FFF714FF48B10020104B1870FFF732FFA4
:101020000F4B1B68C3B1984708BD0020FFF712FFA4
:1010300038B10020FFF732FF094BDB6963B19847F5
:1010400008BD0020FFF712FF30B10020FFF732FF8C
:10105000034B9B6B03B1984708BD00BFFC02002007
:10106000A801002008B50120FFF7E8FE50B10022DA
:10107000104B5A700120FFF705FF0F4B5B68C3B19F
:10108000984708BD0120FFF7E5FE38B10120FFF7C2
:1010900005FF094B1B6A63B1984708BD0120FFF7A4
:1010A000E5FE30B10120FFF705FF034BDB6B03B119
:1010B000984708BDFC020020A801002008B50220C6
:1010C000FFF7BCFE50B10022104B9A700220FFF7D0
:1010D000D9FE0F4B9B68C3B1984708BD0220FFF7AC
:1010E000B9FE38B10220FFF7D9FE094B5B6A63B144
:1010F000984708BD0220FFF7B9FE30B10220FFF784
:10110000D9FE034B1B6C03B1984708BDFC020020BD
:10111000A801002008B5214B1B6833B92048FFF710
:101120005BF901221D4B1A6010E0012B06D11D480E
:10113000FFF752F90222194B1A6007E0022B05D182
:101140001948FFF749F90022144B1A600320FFF7F2
:1011500075FE50B10022154BDA700320FFF792FEA6
:10116000134BDB68C3B1984708BD0320FFF772FE3D
:1011700038B10320FFF792FE0D4B9B6A63B198478D
:1011800008BD0320FFF772FE30B10320FFF792FE87
:10119000074B5B6C03B1984708BD00BFA40100205A
:1011A000382900085029000860290008FC020020A6
:1011B000A801002008B5214B1B6833B92048FFF770
:1011C0000BF901221D4B1A6010E0012B06D11D48BE
:1011D000FFF702F90222194B1A6007E0022B05D132
:1011E0001948FFF7F9F80022144B1A600420FFF7A2
:1011F00025FE50B10022154B1A710420FFF742FE64
:10120000134B1B69C3B1984708BD0420FFF722FEAA
:1012100038B10420FFF742FE0D4BDB6A63B19847FB
:1012200008BD0420FFF722FE30B10420FFF742FE84
:10123000074B9B6C03B1984708BD00BFFC01002021
:101240007829000888290008A4290008FC02002049
:10125000A801002008B50520FFF7F0FD50B10022DD
:10126000104B5A710520FFF70DFE0F4B5B69C3B1A0
:10127000984708BD0520FFF7EDFD38B10520FFF7C1
:101280000DFE094B1B6B63B1984708BD0520FFF7A6
:10129000EDFD30B10520FFF70DFE034BDB6C03B114
:1012A000984708BDFC020020A801002008B50620D0
:1012B000FFF7C4FD50B10022104B9A710620FFF7D2
:1012C000E1FD0F4B9B69C3B1984708BD0620FFF7AE
:1012D000C1FD38B10620FFF7E1FD094B5B6B63B13F
:1012E000984708BD0620FFF7C1FD30B10620FFF783
:1012F000E1FD034B1B6D03B1984708BDFC020020C4
:10130000A801002010B407290BD889000F2303FA85
:1013100001F4036823EA040302FA01F119430160AE
:101320000EE00F290CD8A1F10803DBB29B000F24BB
:101330009C40416821EA040402FA03F12143416020
:1013400010BC7047012A06D1012303FA01F1C368DA
:101350001943C1607047012303FA01F1C36823EA0E
:101360000103C360704700BF2DE9F04F83B0002137
:1013700051E0D0E9024500914FEA810ECEF12008FC
:10138000AEF1200C24FA0EF205FA08F842EA08023F
:1013900025FA0CFC42EA0C0202F00F084FF000099B
:1013A000B9F1000F08BFB8F10C0F26D14FF00F0CA8
:1013B000AEF12009CEF120080CFA09FB2CFA08F84E
:1013C0004BEA080B0CFA0EFA24EA0A0425EA0B058C
:1013D0004FF0080CCEF120080CFA09F72CFA08F8A7
:1013E00047EA08070CFA0EF634433D43C0E90245CC
:1013F000056901248C402C610BE002F008040025F3
:101400002C4306D0056901950124009DAC40019D47
:101410006C610131C9B20F29ABD90169D0E900452E
:10142000D1E9002322402B40C1E900230169D0E922
:101430000245D1E9002322432B43C1E900230120C7
:1014400003B0BDE8F08F00BF034628B1002018703C
:1014500059705A6001207047002070470078B0FA38
:1014600080F04009704700BF02784078824214BF84
:1014700000200120704700BF10B584B004AC04E91F
:101480000E0098B10446FFF7EFFF88B96168227833
:1014900002EB420293000B4404AA12E9070083E81E
:1014A0000700237801332370012002E0002000E0D0
:1014B000002004B010BD00BF18B338B5054611B305
:1014C0000C46FFF7CBFF00BB6B6893E8070084E88E
:1014D00007002B78013B2B7000230DE0696803EBBC
:1014E000430294000C44013303EB430082000A449E
:1014F00007CA84E80700DBB22A789342EED30120C2
:1015000038BD00207047002038BD002038BD00BF26
:1015100010B504460320FFF7F7FC0420FFF7F4FCA6
:101520002046FFF7DFF910BD38B500242CE0254632
:1015300004EB44029300164A13449B680C2B0AD117
:10154000104663002344990053180122415C5868F7
:10155000FFF7F8FE0BE0082B09D10D486300234488
:10156000990043180022415C5868FFF7EBFE0848D9
:101570006A0051198B00194603440822415C5868DF
:10158000FFF7C0FE0134E4B2042CD0D938BD00BF4F
:10159000D42900080322014B1A7070471102002061
:1015A0000722014B1A70704711020020304B1B7844
:1015B00003EB43022F490A445278002A4FD110B559
:1015C0002D4B1868FFF788F9002301E001339BB227
:1015D0002A4A1278022A02D0B3F57A7FF6D9B3F5F7
:1015E0007A7F29D200BF224B1978224801EB4101B2
:1015F000435C83EA530282EA930282EA1312D2B274
:10160000920102F07F0213435BB2DCB2E20882EA8D
:10161000540282EA141282EA5412D24343EAC213F9
:10162000DBB24354164955220A704B700023022244
:1016300011480068FFF76CFA0D490B7803EB430281
:101640000C4802449078507000200C4A107001330E
:10165000DBB20B70022B09D10B46187010BD03EBE7
:10166000430304490B44013A5A70704710BD00BF50
:101670002A02002014020020200000201202002074
:101680002802002008B5002301220349034800680E
:10169000FFF73EFA08BD00BF100200202000002026
:1016A00030B583B06A4B1B78033B052B00F2CE802C
:1016B000DFE813F00600CC00CC004D005C00A60073
:1016C000644B1B78552B3ED1624B58784108040976
:1016D00080EA010383EA900363409B0103F0400228
:1016E00081EAD00184EA010383EA5013DB4342EA32
:1016F000C313DBB2434013F0C00F20D100F03F0012
:10170000544B5870544B1A5C3C2A03D10022504B66
:101710001A709BE000BF514B03EB82039978504A4B
:101720001170DB780C2B03D10822494B1A708DE025
:10173000112B40F08B800622454B1A7086E0002268
:10174000434B1A7082E00022414B1A707EE0444BFA
:101750001A78444B186800230093434B01324349E5
:10176000FFF7CEF804223A4B1A706FE03C4B1B781F
:10177000DBB23E4AD05C3E4B18700022134609E0B3
:101780003A49895C0B449BB2FF2B01D9FF3B9BB2CA
:101790000132D2B232490978C9B28A42F0D3DBB2FF
:1017A0000344FF2B17D10CE02A4A52782A49885C5F
:1017B0002E4AD15C2F4A02EBC002D1540133DBB276
:1017C00000E00023264A1278D2B29342ECD30022E2
:1017D0001F4B1A703AE000221D4B1A7036E01D496B
:1017E00049781D48405C234901EBC001895C0B44EA
:1017F0009BB2FF2B01D9FF3B9BB20132D2B201E079
:101800000022134616490978C9B28A42E7D3DB435E
:10181000174A1370124D2A78124C134B0132134998
:101820002068FFF7A1F90B4B5B780B4AD05C2A7854
:10183000114B104901EBC0012068FFF769F9044B17
:101840001B78072B02D00422014B1A7003B030BD65
:10185000110200202C020020102A00084C2A000847
:101860002B02002020000020A11500081C020020EF
:1018700010020020000200208516000800B583B089
:101880000222064B1A70064B01220DF10701054892
:101890000068FFF769F903B05DF804FB120200204D
:1018A000A91800082000002008B5054B02220549B0
:1018B00005480068FFF758F90222044B1A7008BD6A
:1018C000951500082C0200202000002011020020A5
:1018D00070B586B00646124B1860FF214FF04020CD
:1018E000FFF7A6F9FF210F48FFF7A2F96C460E4D4E
:1018F0000FCD0FC495E8030084E803006846FFF7A6
:1019000033FD2520FFF784FAFFF76CFA04460748F9
:10191000FFF7F4F821463046FFF722F806B070BD15
:101920002000002004000040582A00087D1800080C
:10193000002325E0144A12F8230003EB4302134965
:10194000885463B9104A52791149A1FB02129208D6
:1019500003EB43010D4801444A708A700EE05A1EA1
:10196000094901EB820252780949A1FB021292084F
:1019700003EB4301054801444A708A700133DBB22E
:10198000012BD7D9704700BF4C2A00081402002051
:10199000CDCCCCCC3B2816D849B900207047CD5CC3
:1019A0000B4A02EBC402D5540133DBB201E030B480
:1019B0000023084A145C084A02EB8402927893429E
:1019C000EDD3012001E00020704730BC704700BF1C
:1019D00000020020102A00084C2A000838B50546ED
:1019E000184C00F0010207212046FFF7ABFCC5F3BD
:1019F000400206212046FFF7A5FCC5F38002052121
:101A00002046FFF79FFCC5F3C00204212046FFF7E4
:101A100099FCC5F3001203212046FFF793FCC5F3A0
:101A2000401202212046FFF78DFCC5F380120121F0
:101A30002046FFF787FCEA0900212046FFF782FCD9
:101A400038BD00BF0008014010B50A4C00220C212F
:101A50002046FFF777FC00220D212046FFF772FC9D
:101A60000620FFF7BBFF01220E212046FFF76AFC8C
:101A700010BD00BF000C014010B50A4C00220C2123
:101A80002046FFF75FFC00220D212046FFF75AFC9D
:101A90000120FFF7A3FF01220E212046FFF752FC91
:101AA00010BD00BF000C014010B50A4C00220C21F3
:101AB0002046FFF747FC00220D212046FFF742FC9D
:101AC0000C20FFF78BFF01220E212046FFF73AFC86
:101AD00010BD00BF000C014008B500220E210248D5
:101AE000FFF730FC08BD00BF000C014010B50A4CE8
:101AF00000220C212046FFF725FC00220D21204664
:101B0000FFF720FC3820FFF769FF01220E21204655
:101B1000FFF718FC10BD00BF000C014010B5114BC1
:101B20001B78B3B9104C00220C212046FFF70AFCA9
:101B300000220D212046FFF705FC0C20FFF74EFF89
:101B400001220E212046FFF7FDFB0122054B1A70F2
:101B500010BD00220E210448FFF7F4FB0222014BC6
:101B60001A7010BD24000020000C014010B5114B6C
:101B70001B78B3B9104C00220C212046FFF7E2FB82
:101B800000220D212046FFF7DDFB0F20FFF726FF87
:101B900001220E212046FFF7D5FB0122054B1A70CA
:101BA00010BD00220E210448FFF7CCFB0222014B9E
:101BB0001A7010BD24000020000C014010B51B4B12
:101BC0001B784BBB1A4C00220C212046FFF7BAFBB6
:101BD00000220D212046FFF7B5FB164B5B7843B979
:101BE000144B98780F280ED880F08000FFF7F6FE8F
:101BF00009E0012B07D10F4B98780F2803D8403804
:101C0000C0B2FFF7EBFE01220E210948FFF79AFB55
:101C10000122064B1A7010BD00220E210448FFF766
:101C200091FB0222014B1A7010BD00BF240000205E
:101C3000000C0140B402002010B5114B1B78B3B961
:101C4000104C00220C212046FFF77CFB00220D21C6
:101C50002046FFF777FB0120FFF7C0FE01220E218F
:101C60002046FFF76FFB0122054B1A7010BD0022C2
:101C70000E210448FFF766FB0222014B1A7010BDCB
:101C800024000020000C014010B5194B1B78E3B96B
:101C9000184C01220C212046FFF754FB00220D2195
:101CA0002046FFF74FFB144B5A68197A134B1B78E9
:101CB0005B1AD05CFFF792FE01220E212046FFF74F
:101CC00041FB01220A4B1A7010BD00220E21094867
:101CD000FFF738FB0022064B1A70074A137A013BC4
:101CE000DBB2137213B90222014B1A7010BD00BF90
:101CF00024000020000C0140B4020020C00200209B
:101D000010B5084C2278084B53F8223098472378B6
:101D10000133DBB22370082B02D10122034B1A706E
:101D200010BD00BF38020020802A000839020020C0
:101D300000B585B01C4B1B78002B30D01B48FFF73B
:101D40008DFB18B11A4B1B78022B2AD0184B1B782D
:101D5000022B17D10022164B1A7001A91348FFF766
:101D6000ABFB9DF80420134B1A709DF80C201A72DF
:101D7000029959609DF8051059709DF806109970E8
:101D80000D4B1A700B4B1B7A13B90A4B1B7843B1DE
:101D9000084B1A78094B53F82230984701E0FFF7B7
:101DA000AFFF05B05DF804FB3902002030020020CF
:101DB00024000020B4020020C0020020A82A00084D
:101DC00010B5204C01220C212046FFF79BFA01227E
:101DD0000D212046FFF796FA01220E212046FFF73B
:101DE00091FAA4F58064012207212046FFF78AFAC0
:101DF000012206212046FFF785FA0122052120460F
:101E0000FFF780FA012204212046FFF77BFA012226
:101E100003212046FFF776FA012202212046FFF730
:101E200071FA012211462046FFF76CFA01220021C7
:101E30002046FFF767FA044A0A210448FFF704FB2B
:101E400010BD00BF000C01403C0200203002002009
:101E500000B585B000238DF8043002908DF80C3069
:101E600002E001338DF80C309DF80C30C25C0AB1F1
:101E70000F2BF6D904AB13E90E000348FFF7FCFA69
:101E800005B05DF804FB00BF3002002000B583B050
:101E90000B4B19889A78ADF804108DF806209B88B2
:101EA000ADF8003001A93520FFF774FD6946032025
:101EB000FFF770FDFEF7E6FC03B05DF804FB00BF22
:101EC000BC2A000808B5FF211048FEF7B1FEFF212B
:101ED0000F48FEF7ADFEFF210E48FEF7A9FE0120D8
:101EE000FEF79CFEFFF720FBFFF76AFFFEF7EEFF11
:101EF000094C2046FFF7ECFC2046FFF709FBFFF7F3
:101F000017FDFEF777FCFEF7ADFCFEE71000004082
:101F1000040000400800004000380140014B1868F0
:101F2000704700BF8800002030B5141E05469BB0E6
:101F3000184604DA8B232B604FF0FF301DE04FF47E
:101F40000273ADF80C300CBF234604F1FF3302934B
:101F500005934FF6FF7300910491ADF80E300246E1
:101F60001E9B6946284600F073F8431CBCBF8B23B8
:101F70002B6014B1009B00221A701BB030BD000012
:101F800007B5009313460A46014603480068FFF769
:101F9000CBFF03B05DF804FB880000202DE9F0477B
:101FA0008E6882469E420C46914698463ED88A8963
:101FB00012F4906F3AD02568096902236F1A656997
:101FC00005EB450595FBF3F57B1C43449D4238BF6B
:101FD0001D4653050FD5294600F04AFB064698B129
:101FE0003A46216900F0D2FAA38923F4906343F0C2
:101FF0008003A38113E02A4600F098FB064670B9DF
:102000002169504600F0E8FA0C23CAF80030A38991
:102010004FF0FF3043F04003A381BDE8F087266115
:102020003E44266046466561ED1BA560464528BFD7
:10203000464649463246206800F0B3FAA3680020BD
:102040009B1BA36023681E442660BDE8F087000048
:102050002DE9F04F9DB003938B8980461C060D46F9
:1020600016460DD50B695BB9402100F001FB2860D5
:10207000286118B90C23C8F80030CDE040236B610B
:102080000023099320238DF82930DFF89CB13023F9
:102090008DF82A3037463C4614F8013B1BB9B7EBA4
:1020A000060910D003E0252BF9D02746F3E74B466D
:1020B000324629464046FFF771FF013000F0A78005
:1020C000099B4B4409933B78002B00F0A080002330
:1020D0004FF0FF3204930793059206938DF8533027
:1020E0001A930126052221784E4800F041FA671C18
:1020F000049B38B14B4A3C46801A06FA00F018435C
:102100000490EFE7D90644BF20228DF853201A0728
:1021100044BF2B228DF8532022782A2A03D0079A15
:1021200000210A200BE0039A111D12680391002A76
:1021300010DA524243F00200079204900BE0274667
:102140003B780134303B092B03D800FB02320121DC
:10215000F5E701B107923B782E2B1ED17B782A2B15
:102160000AD1039B02371A1D1B680392002BB8BFCC
:102170004FF0FF33059310E0002319460593781CB8
:102180000A2407463A780130303A092A03D804FB7A
:1021900001210123F5E703B1059103223978224893
:1021A00000F0E6F940B14023CBEB000003FA00F069
:1021B000049B013718430490397806221B487E1C83
:1021C0008DF8281000F0D4F988B1194B33B9039B6E
:1021D000073323F007030833039314E003AB0093A2
:1021E0002A46144B04A94046AFF3008007E003AB36
:1021F00000932A460F4B04A9404600F093F8B0F133
:10220000FF3F824603D0099B5344099342E7AB89C1
:102210005B0601D4099801E04FF0FF301DB0BDE826
:10222000F08F00BFCC2A0008D22A0008D62A000866
:10223000000000009D1F00082DE9F04791461F4651
:102240000A698B6806469342B8BF1346C9F8003046
:1022500091F843200C46DDF8208012B10133C9F813
:1022600000302368990642BFD9F800300233C9F81C
:102270000030256815F0060510D104F1190A07E0B1
:102280000123524639463046C04701301AD0013545
:10229000E368D9F800209B1A9D42F1DB94F84330A3
:1022A0002268003318BF012392060FD5E1183020B1
:1022B00081F843005A1C94F845102244023382F8F6
:1022C000431003E04FF0FF30BDE8F08704F1430214
:1022D00039463046C0470130F4D02268D9F8005062
:1022E000E36802F00602042A08BF5D1B2269A368A6
:1022F0000CBF25EAE57500259342C4BF9B1AED1873
:102300004FF000091A344D4509D0012322463946C1
:102310003046C0470130D5D009F10109F3E700206C
:10232000BDE8F0872DE9F04317460A7E85B06E2A96
:10233000984606460C460C9B01F1430E00F0AE8019
:1023400011D8632A22D009D8002A00F0BB80582A6D
:1023500040F0CA8081F84520834955E0642A1ED0A8
:10236000692A1CD0C0E0732A00F0B08009D86F2A17
:102370002ED0702A40F0B8800A6842F020020A602D
:102380003EE0752A24D0782A3AD0ADE01A6801F1EF
:102390004205111D1960136884F84230A8E02168D5
:1023A0001A6811F0800F02D0111D196008E011F0B9
:1023B000400F02F10401196002D0B2F9003000E0D0
:1023C0001368002B3CDA2D225B4284F8432037E06F
:1023D00021681A6811F0800F02D0111D196007E002
:1023E00011F0400F02F10401196001D0138800E0E0
:1023F0001368227E5C496F2A14BF0A2208221BE060
:1024000078225A4984F845202268186812F0800F13
:1024100000F104051D6003D1550601D5038800E0D5
:102420000368D00744BF42F0200222601BB9226833
:1024300022F0200222601022002084F8430001E0F4
:1024400049490A226568002DA56008DB206820F054
:10245000040020602BB9002D7DD175460CE0002BC7
:1024600079D07546B3FBF2F002FB1033CB5C05F874
:10247000013D03460028F5D1082A0BD12368DA076D
:1024800008D5236962689A42DEBF302305F8013C13
:1024900005F1FF35C5EB0E0323612EE008681A68CD
:1024A00010F0800F496903D0101D1860136808E010
:1024B00010F0400F02F104001860136801D0198079
:1024C00000E0196000232361754616E01A68111DAB
:1024D0001960156800216268284600F049F808B1C3
:1024E000401B6060636804E004F1420584F8422008
:1024F00001232361002384F84330CDF800803B465C
:1025000003AA21463046FFF797FE013002D14FF073
:10251000FF3026E023692A4639463046C04701305D
:10252000F5D023689B0710D5002504F1190907E0B1
:1025300001234A4639463046C0470130E7D00135CD
:10254000E368039A9B1A9D42F2DBE068039B984282
:10255000B8BF184605E00B7804F1420584F8423014
:102560008AE705B0BDE8F083DD2A0008EE2A0008FE
:1025700010B5C9B202449042034605D01C78013020
:102580008C42F8D1184610BD002010BD10B5431E76
:102590000A44914204D011F8014B03F8014FF8E7C7
:1025A00010BD884210B501EB020301D8421E0BE0BA
:1025B0009842FBD28118D21AD34204D013F8014DAD
:1025C00001F8014DF8E710BD994204D011F8014B14
:1025D00002F8014FF8E710BD38B50546002944D090
:1025E00051F8043C0C1F002BB8BFE41800F0D4F8DD
:1025F0001E4A1368114613B96360146030E0A342A9
:102600000DD92268A018834201BF18685B681218B0
:10261000226063600C6023E0A24203D813465A682C
:10262000002AF9D118681918A1420BD12168014478
:1026300058188242196013D1106852680144196019
:102640005A600DE002D90C232B6009E02168601864
:10265000824201BF106852680918216062605C60A4
:102660002846BDE8384000F098B838BDC8020020C0
:1026700070B5CD1C25F0030508350C2D38BF0C2591
:10268000002D064601DBA94202D90C23336046E047
:1026900000F082F8234B1C681A462146A1B10B6852
:1026A0005B1B0ED40B2B03D90B60CC18CD501EE056
:1026B0008C420BBF63684B681360636018BF0C46A5
:1026C00015E00C464968E9E7174C23681BB930460A
:1026D00000F052F820602946304600F04DF8431CC7
:1026E00018D0C41C24F00304A0420DD1256030464C
:1026F00000F053F804F10B00231D20F00700C31A6B
:102700000ED05A42E25070BD211A304600F034F823
:102710000130EBD10C233360304600F03EF800204E
:1027200070BD00BFC8020020C4020020F8B50746F3
:1027300015460E4621B91146BDE8F840FFF798BF8F
:102740001AB9FFF749FF2846F8BD00F027F885427F
:102750000ED929463846FFF78BFF044650B1314663
:102760002A46FFF713FF31463846FFF735FF01E0F1
:102770003046F8BD2046F8BD38B5064C0023054666
:1027800008462360FDF7FEFD431C02D1236803B118
:102790002B6038BDCC0200207047704751F8040C04
:1027A0000028BEBF091851F8043CC018043870470F
:1027B000537461636B206672616D653A0A000000B4
:1027C000205230203D2020253038580A00000000DB
:1027D000205231203D2020253038580A00000000CA
:1027E000205232203D2020253038580A00000000B9
:1027F000205233203D2020253038580A00000000A8
:1028000020523132203D20253038580A0000000087
:10281000204C52203D2020253038580A000000006E
:10282000205043203D2020253038580A0000000069
:1028300020505352203D20253038580A0000000017
:102840004653522F4641523A0A0000002043465355
:1028500052203D2020253038580A00002048465399
:1028600052203D2020253038580A0000204446538D
:1028700052203D2020253038580A00002041465380
:1028800052203D2020253038580A0000204D4D466A
:102890004152203D20253038580A00002042464150
:1028A00052203D2020253038580A00004D697363BE
:1028B0000A000000204C522F4558435F52455455A2
:1028C000524E3D20253038580A0000005B486172A6
:1028D000644661756C745D0A000000005B427573AC
:1028E0004661756C745D0A005B557361676546618E
:1028F000756C745D0A000000427265616B00000037
:10290000427265616B0A000053656E74000000003E
:1029100064617461207472616E736D69747465644E
:102920000A0000007265630064617461207265636F
:1029300069657665640A000073796E632062797454
:102940006520616E64205049442073656E740A00EE
:102950006461746120627974652073656E740A0025
:1029600020636865636B73756D206279746520738D
:10297000656E740A00000000627265616B2072650A
:102980006369657665640A0073796E6320627974A1
:102990006520616E642050494420726563696576E4
:1029A00065640A0020646174612062797465206145
:1029B0006E6420636865636B73756D2062797465FE
:1029C0002873656E74292072656369657665640A8B
:1029D0000000000005000000000C01400C00000099
:1029E00009000000000C01400C000000070000007E
:1029F000000C01400C00000006000000000C01402B
:102A00000C0000000B000000000C01400C00000056
:102A10003C3C3C013C3C3C3C3C3C3C3C3C3C3C3C31
:102A20003C3C3C3C3C3C3C3C3C3C3C3C3C3C3C3CE6
:102A30003C3C3C3C3C3C3C3C3C3C3C3C3C3C3C3CD6
:102A40003C3C3C3C3C003C3C3C3C3C3C350A030CA4
:102A5000030A020C00000000FFFFFFFF0FF0FFFF62
:102A600000000000D00C0000000801400000000041
:102A7000AD15000828000000A11600080A0000009B
:102A8000ED1A0008D91A0008A91A0008D91A000876
:102A9000791A0008D91A0008491A0008D91A00083A
:102AA000311D000805000000891C0008391C0008C1
:102AB000BD1B00086D1B00081D1B00080C1428001E
:102AC000616200008D1E000805000000232D302BE0
:102AD0002000686C4C00656667454647003031321F
:102AE0003334353637383941424344454600303176
:0F2AF000323334353637383961626364656600D6
:102B000078563412980000200000000000000000F9
:102B100000000000010203040607080900A24A049D
:102B20000038014002FFFFFF00000000000000002D
:102B30000000000000000000000000000000000095
:102B40000000000000000000000000000000000085
:102B50000000000000000000000000000000000075
:102B60000000000000000000000000000000000065
:102B70000000000000000000000000000000000055
:102B80000000000000000000280000203254769869
:040000050800010DE1
:00000001FF
