:020000040800F2
:100000000050002021020008290200082D020008EB
:10001000A1020008A5020008ED020008000000008F
:100020000000000000000000000000003503000890
:1000300039030008000000003D03000841030008E8
:100040005103000851030008510300085103000840
:100050005103000851030008510300085103000830
:10006000510300085103000851030008A1110008C2
:10007000F911000851120008A912000829130008FC
:10008000A9130008011400085103000851030008D7
:1000900051030008510300085103000851030008F0
:1000A00051030008510300085103000851030008E0
:1000B00051030008510300085103000851030008D0
:1000C00051030008510300085103000851030008C0
:1000D00051030008450800085103000851030008B7
:1000E00051030008510300085103000800000000FC
:1000F0000000000000000000000000000000000000
:1001000000000000000000005FF808F100B583B0B7
:1001100000F0B0F9304B314A1360314A1360314B73
:10012000314A03E011681960043304322F498B42CD
:10013000F8D32A4B1A682E4B9A4204D1284B1A68DE
:100140002C4B9A4200D0FEE7234B2B4A13602B4ADC
:1001500013602B4B02E000221A600433294A9342B9
:10016000F9D3254B1B6813B9244B1B6803B1FEE779
:1001700000F08CF9694601A800F026F9224C234BC7
:100180001C1BA410002504E01F4B53F82530984792
:100190000135AC42F8DC1E4C1E4B1C1BA410002584
:1001A00004E01B4B53F8253098470135AC42F8DC8E
:1001B0000099019801F098FD0546174C174B1C1B40
:1001C000A41004E0013C144B53F824309847002C51
:1001D000F8DC284600F0D4F8BABADECA00000020E5
:1001E0008C000020000000208C2D000890000020D2
:1001F0007856341232547698900000201807002068
:10020000900000201C0700207C0300087C030008ED
:100210007C0300087C0300087C0300087C030008C2
:1002200008B5FFF773FF00BF00BEFEE71EF0040F26
:100230000CBFEFF30880EFF309807146414A104785
:100240002DE9F04182B004468846134B5E6B9F6BEC
:100250009D6A1B6B13F0020F0DD00F4BDB6A002B56
:1002600009DA4BF6AB6100F08DF920B14FF0004296
:10027000094BDA620CE0094800F0AEF8CDF80080D6
:100280003B4632462946204600F004F900BEFEE710
:1002900002B0BDE8F08100BF00ED00E0042C0008D2
:1002A00000BEFEE71EF0040F0CBFEFF30880EFF373
:1002B00009807146244A10472DE9F04182B0044676
:1002C0008846084B5E6B9F6B9D6A074800F084F878
:1002D000CDF800803B4632462946204600F0DAF849
:1002E00000BEFEE700ED00E0142C00081EF0040F35
:1002F0000CBFEFF30880EFF309807146134A1047F3
:100300002DE9F04182B004468846084B5E6B9F6B36
:100310009D6A074800F060F8CDF800803B46324601
:100320002946204600F0B6F800BEFEE700ED00E0EA
:10033000202C000800BEFEE700BEFEE700BEFEE780
:100340007047000041020008B902000801030008DC
:0403500000BEFEE706
:100354008C2D000800000020900000208C2D000847
:100364000000000000000000900000201C07002096
:08037400000000000000000081
:10038000FEE700BF08B50D4B1B6813B90C4A0B4BB9
:100390001A600A4B1A68C31C23F00303134409496B
:1003A0008B4206D901F056FF0C2303604FF0FF305B
:1003B00008BD02490B60104608BD00BF9400002034
:1003C0001C070020004C002001230360014B0B6040
:1003D000704700BF040000200FB400B583B004AB29
:1003E00053F8042B01938021064801F065FF002893
:1003F00003DD0146034800F039F803B05DF804EB73
:1004000004B070479C0000202DE9F04385B00446FD
:100410000F46435613BB042528462146ABBE04466F
:100420001FE03546102E28BF1025002306E014F9E2
:10043000011B04AA1A4402F8101C0133AB42F6D384
:1004400004AA1344002203F8102CE9464FF00408D4
:1004500040464946ABBE8046761B00E00E46002E65
:10046000DFD1384605B0BDE8F08300BF08B5FFF71F
:10047000CBFF08BD08B500F0FBF8024B024A9A60BA
:1004800008BD00BF00ED00E00000000808B500F066
:1004900017F908BDF8B504460D4617461E4626480E
:1004A000FFF79AFF21682548FFF796FF6168244807
:1004B000FFF792FFA1682348FFF78EFFE16822480B
:1004C000FFF78AFF21692148FFF786FF616920480D
:1004D000FFF782FFA1691F48FFF77EFFE1691E4811
:1004E000FFF77AFF1D48FFF777FF29461C48FFF703
:1004F00073FF1C4CE16A1C48FFF76EFF216B1B4821
:10050000FFF76AFFE16B1A48FFF766FF15F0800FEF
:1005100003D039461748FFF75FFF15F4004F03D0AB
:1005200031461548FFF758FF1448FFF755FF069965
:100530001348FFF751FFF8BDE82A0008F82A000821
:10054000082B0008182B0008282B0008382B00085F
:10055000482B0008582B0008682B0008782B00084F
:10056000842B000800ED00E0942B0008A42B000869
:10057000B42B0008C42B0008D42B0008E42B00087F
:10058000EC2B000883691A888A4207D10268033A73
:10059000012A05D80233836101207047002070478B
:1005A0000020704782B00023019300932C4A136807
:1005B00043F4803313602A4B1B6803F40033009329
:1005C000019B01330193009B1BB9019BB3F5A06F05
:1005D000F1D1234B1B6813F4003F02D00123009399
:1005E00001E000230093009B012B36D11D4B1A68BC
:1005F00042F010021A601A6822F003021A601A68A8
:1006000042F002021A60A3F580535A685A605A6891
:100610005A605A6842F480625A605A6822F47C1226
:100620005A605A6842F4E8125A601A6842F08072BE
:100630001A600B4B1B6813F0007FFAD0084B5A6806
:1006400022F003025A605A6842F002025A60044BD8
:100650005B6803F00C03082BF9D102B0704700BFB0
:10066000001002400020024008B5FFF79BFF08BDC4
:1006700008B5104B1A6842F001021A6059680E4A18
:100680000A405A601A6822F0847222F480321A609A
:100690001A6822F480221A605A6822F4FE025A6014
:1006A0004FF41F029A60FFF7DFFF4FF00062034B29
:1006B0009A6008BD001002400000FFF800ED00E065
:1006C0001F4B5B6803F00C03042B06D0082B08D0EB
:1006D0003BBB1C4A1C4B1A6026E01A4A1A4B1A6094
:1006E00022E0174A53685268C3F38343023312F47B
:1006F000803F05D1154A02FB03F3134A136013E050
:100700000F4A526812F4003F05D0104A02FB03F36F
:100710000D4A136008E00B4A02FB03F30A4A136018
:1007200002E0084A084B1A60054B5B68C3F30313E9
:10073000074AD35CDAB204490B68D3400B607047B8
:100740000010024000127A001C00002000093D0049
:100750000C0000200068C0F3801070470068C0F3F0
:10076000401070470068C0F300207047C36823F052
:1007700080031943C1607047C36823F02003194305
:10078000C1607047C36823F040031943C1607047DC
:1007900008B5426942F0C0024261026822F040029C
:1007A00002604021FFF7EEFF08BD00BF08B54369B6
:1007B00023F0C00343610021FFF7E4FF08BD00BF41
:1007C00008B5032000F0D2FC042000F0CFFC08BDE7
:1007D000C36823F400531943C1607047C36823F012
:1007E00008031943C1607047C36823F00403194329
:1007F000C160704738B504460D464FF40051FFF70D
:10080000E7FF08212046FFF7E9FF04212046FFF714
:10081000EBFFE36823F4B053E360236923F4405310
:100820002361054BA3FB0535ED0AA5600023034AB0
:100830001373034A137338BDB5814E1B1C0100208E
:100840004001002010B53448FFF78CFF50B1324A08
:10085000136823F4B0731360304B1B68002B5AD01D
:10086000984710BD2C48FFF775FF002836D000BF11
:10087000294A136823F040031360294B1B78052B8A
:100880000DD10022274B1A70234A136823F040032E
:100890001360254B1B68002B3DD0984710BD062BDD
:1008A00039D1224B9A685B689A4208D21F4B19686B
:1008B000895C194A51609A6801329A6010BD1B4CDC
:1008C000002121731448FFF751FF236903B19847B2
:1008D000164B5B69FBB11048984710BD0E48FFF7F7
:1008E0003DFFC0B1124A116893680B484068C85474
:1008F00001339360526893420DD10D4C0021217356
:100900000548FFF739FF236903B19847084B5B6936
:100910000BB10148984710BD003801403C01002050
:100920003801002039010020340100201C01002082
:1009300040010020014B1860012070473401002065
:1009400012480078E8B910B58AB018460524104B53
:100950001C700D240D4B1C70102301930023059374
:10096000069302930393802304930792094B089301
:100970000991FFF7DFFF01A9032000F095FB01209B
:1009800001E0002070470AB010BD00BF390100200F
:10099000380100200438014010B58AB000200190D1
:1009A0000290039080240494059006900792064AD2
:1009B000089209911946042000F0CEFB01A90420F9
:1009C00000F072FB0AB010BD04380140034B5B68B5
:1009D00003F00C0303700120704700BF00100240B9
:1009E000034A536823F00303184350600120704703
:1009F0000010024010F0005F14D0FE2909D0FF293A
:100A00003FD1244B5A6920F0005010435861012017
:100A10007047204A536920F0005023EA00005061DB
:100A200001207047002814DAFE2909D0FF292AD1B5
:100A3000184BDA6920F000401043D861012070475C
:100A4000144AD36920F0004023EA0000D06101205D
:100A5000704710F0804F18D0FE2909D0FF2916D119
:100A60000C4B9A6920F08040104398610120704738
:100A7000084A936920F0804023EA00009061012039
:100A8000704700207047002070470020704700200A
:100A9000704700BF0010024000B583B00DF10700A1
:100AA000FFF794FF9DF8073053B3042B06D1184B82
:100AB0001B6813F4802F25D0002026E0082B23D1BB
:100AC000134B5B6813F4803F0ED0114B1B6813F47B
:100AD000802F01D0002300E00E4B0D4A526812F423
:100AE000003F02D05B0800E00B4B094A5068C0F39E
:100AF00083400230102800D9102003FB00F004E0EE
:100B0000044802E0034800E0002003B05DF804FB65
:100B10000010024000127A0000093D0008B5FFF7FE
:100B2000BBFF204B5B6803F0F003802B01D1400832
:100B300008BD1C4B5B6803F0F003902B01D18008CB
:100B400008BD184B5B6803F0F003A02B01D1C0086F
:100B500008BD144B5B6803F0F003B02B01D1000912
:100B600008BD104B5B6803F0F003C02B01D1800976
:100B700008BD0C4B5B6803F0F003D02B01D1C0091A
:100B800008BD084B5B6803F0F003E02B01D1000ABD
:100B900008BD044B5B6803F0F003F02B00D1400A62
:100BA00008BD00BF0010024008B5FFF7B7FF084BB3
:100BB0005B6813F4005F0AD0054B5B68C3F3C22384
:100BC000043B022202FA03F3DBB2B0FBF3F008BDF0
:100BD00000100240014B024A1A6070470CED00E021
:100BE0000400FA05F0280DD810B44409074951F85B
:100BF000242000F01F03012000FA03F3134341F8FF
:100C0000243001E00020704710BC704700E100E094
:100C10000B4BDB6813F0010FFAD1094B1A6942F054
:100C200001021A6158610180054BDB6813F0010F66
:100C3000FAD1034A136923F00103136101207047BD
:100C400000200240034B044A5A6002F188325A6085
:100C5000704700BF0020024023016745194B1B6904
:100C600013F0800F2CD1174BDB6813F0010FFAD172
:100C7000144B1A6942F002021A6120F47F7222F0CA
:100C800003025A611A6942F040021A610D4BDB6897
:100C900013F0010FFAD1002306E001884FF6FF722E
:100CA000914206D101339BB2B3F5007FF5D3012009
:100CB00000E00020034A136923F002031361704728
:100CC0000020704700200240B34B1B6913F0800FD7
:100CD00040F05A812DE9F04FADF6240D520802F193
:100CE000004A0AF1FF3A00EB4A0A20F47F7323F02E
:100CF0000303CDF80834DDF808346FEA93236FEA74
:100D00008323CDF80C34DDF80834C3EB0A035B1001
:100D10001C46002B01DA03F2FF144FEA642808F1A5
:100D200001085FFA88F8DDF80834C31AC3F34F03EB
:100D3000ADF81034B8F1010F07D192B2ADF812241A
:100D4000ADF81E28CDF8140816E02AF47F7323F0BE
:100D50000303CDF81438BDF810349BB2C3F500730B
:100D60009BB2ADF81234DDF81438C3EB0A035B1004
:100D700001339BB2ADF81E38DDF814386FEA9323C7
:100D80006FEA8323CDF81838DDF81838CAEB03036F
:100D9000C3F34F03ADF81C38DDF80874002307E0F7
:100DA00030F813404FF6FF72944209D101339BB2E1
:100DB000BDF8122492B29342F2D31423009301E0BF
:100DC00019230093002309E0DDF8142832F81340BA
:100DD0004FF6FF72944209D101339BB2BDF81E2831
:100DE00092B29342F0D34FF0140B01E04FF0190B85
:100DF000009B192B10D109E0DDF8082432F81320EC
:100E000002AC24F8132001339BB200E00023BDF8AC
:100E1000102492B29342EFD3BBF1190F0FD108E027
:100E2000531C3AF813500DF2144424F812509AB29D
:100E300000E00022BDF81C389BB29A42F0D38946EC
:100E400001900026354601239AE01EB108F1FF32D9
:100E5000964278D1AEBB009A192A1BD13846FFF7CB
:100E6000FDFE0346012815D10EE0DDF8080402ABB3
:100E700033F8141089B200EB4400FFF7C9FE0346B3
:100E800040B10134A4B200E00024BDF8102492B2B5
:100E90009442EAD3012B14D10DE039F81510019BCF
:100EA00003EB4400FFF7B4FE034650B10135ADB289
:100EB0000134A4B200E00024BDF8122492B294429E
:100EC000EBD308F1FF32964256D1BBF1190F1ED178
:100ED000B8F1010F03D03846FFF7C0FE0346012BDF
:100EE00015D10EE0601C0DF2144333F8141089B2D2
:100EF0000AEB4000FFF78CFE034640B10134A4B278
:100F000000E00024BDF81C2892B29442EAD3012BE1
:100F100032D1B8F1010F0FD12EE0DDF8140839F805
:100F2000151000EB4400FFF773FE034620B30135B4
:100F3000ADB20134A4B200E00024BDF81E2892B284
:100F40009442EAD318E03846FFF788FE03460128AA
:100F500011D10CE039F8151007EB4400FFF758FEEB
:100F6000034640B10135ADB20134A4B200E0002423
:100F7000B4F5007FEED353B107F580670136F6B2C2
:100F80004645FFF462AF02E000231846704718465A
:100F90000DF6240DBDE8F08F00200240044B1B68C5
:100FA0008000013023FA00F000F00100704700BF1C
:100FB00000000240044B1B688000023023FA00F05E
:100FC00000F00100704700BF00000240044B1B68A6
:100FD0008000033023FA00F000F00100704700BFEA
:100FE0000000024004494B6880000130012202FAEF
:100FF00000F003434B6070470000024004494B6817
:1010000080000230012202FA00F003434B60704777
:101010000000024004494B6880000330012202FABC
:1010200000F003434B6070470000024008B5FF2109
:101030000C48FFF7DFFC0B20FFF7D4FD0C20FFF777
:10104000D1FD0D20FFF7CEFD0E20FFF7CBFD0F20C9
:10105000FFF7C8FD1020FFF7C5FD1120FFF7C2FD07
:1010600008BD00BF0100002010B400EB8002930017
:1010700003F1804303F500339B6823F4405323F0CE
:101080000E0343F00202062801D9002400E00124E7
:1010900000EB8003990001F1804303F500339A606F
:1010A000204610BC704700BF284A125C002A47D176
:1010B0000346274A125C002A44D1F0B42220234A76
:1010C000D05403EB8300820002F1804202F500322B
:1010D000946824F49F4020F071000C688A681443DF
:1010E000CA6814430A6914434A69224340EA020465
:1010F00014F4804F08D14A681443202A09D12320D0
:10110000134AD054012007E04A68202A03D0012066
:1011100002E0012000E000200E4D9E00F718BA000A
:1011200017462A4494608C69D460CC691461096ABA
:101130005161916841F001013A462A44916003E00F
:101140000020704700207047F0BC70470006002068
:10115000F80500200000024021B1034A42F82010A7
:1011600001207047002070475801002010B4002370
:10117000084A1354084A1354084983001C18A20053
:1011800014460A44926822F0010223460B449A60F6
:1011900010BC704700060020F80500200000024047
:1011A00008B50020FFF7FAFE48B10020104B187078
:1011B000FFF718FF0F4B1B68C3B1984708BD00200D
:1011C000FFF7F8FE38B10020FFF718FF094BDB6985
:1011D00063B1984708BD0020FFF7F8FE30B100204A
:1011E000FFF718FF034B9B6B03B1984708BD00BF87
:1011F000000600205801002008B50120FFF7CEFEB0
:1012000050B10022104B5A700120FFF7EBFE0F4B3C
:101210005B68C3B1984708BD0120FFF7CBFE38B12A
:101220000120FFF7EBFE094B1B6A63B1984708BD2D
:101230000120FFF7CBFE30B10120FFF7EBFE034B9F
:10124000DB6B03B1984708BD000600205801002061
:1012500008B50220FFF7A2FE50B10022104B9A7091
:101260000220FFF7BFFE0F4B9B68C3B1984708BD34
:101270000220FFF79FFE38B10220FFF7BFFE094BA7
:101280005B6A63B1984708BD0220FFF79FFE30B14B
:101290000220FFF7BFFE034B1B6C03B1984708BD4C
:1012A000000600205801002008B51C4B1B681BB924
:1012B00001221A4B1A600AE0012B03D10222174BBC
:1012C0001A6004E0022B02D10022144B1A600320A2
:1012D000FFF764FE50B10022114BDA700320FFF7D4
:1012E00081FE104BDB68C3B1984708BD0320FFF7B0
:1012F00061FE38B10320FFF781FE0A4B9B6A63B1A0
:10130000984708BD0320FFF761FE30B10320FFF7C7
:1013100081FE044B5B6C03B1984708BDAC01002013
:10132000000600205801002008B51C4B1B681BB9A3
:1013300001221A4B1A600AE0012B03D10222174B3B
:101340001A6004E0022B02D10022144B1A60042020
:10135000FFF724FE50B10022114B1A710420FFF751
:1013600041FE104B1B69C3B1984708BD0420FFF72D
:1013700021FE38B10420FFF741FE0A4BDB6A63B15E
:10138000984708BD0420FFF721FE30B10420FFF785
:1013900041FE044B9B6C03B1984708BDB00100208F
:1013A000000600205801002008B50520FFF7F6FDD3
:1013B00050B10022104B5A710520FFF713FE0F4B5E
:1013C0005B69C3B1984708BD0520FFF7F3FD38B14D
:1013D0000520FFF713FE094B1B6B63B1984708BD4F
:1013E0000520FFF7F3FD30B10520FFF713FE034B97
:1013F000DB6C03B1984708BD0006002058010020AF
:1014000008B50620FFF7CAFD50B10022104B9A71B3
:101410000620FFF7E7FD0F4B9B69C3B1984708BD56
:101420000620FFF7C7FD38B10620FFF7E7FD094B9F
:101430005B6B63B1984708BD0620FFF7C7FD30B16D
:101440000620FFF7E7FD034B1B6D03B1984708BD6E
:1014500000060020580100202DE9F04F83B0002144
:1014600051E0D0E9024500914FEA810ECEF120080B
:10147000AEF1200C24FA0EF205FA08F842EA08024E
:1014800025FA0CFC42EA0C0202F00F084FF00009AA
:10149000B9F1000F08BFB8F10C0F26D14FF00F0CB7
:1014A000AEF12009CEF120080CFA09FB2CFA08F85D
:1014B0004BEA080B0CFA0EFA24EA0A0425EA0B059B
:1014C0004FF0080CCEF120080CFA09F72CFA08F8B6
:1014D00047EA08070CFA0EF634433D43C0E90245DB
:1014E000056901248C402C610BE002F00804002502
:1014F0002C4306D0056901950124009DAC40019D57
:101500006C610131C9B20F29ABD90169D0E900453D
:10151000D1E9002322402B40C1E900230169D0E931
:101520000245D1E9002322432B43C1E900230120D6
:1015300003B0BDE8F08F00BF08B500F0C3FC094957
:1015400000F00EFC00F066FE00F0BCFC064900F066
:10155000C5FD00F05FFE002301E000BF01338342C0
:10156000FBD308BD0456223FFFE7B03B074B0A22DE
:101570001A705A70064959609960D960054B1A7003
:101580005A70054A5A609A60DA607047080600206F
:101590002806002018060020A006002070B586B09E
:1015A0000646FF214FF04020FFF724FAFF210D48A7
:1015B000FFF720FA6C460C4D0FCD0FC495E80300E1
:1015C00084E803006846FFF747FF2520FFF70AFB82
:1015D000FFF7EAFA01463046FFF70CF9FFF7C6FFBE
:1015E00006B070BD04000040302C000810B5044661
:1015F0000320FFF739FD0420FFF736FD2046FFF7F3
:10160000C7F810BD08B5FFF7D1F808BD08B5FFF75A
:10161000D7F808BD08B5FFF793F908BD08B5FFF77F
:10162000BBF908BD30B442680478414B13F824403C
:101630001470047803EB840464785470047803EB2A
:101640008403DB780B800378042B6DD8DFE803F08C
:1016500003152B485A00374C2378937001332370BD
:101660008369536044680B88013B0178304A02EB80
:1016700081029278E254012057E02F4C2378937036
:1016800001332370C3685360036993604369D36077
:1016900044680B88013B0178254A02EB810292786D
:1016A000E254012041E0254C2378937001332370EC
:1016B000438805330B80002305E08468E55CD4187B
:1016C000257101339BB20C88A342F6D34268013CDA
:1016D0000178174B03EB81039B781355012024E01D
:1016E000174C237893700133237043781371446847
:1016F0000B88013B01780E4A02EB81029278E2549A
:10170000012012E00F4C2378937001332370037F84
:10171000137144680B88013B0178054A02EB810292
:101720009278E254012000E0002030BC704700BFF6
:10173000482C0008B5010020B6010020B7010020A8
:10174000B4010020B801002042680378042B35D88A
:10175000DFE803F0030C19222B0051781D4B5B7856
:1017600099422DD153688361012070475178194BFC
:101770005B79994226D15368C36093680361D3684B
:101780004361012070475178124B5B7A99421BD11B
:10179000043282600120704751780E4B5B7B994286
:1017A00014D113794370012070475178094B5B7C49
:1017B00099420DD1137903770120704700207047BB
:1017C00000207047002070470020704700207047BD
:1017D00000207047482C0008024B03EB8000C378C0
:1017E0000B807047482C000810B582B00D4B0322C7
:1017F0001A7058700C4C5C600DF106011846FFF72A
:1018000011FF4FF47A70FFF797FE0023BDF8062012
:1018100021460648FFF7FEFE0548FEF7DDFD02B053
:1018200010BD00BFC4050020BC01002000380140ED
:101830005C2C000810B52148FEF7CEFD204804239B
:101840000370204B4360FFF77FFFE0B91E48FEF7AF
:10185000C3FD04221D4B1A701D4C2046FFF7D2FE1B
:101860002046FFF7D3FE2046FFF7C0FE2220FFF7F9
:10187000BBFF184A13780133DBB21370052B1CD160
:10188000FFF7A8F910BD1448FEF7A6FD0022114B82
:101890001A700B4B1B7F442B03D101220B4B1A7088
:1018A00008E0552B03D11922084B1A7002E02220C0
:1018B000FFF79AFF1120FFF797FF10BD6C2C00086F
:1018C000C4050020BC010020802C0008E805002091
:1018D00000380140E4050020882C000838B5304865
:1018E000FEF77AFD05222F4B1A702F480223037052
:1018F0002E4B4360FFF728FF044601282ED12C48C9
:10190000FEF76AFD00222B4B1A702B4B93F9002037
:101910002A4B1B78013B9A420AD1234B5A6999689A
:10192000D868FFF7D1F904460422254B1A7012E05B
:101930001D4D4FF48062A968E868FFF7C5F90446B9
:101940006B69A3F580636B61EB6803F58063EB6003
:1019500002221B4B1A701120FFF746FFFCB91948F1
:10196000FEF73AFD134C2378013323700222144B07
:101970001A70114A1378013B1370134D2846FFF774
:1019800041FE2846FFF742FE2846FFF72FFE2220A1
:10199000FFF72AFF2378052B01D1FFF71BF938BD8C
:1019A000942C000824000020C4050020BC01002065
:1019B000882C0008E4050020E7050020E60500204B
:1019C000E8050020802C00080038014038B529487F
:1019D000FEF702FD284801230370284B4360FFF700
:1019E000B3FEE0B92648FEF7F7FC0122254B1A703A
:1019F000254C2046FFF706FE2046FFF707FE20464F
:101A0000FFF7F4FD2220FFF7EFFE204A13780133A1
:101A1000DBB21370052B2CD1FFF7DCF838BD1C4866
:101A2000FEF7DAFC0022194B1A700222154B1A70CD
:101A30001120FFF7D9FE174B1B787BB9164D28688C
:101A40000D4C042204F10C011044FFF73DF9286805
:101A5000042204F110010830FFF736F90D4A13781B
:101A60000133137004494B690A69C9680B48FEF7D2
:101A7000B3FC38BDA02C0008C4050020BC01002028
:101A8000802C0008E805002000380140E405002013
:101A9000882C0008E505002020000020AC2C000860
:101AA00010B51D48FEF798FC1C48002303701C4B22
:101AB0004360FFF749FEE0B91A48FEF78DFC0022AB
:101AC000194B1A70194C2046FFF79CFD2046FFF772
:101AD0009DFD2046FFF78AFD2220FFF785FE144A70
:101AE00013780133DBB21370052B13D1FFF772F8B3
:101AF00010BD00220E4B1A700E48FEF76DFC01223D
:101B0000094B1A701120FFF76FFE044B99690A48C0
:101B1000FEF762FC10BD00BFC82C0008C405002001
:101B2000BC010020802C0008E8050020003801409E
:101B3000E4050020882C0008D42C000800B583B0F0
:101B40000023ADF80630584B1B78192B00F2A98002
:101B5000DFE803F00D2A3DA784A7A7A7A7A7A7A79B
:101B6000A7A7A7A7A7A7A7A7A7A7A7A7A7974F4BC9
:101B70001B681B68B3F1663F03D101224A4B1A7000
:101B80008FE04B48FEF728FC1422474B1A700DF1EA
:101B900006010020FFF720FE464BBDF8062046490F
:101BA0004648FFF73BFD7CE04548FEF715FC142254
:101BB0003D4B1A700DF106010120FFF70DFE414B60
:101BC000BDF806203C493D48FFF728FD69E03E4846
:101BD000FEF702FC1422344B1A700DF106010220AC
:101BE000FFF7FAFD394B5B69C3F30901BDF8062025
:101BF0000A44ADF806202BB1013B9B0A0133344A5D
:101C0000137002E00122324B1A700022314B1A701D
:101C10001CE0072030490870013B9A4207D12F4B46
:101C2000BDF8062024492548FFF7F8FC06E02B4BB9
:101C300040F2054220492148FFF7F0FC264B1B7873
:101C4000072BFBD0234A137801331370214B93F9F0
:101C500000201F4B1B789A42DBDB22E02048FEF776
:101C6000BBFB1422104B1A700DF106010420FFF784
:101C7000B3FD1C4BBDF806200F491048FFF7CEFC02
:101C80000FE012494FF0773341F8183F0422074B19
:101C90001868FFF719F842F21070FFF74DFCFEF7D5
:101CA00099FF03B05DF804FBE80500202000002048
:101CB000F42C0008A11A0008BC01002000380140E3
:101CC000042D0008CD190008142D0008C4050020BB
:101CD000E6050020E705002024000020DD180008AC
:101CE000202D00083518000810B5154B1B681B681F
:101CF000B3F1773F10D00120FEF772FEFEF7A2FF8E
:101D0000104C2046FFF74AFCFFF790F92046FFF7FA
:101D10006DFCFFF713FFFCE70B48FEF75DFB084B7C
:101D20001A685168094A11601B689968084C21615A
:101D30000848FEF751FB23699847002010BD00BFFB
:101D40002000002000380140342D000808ED00E09C
:101D5000C4050020442D000880F0004002E000BFD0
:101D600081F0004142001FBF5FEA410392EA030F86
:101D70007FEA226C7FEA236C6AD04FEA1262D2EBD0
:101D80001363C1BFD218414048404140B8BF5B42D5
:101D9000192B88BF704710F0004F40F4000020F06E
:101DA0007F4018BF404211F0004F41F4000121F084
:101DB0007F4118BF494292EA030F3FD0A2F10102CE
:101DC00041FA03FC10EB0C00C3F1200301FA03F10C
:101DD00000F0004302D5494260EB4000B0F5000F2F
:101DE00013D3B0F1807F06D340084FEA310102F1EE
:101DF0000102FE2A51D2B1F1004F40EBC25008BFA0
:101E000020F0010040EA03007047490040EB000069
:101E100010F4000FA2F10102EDD1B0FA80FCACF198
:101E2000080CB2EB0C0200FA0CF0AABF00EBC25097
:101E300052421843BCBFD0401843704792F0000F85
:101E400081F4000106BF80F400000132013BB5E7D8
:101E50004FEA41037FEA226C18BF7FEA236C21D04E
:101E600092EA030F04D092F0000F08BF08467047B3
:101E700090EA010F1CBF0020704712F07F4F04D181
:101E8000400028BF40F00040704712F100723CBF94
:101E900000F50000704700F0004343F0FE4040F4BE
:101EA000000070477FEA226216BF08467FEA23637C
:101EB0000146420206BF5FEA412390EA010F40F467
:101EC000800070474FF0000304E000BF10F00043B3
:101ED00048BF40425FEA000C08BF704743F096439A
:101EE00001464FF000001CE050EA010208BF7047B5
:101EF0004FF000030AE000BF50EA010208BF70473C
:101F000011F0004302D5404261EB41015FEA010C50
:101F100002BF84460146002043F0B64308BFA3F148
:101F20008053A3F50003BCFA8CF2083AA3EBC2532A
:101F300010DB01FA02FC634400FA02FCC2F1200249
:101F4000BCF1004F20FA02F243EB020008BF20F080
:101F50000100704702F1200201FA02FCC2F12002E6
:101F600050EA4C0021FA02F243EB020008BF20EADB
:101F7000DC7070474FF0FF0C1CEAD0521EBF1CEA09
:101F8000D15392EA0C0F93EA0C0F6FD01A4480EAF7
:101F9000010C400218BF5FEA41211ED04FF00063E0
:101FA00043EA501043EA5111A0FB01310CF000400C
:101FB000B1F5000F3EBF490041EAD3715B0040EA32
:101FC000010062F17F02FD2A1DD8B3F1004F40EB02
:101FD000C25008BF20F00100704790F0000F0CF0D5
:101FE000004C08BF49024CEA502040EA51207F3A99
:101FF000C2BFD2F1FF0340EAC250704740F4000074
:102000004FF00003013A5DDC12F1190FDCBF00F064
:1020100000407047C2F10002410021FA02F1C2F112
:10202000200200FA02FC5FEA310040F1000053EAAE
:102030004C0308BF20EADC70704792F0000F00F0FC
:10204000004C02BF400010F4000F013AF9D040EA02
:102050000C0093F0000F01F0004C02BF490011F496
:10206000000F013BF9D041EA0C018FE70CEAD15394
:1020700092EA0C0F18BF93EA0C0F0AD030F0004C14
:1020800018BF31F0004CD8D180EA010000F00040C8
:10209000704790F0000F17BF90F0004F084691F086
:1020A000000F91F0004F14D092EA0C0F01D14202C0
:1020B0000FD193EA0C0F03D14B0218BF084608D189
:1020C00080EA010000F0004040F0FE4040F40000D3
:1020D000704740F0FE4040F4400070474FF0FF0C66
:1020E0001CEAD0521EBF1CEAD15392EA0C0F93EAAD
:1020F0000C0F69D0A2EB030280EA010C49024FEAFF
:10210000402037D04FF0805343EA111143EA1013B7
:102110000CF000408B4238BF5B0042F17D024FF46F
:10212000000C8B4224BF5B1A40EA0C00B3EB510F4A
:1021300024BFA3EB510340EA5C00B3EB910F24BF33
:10214000A3EB910340EA9C00B3EBD10F24BFA3EBB8
:10215000D10340EADC001B0118BF5FEA1C1CE0D180
:10216000FD2A3FF650AF8B4240EBC25008BF20F033
:10217000010070470CF0004C4CEA50207F32C2BF87
:10218000D2F1FF0340EAC250704740F400004FF024
:102190000003013A37E792F0000F00F0004C02BF55
:1021A000400010F4000F013AF9D040EA0C0093F01F
:1021B000000F01F0004C02BF490011F4000F013B79
:1021C000F9D041EA0C0195E70CEAD15392EA0C0FE1
:1021D00008D142027FF47DAF93EA0C0F7FF470AF19
:1021E000084676E793EA0C0F04D14B023FF44CAF5C
:1021F00008466EE730F0004C18BF31F0004CCAD1F1
:1022000030F000427FF45CAF31F000437FF43CAF2C
:102210005FE700BF42000ED2B2F1FE4F0BD34FF08A
:102220009E03B3EB126209D44FEA002343F000434C
:1022300023FA02F070474FF00000704712F1610F6F
:1022400001D1420202D14FF0FF3070474FF0000041
:10225000704700BF014B1868704700BF880000201E
:1022600030B5141E05469BB0184604DA8B232B604C
:102270004FF0FF301DE04FF40273ADF80C300CBF8F
:10228000234604F1FF33029305934FF6FF73009149
:102290000491ADF80E3002461E9B6946284600F0B8
:1022A00073F8431CBCBF8B232B6014B1009B00222E
:1022B0001A701BB030BD000007B5009313460A46E4
:1022C000014603480068FFF7CBFF03B05DF804FB4D
:1022D000880000202DE9F0478E6882469E420C4619
:1022E000914698463ED88A8912F4906F3AD0256874
:1022F000096902236F1A656905EB450595FBF3F53E
:102300007B1C43449D4238BF1D4653050FD52946CB
:1023100000F04AFB064698B13A46216900F0D2FA2D
:10232000A38923F4906343F08003A38113E02A463A
:1023300000F098FB064670B92169504600F0E8FAB3
:102340000C23CAF80030A3894FF0FF3043F040035C
:10235000A381BDE8F08726613E442660464665615C
:10236000ED1BA560464528BF4646494632462068D3
:1023700000F0B3FAA36800209B1BA36023681E44EF
:102380002660BDE8F08700002DE9F04F9DB0039373
:102390008B8980461C060D4616460DD50B695BB928
:1023A000402100F001FB2860286118B90C23C8F80F
:1023B0000030CDE040236B610023099320238DF88A
:1023C0002930DFF89CB130238DF82A3037463C465F
:1023D00014F8013B1BB9B7EB060910D003E0252B1D
:1023E000F9D02746F3E74B46324629464046FFF7E9
:1023F00071FF013000F0A780099B4B4409933B78A3
:10240000002B00F0A08000234FF0FF3204930793CD
:10241000059206938DF853301A93012605222178F0
:102420004E4800F041FA671C049B38B14B4A3C46C9
:10243000801A06FA00F018430490EFE7D90644BF6B
:1024400020228DF853201A0744BF2B228DF85320E9
:1024500022782A2A03D0079A00210A200BE0039A47
:10246000111D12680391002A10DA524243F0020053
:10247000079204900BE027463B780134303B092B50
:1024800003D800FB02320121F5E701B107923B7846
:102490002E2B1ED17B782A2B0AD1039B02371A1DC3
:1024A0001B680392002BB8BF4FF0FF33059310E079
:1024B000002319460593781C0A2407463A78013010
:1024C000303A092A03D804FB01210123F5E703B1BF
:1024D000059103223978224800F0E6F940B1402303
:1024E000CBEB000003FA00F0049B01371843049083
:1024F000397806221B487E1C8DF8281000F0D4F98C
:1025000088B1194B33B9039B073323F00703083312
:10251000039314E003AB00932A46144B04A94046EE
:10252000AFF3008007E003AB00932A460F4B04A9EA
:10253000404600F093F8B0F1FF3F824603D0099B7C
:102540005344099342E7AB895B0601D4099801E043
:102550004FF0FF301DB0BDE8F08F00BF582D0008D0
:102560005E2D0008622D000800000000D522000842
:102570002DE9F04791461F460A698B68064693424B
:10258000B8BF1346C9F8003091F843200C46DDF877
:10259000208012B10133C9F800302368990642BF88
:1025A000D9F800300233C9F80030256815F0060567
:1025B00010D104F1190A07E001235246394630468A
:1025C000C04701301AD00135E368D9F800209B1AC2
:1025D0009D42F1DB94F843302268003318BF012399
:1025E00092060FD5E118302081F843005A1C94F868
:1025F00045102244023382F8431003E04FF0FF30CD
:10260000BDE8F08704F1430239463046C047013047
:10261000F4D02268D9F80050E36802F00602042AD8
:1026200008BF5D1B2269A3680CBF25EAE57500257C
:102630009342C4BF9B1AED184FF000091A344D4560
:1026400009D00123224639463046C0470130D5D053
:1026500009F10109F3E70020BDE8F0872DE9F04317
:1026600017460A7E85B06E2A984606460C460C9B95
:1026700001F1430E00F0AE8011D8632A22D009D8B0
:10268000002A00F0BB80582A40F0CA8081F845201B
:10269000834955E0642A1ED0692A1CD0C0E0732A01
:1026A00000F0B08009D86F2A2ED0702A40F0B88090
:1026B0000A6842F020020A603EE0752A24D0782A97
:1026C0003AD0ADE01A6801F14205111D1960136896
:1026D00084F84230A8E021681A6811F0800F02D017
:1026E000111D196008E011F0400F02F1040119609A
:1026F00002D0B2F9003000E01368002B3CDA2D2242
:102700005B4284F8432037E021681A6811F0800F9B
:1027100002D0111D196007E011F0400F02F1040111
:10272000196001D0138800E01368227E5C496F2A8B
:1027300014BF0A2208221BE078225A4984F8452057
:102740002268186812F0800F00F104051D6003D1A3
:10275000550601D5038800E00368D00744BF42F066
:10276000200222601BB9226822F02002226010227F
:10277000002084F8430001E049490A226568002DE1
:10278000A56008DB206820F0040020602BB9002D34
:102790007DD175460CE0002B79D07546B3FBF2F085
:1027A00002FB1033CB5C05F8013D03460028F5D150
:1027B000082A0BD12368DA0708D5236962689A4290
:1027C000DEBF302305F8013C05F1FF35C5EB0E03F4
:1027D00023612EE008681A6810F0800F496903D061
:1027E000101D1860136808E010F0400F02F104009B
:1027F0001860136801D0198000E01960002323617C
:10280000754616E01A68111D196015680021626886
:10281000284600F049F808B1401B6060636804E096
:1028200004F1420584F8422001232361002384F847
:102830004330CDF800803B4603AA21463046FFF7DF
:1028400097FE013002D14FF0FF3026E023692A467F
:1028500039463046C0470130F5D023689B0710D574
:10286000002504F1190907E001234A46394630469C
:10287000C0470130E7D00135E368039A9B1A9D42B7
:10288000F2DBE068039B9842B8BF184605E00B787E
:1028900004F1420584F842308AE705B0BDE8F083D0
:1028A000692D00087A2D000810B5C9B20244904283
:1028B000034605D01C7801308C42F8D1184610BD73
:1028C000002010BD10B5431E0A44914204D011F8F7
:1028D000014B03F8014FF8E710BD884210B501EB3A
:1028E000020301D8421E0BE09842FBD28118D21A93
:1028F000D34204D013F8014D01F8014DF8E710BDA3
:10290000994204D011F8014B02F8014FF8E710BDCD
:1029100038B50546002944D051F8043C0C1F002B63
:10292000B8BFE41800F0D4F81E4A1368114613B972
:102930006360146030E0A3420DD92268A01883427E
:1029400001BF18685B681218226063600C6023E0A6
:10295000A24203D813465A68002AF9D118681918F8
:10296000A1420BD12168014458188242196013D149
:1029700010685268014419605A600DE002D90C23B6
:102980002B6009E021686018824201BF106852681C
:102990000918216062605C602846BDE8384000F09C
:1029A00098B838BDF005002070B5CD1C25F00305A2
:1029B00008350C2D38BF0C25002D064601DBA94239
:1029C00002D90C23336046E000F082F8234B1C68E8
:1029D0001A462146A1B10B685B1B0ED40B2B03D901
:1029E0000B60CC18CD501EE08C420BBF63684B6867
:1029F0001360636018BF0C4615E00C464968E9E7B0
:102A0000174C23681BB9304600F052F82060294665
:102A1000304600F04DF8431C18D0C41C24F00304C9
:102A2000A0420DD12560304600F053F804F10B00B0
:102A3000231D20F00700C31A0ED05A42E25070BD89
:102A4000211A304600F034F80130EBD10C2333600A
:102A5000304600F03EF8002070BD00BFF0050020B9
:102A6000EC050020F8B5074615460E4621B911467B
:102A7000BDE8F840FFF798BF1AB9FFF749FF2846AD
:102A8000F8BD00F027F885420ED929463846FFF7F1
:102A90008BFF044650B131462A46FFF713FF3146FB
:102AA0003846FFF735FF01E03046F8BD2046F8BD57
:102AB00038B5064C0023054608462360FDF762FC46
:102AC000431C02D1236803B12B6038BDF4050020FC
:102AD0007047704751F8040C0028BEBF091851F820
:102AE000043CC01804387047537461636B206672ED
:102AF000616D653A0A000000205230203D202025FB
:102B00003038580A00000000205231203D20202596
:102B10003038580A00000000205232203D20202585
:102B20003038580A00000000205233203D20202574
:102B30003038580A0000000020523132203D202554
:102B40003038580A00000000204C52203D2020253B
:102B50003038580A00000000205043203D20202536
:102B60003038580A0000000020505352203D2025E4
:102B70003038580A000000004653522F4641523A5E
:102B80000A0000002043465352203D2020253038C3
:102B9000580A00002048465352203D202025303856
:102BA000580A00002044465352203D20202530384A
:102BB000580A00002041465352203D20202530383D
:102BC000580A0000204D4D464152203D2025303806
:102BD000580A00002042464152203D20202530382E
:102BE000580A00004D6973630A000000204C522F00
:102BF0004558435F52455455524E3D202530385874
:102C00000A0000005B486172644661756C745D0A7D
:102C1000000000005B4275734661756C745D0A00CC
:102C20005B55736167654661756C745D0A000000F1
:102C3000FFFFFFFF0FF0FFFF000000009004000007
:102C40000008014000000000550077095501771188
:102C5000550277055503770655037706726573703D
:102C60006F6E73652073656E740A00006C61737417
:102C70002068656164657220696E740A0000000056
:102C80006661696C65640A00737563636573730AD2
:102C9000000000006461746120696E740A00000025
:102CA000737461727420696E740A00006164643A1E
:102CB000256C7820656E7472793A256C782073697A
:102CC0007A653A256C78000072657120696E740A25
:102CD000000000005468652076616C7565206F66A1
:102CE00020746865206B6579206973203A203078FC
:102CF0002578000072657175657374206672616D68
:102D0000650A00007374617274206672616D650AF1
:102D10000000000044617461206672616D650A0004
:102D20004C61737420686561646572206672616DC0
:102D3000650A00006A756D70696E672020617070A9
:102D40000A000000656E74727920706F696E7420DD
:102D50006973202578000000232D302B2000686C3B
:102D60004C006566674546470030313233343536AE
:102D700037383941424344454600303132333435E7
:0B2D8000363738396162636465660015
:102D8C00785634129800002000000000000000006B
:102D9C0000000000010203040607080900A24A040F
:102DAC0000FC000805FFFFFF000000000000000011
:102DBC000000000000000000000000000000000007
:102DCC0000000000000000000000000000000000F7
:102DDC0000000000000000000000000000000000E7
:102DEC0000000000000000000000000000000000D7
:102DFC0000000000000000000000000000000000C7
:102E0C0000000000000000002800002032547698DA
:0CFC000088888888888888888888888898
:040000050800010DE1
:00000001FF
