:020000040800F2
:100000000050002021020008290200082D020008EB
:10001000A1020008A5020008ED020008000000008F
:100020000000000000000000000000003503000890
:1000300039030008000000003D0300087D0A0008A5
:100040005103000851030008510300085103000840
:100050005103000851030008510300085103000830
:10006000510300085103000851030008910E0008D5
:10007000E90E0008410F0008990F0008F10F000871
:1000800049100008A110000851030008510300089E
:1000900051030008510300085103000851030008F0
:1000A00051030008510300085103000851030008E0
:1000B00051030008510300085103000851030008D0
:1000C00051030008510300085103000851030008C0
:1000D00051030008510900085103000851030008AA
:1000E00051030008510300085103000800000000FC
:1000F0000000000000000000000000000000000000
:1001000000000000000000005FF808F100B583B0B7
:1001100000F0B0F9304B314A1360314A1360314B73
:10012000314A03E011681960043304322F498B42CD
:10013000F8D32A4B1A682E4B9A4204D1284B1A68DE
:100140002C4B9A4200D0FEE7234B2B4A13602B4ADC
:1001500013602B4B02E000221A600433294A9342B9
:10016000F9D3254B1B6813B9244B1B6803B1FEE779
:1001700000F08CF9694601A800F026F9224C234BC7
:100180001C1BA410002504E01F4B53F82530984792
:100190000135AC42F8DC1E4C1E4B1C1BA410002584
:1001A00004E01B4B53F8253098470135AC42F8DC8E
:1001B0000099019801F0C8FC0546174C174B1C1B11
:1001C000A41004E0013C144B53F824309847002C51
:1001D000F8DC284600F0D4F8BABADECA00000020E5
:1001E0008800002000000020A42600088C000020C9
:1001F00078563412325476988C000020EC0300209C
:100200008C000020F00300207C0300087C03000821
:100210007C0300087C0300087C0300087C030008C2
:1002200008B5FFF773FF00BF00BEFEE71EF0040F26
:100230000CBFEFF30880EFF309807146414A104785
:100240002DE9F04182B004468846134B5E6B9F6BEC
:100250009D6A1B6B13F0020F0DD00F4BDB6A002B56
:1002600009DA4BF6AB6100F08DF920B14FF0004296
:10027000094BDA620CE0094800F0AEF8CDF80080D6
:100280003B4632462946204600F004F900BEFEE710
:1002900002B0BDE8F08100BF00ED00E09425000849
:1002A00000BEFEE71EF0040F0CBFEFF30880EFF373
:1002B00009807146244A10472DE9F04182B0044676
:1002C0008846084B5E6B9F6B9D6A074800F084F878
:1002D000CDF800803B4632462946204600F0DAF849
:1002E00000BEFEE700ED00E0A42500081EF0040FAC
:1002F0000CBFEFF30880EFF309807146134A1047F3
:100300002DE9F04182B004468846084B5E6B9F6B36
:100310009D6A074800F060F8CDF800803B46324601
:100320002946204600F0B6F800BEFEE700ED00E0EA
:10033000B025000800BEFEE700BEFEE700BEFEE7F7
:100340007047000041020008B902000801030008DC
:0403500000BEFEE706
:10035400A4260008000000208C000020A426000829
:1003640000000000000000008C000020F0030020CA
:08037400000000000000000081
:10038000FEE700BF08B50D4B1B6813B90C4A0B4BB9
:100390001A600A4B1A68C31C23F00303134409496B
:1003A0008B4206D901F0FAFB0C2303604FF0FF30BB
:1003B00008BD02490B60104608BD00BF9000002038
:1003C000F0030020004C002001230360014B0B6070
:1003D000704700BF040000200FB400B583B004AB29
:1003E00053F8042B01938021064801F02DFC0028CE
:1003F00003DD0146034800F039F803B05DF804EB73
:1004000004B07047980000202DE9F04385B0044601
:100410000F46435613BB042528462146ABBE04466F
:100420001FE03546102E28BF1025002306E014F9E2
:10043000011B04AA1A4402F8101C0133AB42F6D384
:1004400004AA1344002203F8102CE9464FF00408D4
:1004500040464946ABBE8046761B00E00E46002E65
:10046000DFD1384605B0BDE8F08300BF08B5FFF71F
:10047000CBFF08BD08B500F0FBF8024B024A9A60BA
:1004800008BD00BF00ED00E00000000808B500F066
:1004900017F908BDF8B504460D4617461E4626480E
:1004A000FFF79AFF21682548FFF796FF6168244807
:1004B000FFF792FFA1682348FFF78EFFE16822480B
:1004C000FFF78AFF21692148FFF786FF616920480D
:1004D000FFF782FFA1691F48FFF77EFFE1691E4811
:1004E000FFF77AFF1D48FFF777FF29461C48FFF703
:1004F00073FF1C4CE16A1C48FFF76EFF216B1B4821
:10050000FFF76AFFE16B1A48FFF766FF15F0800FEF
:1005100003D039461748FFF75FFF15F4004F03D0AB
:1005200031461548FFF758FF1448FFF755FF069965
:100530001348FFF751FFF8BD78240008882400080D
:1005400098240008A8240008B8240008C82400083B
:10055000D8240008E8240008F8240008082500082A
:100560001425000800ED00E02425000834250008CB
:100570004425000854250008642500087425000857
:100580007C25000883691A888A4207D10268033AE9
:10059000012A05D80233836101207047002070478B
:1005A0000020704782B00023019300932C4A136807
:1005B00043F4803313602A4B1B6803F40033009329
:1005C000019B01330193009B1BB9019BB3F5A06F05
:1005D000F1D1234B1B6813F4003F02D00123009399
:1005E00001E000230093009B012B36D11D4B1A68BC
:1005F00042F010021A601A6822F003021A601A68A8
:1006000042F002021A60A3F580535A685A605A6891
:100610005A605A6842F480625A605A6822F47C1226
:100620005A605A6842F4E8125A601A6842F08072BE
:100630001A600B4B1B6813F0007FFAD0084B5A6806
:1006400022F003025A605A6842F002025A60044BD8
:100650005B6803F00C03082BF9D102B0704700BFB0
:10066000001002400020024008B5FFF79BFF08BDC4
:1006700008B5104B1A6842F001021A6059680E4A18
:100680000A405A601A6822F0847222F480321A609A
:100690001A6822F480221A605A6822F4FE025A6014
:1006A0004FF41F029A60FFF7DFFF4FF00062034B29
:1006B0009A6008BD001002400000FFF800ED00E065
:1006C0001F4B5B6803F00C03042B06D0082B08D0EB
:1006D0003BBB1C4A1C4B1A6026E01A4A1A4B1A6094
:1006E00022E0174A53685268C3F38343023312F47B
:1006F000803F05D1154A02FB03F3134A136013E050
:100700000F4A526812F4003F05D0104A02FB03F36F
:100710000D4A136008E00B4A02FB03F30A4A136018
:1007200002E0084A084B1A60054B5B68C3F30313E9
:10073000074AD35CDAB204490B68D3400B607047B8
:100740000010024000127A001C00002000093D0049
:100750000C000020054B064A1A6000225A60054929
:100760009960DA60044919615A6170475C0200209F
:100770001C260008682600084426000810B5002240
:10078000134B1A601FE0134A02EB0312526882B93E
:10079000104A02EB0312D2685AB90E4C1B01E358FF
:1007A0001B681B6898470A4B1B6804EB0314A3687B
:1007B000636007480368074A02EB03125168013976
:1007C000516001330360024B1B68022BDBD910BD63
:1007D000480100201801002008B5044A13780133AD
:1007E00013700348FFF7F8FD08BD00BF7402002036
:1007F000C025000838B500F0F1F9154CA4FB003411
:10080000A40C00F00DF9214641F2883000F024F9E3
:10081000104800F029F9FFF79DFF002314E00E4A6D
:1008200002EBC3010D4D1C012819295149680C4CDC
:10083000A4FB01518908416052F833205268A4FB9F
:100840000212920882600133022BE8D938BD00BF42
:1008500083DE1B43D90700085C020020180100203A
:10086000CDCCCCCC08B500F0E9F8054B1B78002BBB
:10087000FBD00022024B1A70FFF780FFF5E700BFA4
:10088000740200200068C0F3801070470068C0F355
:10089000C01070470068C0F340107047C36823F071
:1008A00080031943C1607047C36823F020031943D4
:1008B000C1607047C36823F040031943C1607047AB
:1008C00008B5426942F0C0024261026822F040026B
:1008D00002604021FFF7EEFF08BD00BFC36823F4AC
:1008E00000531943C1607047C36823F008031943DC
:1008F000C1607047C36823F004031943C1607047A7
:1009000038B504460D464FF40051FFF7E7FF0821C4
:100910002046FFF7E9FF04212046FFF7EBFFE368DD
:1009200023F4B053E360236923F440532361054B60
:10093000A3FB0535AD0AA5605C23034A1373034A84
:10094000137338BDB5814E1B4C0100206801002097
:1009500010B52948FFF796FF68B15C22274B1A7043
:10096000254A136823F040031360254B1B68002BB6
:1009700041D0984710BD2048FFF78CFFD0B1214AE5
:10098000116893681C484068C854013393605268EA
:10099000934230D11B4C5C23237300211648FFF790
:1009A00083FF236903B19847164B5B691BB3124859
:1009B000984710BD1048FFF769FFE0B1124B9A68E5
:1009C0005B689A4208D2104B1968895C0A4A5160E8
:1009D0009A6801329A6010BD0B4C5C23237300218E
:1009E0000548FFF75BFF236903B19847064B5B6936
:1009F0000BB10148984710BD00380140200000208D
:100A000064010020680100204C01002018B1034A55
:100A10001060012070470020704700BF6401002073
:100A2000054A136823F0805323F0020343F00203C6
:100A300013600120704700BF10E000E0054A136812
:100A400023F0805323F0010343F0010313600120DE
:100A5000704700BF10E000E0C90800FB01F0014B47
:100A60001860704714E000E018B1034A10600120DC
:100A700070470020704700BF8001002008B5024B7E
:100A80001B6803B1984708BD80010020034B5B68D9
:100A900003F00C0303700120704700BF00100240F8
:100AA000034A536823F00303184350600120704742
:100AB0000010024010F0005F14D0FE2909D0FF2979
:100AC0003FD1244B5A6920F0005010435861012057
:100AD0007047204A536920F0005023EA000050611B
:100AE00001207047002814DAFE2909D0FF292AD1F5
:100AF000184BDA6920F000401043D861012070479C
:100B0000144AD36920F0004023EA0000D06101209C
:100B1000704710F0804F18D0FE2909D0FF2916D158
:100B20000C4B9A6920F08040104398610120704777
:100B3000084A936920F0804023EA00009061012078
:100B40007047002070470020704700207047002049
:100B5000704700BF0010024000B583B00DF10700E0
:100B6000FFF794FF9DF8073053B3042B06D1184BC1
:100B70001B6813F4802F25D0002026E0082B23D1FA
:100B8000134B5B6813F4803F0ED0114B1B6813F4BA
:100B9000802F01D0002300E00E4B0D4A526812F462
:100BA000003F02D05B0800E00B4B094A5068C0F3DD
:100BB00083400230102800D9102003FB00F004E02D
:100BC000044802E0034800E0002003B05DF804FBA5
:100BD0000010024000127A0000093D0008B5FFF73E
:100BE000BBFF204B5B6803F0F003802B01D1400872
:100BF00008BD1C4B5B6803F0F003902B01D180080B
:100C000008BD184B5B6803F0F003A02B01D1C008AE
:100C100008BD144B5B6803F0F003B02B01D1000951
:100C200008BD104B5B6803F0F003C02B01D18009B5
:100C300008BD0C4B5B6803F0F003D02B01D1C00959
:100C400008BD084B5B6803F0F003E02B01D1000AFC
:100C500008BD044B5B6803F0F003F02B00D1400AA1
:100C600008BD00BF0010024008B5FFF7B7FF084BF2
:100C70005B6813F4005F0AD0054B5B68C3F3C223C3
:100C8000043B022202FA03F3DBB2B0FBF3F008BD2F
:100C900000100240F0280DD810B44409074951F85B
:100CA000242000F01F03012000FA03F3134341F84E
:100CB000243001E00020704710BC704700E100E0E4
:100CC000044B1B688000013023FA00F000F00100A3
:100CD000704700BF00000240044B1B6880000230D8
:100CE00023FA00F000F00100704700BF000002404E
:100CF000044B1B688000033023FA00F000F0010071
:100D0000704700BF0000024004494B68800001307A
:100D1000012202FA00F003434B60704700000240DA
:100D200004494B6880000230012202FA00F00343BC
:100D30004B6070470000024004494B68800003305C
:100D4000012202FA00F003434B60704700000240AA
:100D500008B5FF210C48FFF7ADFE0B20FFF79AFF07
:100D60000C20FFF797FF0D20FFF794FF0E20FFF7F1
:100D700091FF0F20FFF78EFF1020FFF78BFF112050
:100D8000FFF788FF08BD00BF0100002010B400EB92
:100D90008002930003F1804303F500339B6823F442
:100DA000405323F00E0343F00202062801D9002429
:100DB00000E0012400EB8003990001F1804303F57A
:100DC00000339A60204610BC704700BF284A125C6E
:100DD000002A47D10346274A125C002A44D1F0B4C6
:100DE0002220234AD05403EB8300820002F1804288
:100DF00002F50032946824F49F4020F071000C68E2
:100E00008A681443CA6814430A6914434A6922432E
:100E100040EA020414F4804F08D14A681443202A9F
:100E200009D12320134AD054012007E04A68202A20
:100E300003D0012002E0012000E000200E4D9E00C2
:100E4000F718BA0017462A4494608C69D460CC69BC
:100E50001461096A5161916841F001013A462A44DE
:100E6000916003E00020704700207047F0BC70479D
:100E7000840100208C0100200000024021B1034ABF
:100E800042F82010012070470020704778020020AF
:100E900008B50020FFF714FF48B10020104B187070
:100EA000FFF732FF0F4B1B68C3B1984708BD002006
:100EB000FFF712FF38B10020FFF732FF094BDB6963
:100EC00063B1984708BD0020FFF712FF30B1002042
:100ED000FFF732FF034B9B6B03B1984708BD00BF80
:100EE000840100207802002008B50120FFF7E8FE09
:100EF00050B10022104B5A700120FFF705FF0F4B35
:100F00005B68C3B1984708BD0120FFF7E5FE38B123
:100F10000120FFF705FF094B1B6A63B1984708BD25
:100F20000120FFF7E5FE30B10120FFF705FF034B7D
:100F3000DB6B03B1984708BD8401002078020020D4
:100F400008B50220FFF7BCFE50B10022104B9A708A
:100F50000220FFF7D9FE0F4B9B68C3B1984708BD2D
:100F60000220FFF7B9FE38B10220FFF7D9FE094B86
:100F70005B6A63B1984708BD0220FFF7B9FE30B144
:100F80000220FFF7D9FE034B1B6C03B1984708BD45
:100F9000840100207802002008B50320FFF790FEAE
:100FA00050B10022104BDA700320FFF7ADFE0F4B5B
:100FB000DB68C3B1984708BD0320FFF78DFE38B149
:100FC0000320FFF7ADFE094B9B6A63B1984708BD4C
:100FD0000320FFF78DFE30B10320FFF7ADFE034B7A
:100FE0005B6C03B1984708BD8401002078020020A3
:100FF00008B50420FFF764FE50B10022104B1A71AF
:101000000420FFF781FE0F4B1B69C3B1984708BD51
:101010000420FFF761FE38B10420FFF781FE094B81
:10102000DB6A63B1984708BD0420FFF761FE30B169
:101030000420FFF781FE034B9B6C03B1984708BD6A
:10104000840100207802002008B50520FFF738FE53
:1010500050B10022104B5A710520FFF755FE0F4B7F
:101060005B69C3B1984708BD0520FFF735FE38B16D
:101070000520FFF755FE094B1B6B63B1984708BD70
:101080000520FFF735FE30B10520FFF755FE034B75
:10109000DB6C03B1984708BD840100207802002072
:1010A00008B50620FFF70CFE50B10022104B9A71D4
:1010B0000620FFF729FE0F4B9B69C3B1984708BD77
:1010C0000620FFF709FE38B10620FFF729FE094B7D
:1010D0005B6B63B1984708BD0620FFF709FE30B18E
:1010E0000620FFF729FE034B1B6D03B1984708BD8F
:1010F000840100207802002030B4422824D0432804
:1011000043D0412854D107290CD889000F2303FA72
:1011100001F0284C236823EA000302FA01F1194385
:10112000216045E00F2943D8A1F10805EDB2AC00DC
:101130000F2303FA04F12048036823EA010302FAAB
:1011400004F41C43046033E007290CD889000F2302
:1011500003FA01F0194C236823EA000302FA01F1B3
:101160001943216024E00F2922D8A1F10805EDB22E
:10117000A8000F2303FA00F1114C236823EA0103AE
:1011800002FA00F01843206012E0A1F10D03DBB277
:10119000022B0DD8A1F10803DBB29B000F249C4069
:1011A0000848016821EA040402FA03F121430160BE
:1011B00030BC70470008014004080140000C0140A9
:1011C000040C014004100140422816D0432827D0C7
:1011D000412837D1012A07D1012303FA01F11A4B23
:1011E0001A68114319607047012303FA01F1164A86
:1011F000136823EA010313607047012A07D1012312
:1012000003FA01F1114B1A68114319607047012369
:1012100003FA01F10D4A136823EA010313607047D2
:10122000012A07D1012303FA01F1094B1A6811437E
:1012300019607047012303FA01F1054A136823EA94
:1012400001031360704700BF0C0801400C0C014003
:101250000C10014042280AD043280FD0412813D156
:101260000A4B1A6822FA01F303F001030CE0084B61
:101270001A6822FA01F303F0010305E0054B1A682E
:1012800022FA01F303F001031846704708080140F1
:10129000080C0140081001402DE9F04F83B00021F7
:1012A00051E0D0E9024500914FEA810ECEF12008CD
:1012B000AEF1200C24FA0EF205FA08F842EA080210
:1012C00025FA0CFC42EA0C0202F00C084FF000096F
:1012D000B9F1000F08BFB8F10C0F26D14FF00F0C79
:1012E000AEF12009CEF120080CFA09FB2CFA08F81F
:1012F0004BEA080B0CFA0EFA24EA0A0425EA0B055D
:101300004FF0080CCEF120080CFA09F72CFA08F877
:1013100047EA08070CFA0EF634433D43C0E902459C
:10132000056901248C402C610BE002F008040025C3
:101330002C4306D0056901950124009DAC40019D18
:101340006C610131C9B20F29ABD90169D0E90045FF
:10135000D1E9002322402B40C1E900230169D0E9F3
:101360000245D1E9002322432B43C1E90023012098
:1013700003B0BDE8F08F00BF034628B1002018700D
:1013800059705A6001207047002070470078B0FA09
:1013900080F04009704700BF02784078824214BF55
:1013A00000200120704700BF10B584B004AC04E9F0
:1013B0000E0098B10446FFF7EFFF88B96168227804
:1013C00002EB420293000B4404AA12E9070083E8EF
:1013D0000700237801332370012002E0002000E0A1
:1013E000002004B010BD00BF18B338B5054611B3D6
:1013F0000C46FFF7CBFF00BB6B6893E8070084E85F
:1014000007002B78013B2B7000230DE0696803EB8C
:10141000430294000C44013303EB430082000A446E
:1014200007CA84E80700DBB22A789342EED3012092
:1014300038BD00207047002038BD002038BD00BFF7
:10144000074B0A221A705A70064959609960D96090
:10145000054B1A705A70054A5A609A60DA607047F4
:10146000CC020020EC020020DC02002064030020FB
:1014700070B586B00646FF214FF04020FFF71AFBFB
:10148000FF210D48FFF716FB6C460C4D0FCD0FC426
:1014900095E8030084E803006846FFF7FDFE252079
:1014A000FFF7F8FBFFF7E0FB01463046FFF728FAAD
:1014B000FFF7C6FF06B070BD04000040C825000855
:1014C00010B504460320FFF761FC0420FFF75EFC23
:1014D0002046FFF7F5F910BD10B58AB00F4C2478FF
:1014E0005C2C18D118460D240C4B1C701023019352
:1014F000002305930693029303938023049307929A
:10150000074B08930991FFF781FA01A90320FFF720
:101510005DFC012000E000200AB010BD200000208A
:101520000438014010B58AB0002001900290039069
:1015300080240494059006900792064A0892099127
:1015400019460420FFF79AFC01A90420FFF73EFC8E
:101550000AB010BD0438014038B500242FE02546FC
:101560001849630023449A008B18895C1879FFF7A7
:1015700071FE154B1B5D984204D1144A135D013373
:10158000135502E00022114B1A55104B5B5D042BE2
:1015900011D105EB450293000A4A13449B680C2BBA
:1015A00004D180F001030A4A535501E0084B585515
:1015B0000022064B5A55044B58550134E4B2042C12
:1015C000CDD938BDE02500089C0100209401002001
:1015D000DC03002038B500242CE0254604EB44024F
:1015E0009300164A13449B680C2B0AD110466300E3
:1015F0002344990053180122415C1879FFF7E4FD58
:101600000BE0082B09D10D486300234499004318CF
:101610000022415C1879FFF7D7FD08486A0051198C
:101620008B00194603440822415C1879FFF764FDDA
:101630000134E4B2042CD0D938BD00BFE025000845
:10164000014B185C704700BFDC03002010B5044656
:1016500000F0010207214120FFF7B6FDC4F340026C
:1016600006214120FFF7B0FDC4F38002052141208F
:10167000FFF7AAFDC4F3C00204214120FFF7A4FD37
:10168000C4F3001203214120FFF79EFDC4F3401272
:1016900002214120FFF798FDC4F38012012141206F
:1016A000FFF792FDE20900214120FFF78DFD10BDFB
:1016B00008B500220C214220FFF786FD00220D21F3
:1016C0004220FFF781FD0620FFF7C0FF01220E2117
:1016D0004220FFF779FD08BD08B500220C21422009
:1016E000FFF772FD00220D214220FFF76DFD012062
:1016F000FFF7ACFF01220E214220FFF765FD08BD78
:1017000008B500220C214220FFF75EFD00220D21CA
:101710004220FFF759FD0C20FFF798FF01220E2110
:101720004220FFF751FD08BD08B500220E214220DE
:10173000FFF74AFD08BD00BF08B500220C2142207A
:10174000FFF742FD00220D214220FFF73DFD38202A
:10175000FFF77CFF01220E214220FFF735FD08BD77
:1017600008B51A4B1B7843BB00220C214220FFF71F
:101770002BFD00220D214220FFF726FD144B5B7844
:1017800043B9134B98780F280ED880F08000FFF7EC
:101790005DFF09E0012B07D10D4B98780F2803D886
:1017A0004038C0B2FFF752FF01220E214220FFF75E
:1017B0000BFD0122054B1A7008BD00220E214220AC
:1017C000FFF702FD0222014B1A7008BD2100002024
:1017D0002802002008B5114B1B78ABB900220C2160
:1017E0004220FFF7F1FC00220D214220FFF7ECFC24
:1017F0000120FFF72BFF01220E214220FFF7E4FC1E
:101800000122064B1A7008BD00220E214220FFF76C
:10181000DBFC0222014B1A7008BD00BF2100002032
:1018200008B5184B1B78DBB901220C214220FFF7C9
:10183000CBFC00220D214220FFF7C6FC124B5A6858
:10184000197A124B1B785B1AD05CFFF7FFFE01225E
:101850000E214220FFF7B8FC01220A4B1A7008BD86
:1018600000220E214220FFF7AFFC0022054B1A7028
:10187000054A137A013BDBB2137213B90222014B02
:101880001A7008BD21000020280200203402002028
:1018900010B5084C2278084B53F82230984723782B
:1018A0000133DBB22370082B02D10122034B1A70E3
:1018B00010BD00BFAC01002024260008AD010020AF
:1018C00000B585B01E4B1B78002B30D01D48FFF7AC
:1018D0005DFD18B11C4B1B78022B2DD01A4B1B78C9
:1018E000022B17D10022184B1A7001A91548FFF7D7
:1018F0007BFD9DF80420154B1A709DF80C201A7280
:10190000029959609DF8051059709DF8061099705C
:101910000F4B1A700D4B1B7A13B90C4B1B785BB134
:101920000A4B1A780B4B53F82230984704E00A48C8
:10193000FEF752FDFFF7ACFF05B05DF804FB00BFFA
:10194000AD010020A4010020210000202802002079
:1019500034020020582600084C26000808B5012251
:101960000C214220FFF7C8FB01220D214220FFF786
:10197000C3FB01220E214220FFF7BEFB01220721FB
:101980004120FFF7B9FB012206214120FFF7B4FBFC
:10199000012205214120FFF7AFFB01220421412054
:1019A000FFF7AAFB012203214120FFF7A5FB01223B
:1019B00002214120FFF7A0FB012211464120FFF741
:1019C0009BFB012200214120FFF796FB024A0A21DE
:1019D0000248FFF7D1FC08BDB0010020A40100209F
:1019E00000B585B002238DF804308DF806108DF80F
:1019F000050004AB13E90E000248FFF7D5FC05B063
:101A00005DF804FBA401002000B585B000238DF82B
:101A1000043002908DF80C3002E001338DF80C3068
:101A20009DF80C30C25C0AB10F2BF6D904AB13E958
:101A30000E000348FFF7B8FC05B05DF804FB00BFDB
:101A4000A40100200122014B1A707047E803002016
:101A500008B50020FFF7F4FD01280AD1074B1B78D9
:101A600053B90122054B1A70054A136801331360FC
:101A700008BD0022014B1A7008BD00BF4D020020B6
:101A8000E403002008B5084B1B6808490B701A0ACC
:101A90004A701A0C8A701B0ECB7000230422044873
:101AA000FFF71AFD08BD00BFE40300204802002034
:101AB0000038014038B5134B1B7833B9124B042260
:101AC00012491348FFF72EFD38BD104A1378547899
:101AD00003EB0423947803EB0443D47803EB04640E
:101AE00005210020FFF77CFF0A4D22460A492846BF
:101AF00000F05AF82846FFF787FF0022014B1A70C2
:101B000038BD00BFE8030020451A00084402002049
:101B100000380140380200206426000808B5FFF7AD
:101B200097FFFFF7C7FF074B1B78022B04D100225A
:101B3000044B1A70FFF7A6FF024A137801331370A3
:101B400008BD00BF4C02002008B5FF210F48FEF77A
:101B5000B1FFFF210E48FEF7ADFFFF210D48FEF754
:101B6000A9FF0120FEF79CFF0B4C2046FFF780FCED
:101B7000FFF730FDFFF7F2FEFFF7EAF82046FFF728
:101B80009FFCFEF737FEFEF76DFEFEE710000040FB
:101B9000040000400800004000380140014B186874
:101BA000704700BF840000200EB400B54FF40271EE
:101BB0009CB0ADF814106FF00041049107914FF6FE
:101BC000FF711DAB02900690084853F8042BADF846
:101BD0001610006802A9019300F09EF8029B0022F3
:101BE0001A701CB05DF804EB03B07047840000204D
:101BF00030B5141E05469BB0184604DA8B232B60C3
:101C00004FF0FF301DE04FF40273ADF80C300CBF05
:101C1000234604F1FF33029305934FF6FF730091BF
:101C20000491ADF80E3002461E9B6946284600F02E
:101C300073F8431CBCBF8B232B6014B1009B0022A4
:101C40001A701BB030BD000007B5009313460A465A
:101C5000014603480068FFF7CBFF03B05DF804FBC3
:101C6000840000202DE9F0478E6882469E420C4693
:101C7000914698463ED88A8912F4906F3AD02568EA
:101C8000096902236F1A656905EB450595FBF3F5B4
:101C90007B1C43449D4238BF1D4653050FD5294642
:101CA00000F04AFB064698B13A46216900F0D2FAA4
:101CB000A38923F4906343F08003A38113E02A46B1
:101CC00000F098FB064670B92169504600F0E8FA2A
:101CD0000C23CAF80030A3894FF0FF3043F04003D3
:101CE000A381BDE8F08726613E44266046466561D3
:101CF000ED1BA560464528BF46464946324620684A
:101D000000F0B3FAA36800209B1BA36023681E4465
:101D10002660BDE8F08700002DE9F04F9DB00393E9
:101D20008B8980461C060D4616460DD50B695BB99E
:101D3000402100F001FB2860286118B90C23C8F885
:101D40000030CDE040236B610023099320238DF800
:101D50002930DFF89CB130238DF82A3037463C46D5
:101D600014F8013B1BB9B7EB060910D003E0252B93
:101D7000F9D02746F3E74B46324629464046FFF75F
:101D800071FF013000F0A780099B4B4409933B7819
:101D9000002B00F0A08000234FF0FF320493079344
:101DA000059206938DF853301A9301260522217867
:101DB0004E4800F041FA671C049B38B14B4A3C4640
:101DC000801A06FA00F018430490EFE7D90644BFE2
:101DD00020228DF853201A0744BF2B228DF8532060
:101DE00022782A2A03D0079A00210A200BE0039ABE
:101DF000111D12680391002A10DA524243F00200CA
:101E0000079204900BE027463B780134303B092BC6
:101E100003D800FB02320121F5E701B107923B78BC
:101E20002E2B1ED17B782A2B0AD1039B02371A1D39
:101E30001B680392002BB8BF4FF0FF33059310E0EF
:101E4000002319460593781C0A2407463A78013086
:101E5000303A092A03D804FB01210123F5E703B135
:101E6000059103223978224800F0E6F940B1402379
:101E7000CBEB000003FA00F0049B013718430490F9
:101E8000397806221B487E1C8DF8281000F0D4F902
:101E900088B1194B33B9039B073323F00703083389
:101EA000039314E003AB00932A46144B04A9404665
:101EB000AFF3008007E003AB00932A460F4B04A961
:101EC000404600F093F8B0F1FF3F824603D0099BF3
:101ED0005344099342E7AB895B0601D4099801E0BA
:101EE0004FF0FF301DB0BDE8F08F00BF7026000836
:101EF000762600087A26000800000000651C00080D
:101F00002DE9F04791461F460A698B6806469342C1
:101F1000B8BF1346C9F8003091F843200C46DDF8ED
:101F2000208012B10133C9F800302368990642BFFE
:101F3000D9F800300233C9F80030256815F00605DD
:101F400010D104F1190A07E0012352463946304600
:101F5000C04701301AD00135E368D9F800209B1A38
:101F60009D42F1DB94F843302268003318BF01230F
:101F700092060FD5E118302081F843005A1C94F8DE
:101F800045102244023382F8431003E04FF0FF3043
:101F9000BDE8F08704F1430239463046C0470130BE
:101FA000F4D02268D9F80050E36802F00602042A4F
:101FB00008BF5D1B2269A3680CBF25EAE5750025F3
:101FC0009342C4BF9B1AED184FF000091A344D45D7
:101FD00009D00123224639463046C0470130D5D0CA
:101FE00009F10109F3E70020BDE8F0872DE9F0438E
:101FF00017460A7E85B06E2A984606460C460C9B0C
:1020000001F1430E00F0AE8011D8632A22D009D826
:10201000002A00F0BB80582A40F0CA8081F8452091
:10202000834955E0642A1ED0692A1CD0C0E0732A77
:1020300000F0B08009D86F2A2ED0702A40F0B88006
:102040000A6842F020020A603EE0752A24D0782A0D
:102050003AD0ADE01A6801F14205111D196013680C
:1020600084F84230A8E021681A6811F0800F02D08D
:10207000111D196008E011F0400F02F10401196010
:1020800002D0B2F9003000E01368002B3CDA2D22B8
:102090005B4284F8432037E021681A6811F0800F12
:1020A00002D0111D196007E011F0400F02F1040188
:1020B000196001D0138800E01368227E5C496F2A02
:1020C00014BF0A2208221BE078225A4984F84520CE
:1020D0002268186812F0800F00F104051D6003D11A
:1020E000550601D5038800E00368D00744BF42F0DD
:1020F000200222601BB9226822F0200222601022F6
:10210000002084F8430001E049490A226568002D57
:10211000A56008DB206820F0040020602BB9002DAA
:102120007DD175460CE0002B79D07546B3FBF2F0FB
:1021300002FB1033CB5C05F8013D03460028F5D1C6
:10214000082A0BD12368DA0708D5236962689A4206
:10215000DEBF302305F8013C05F1FF35C5EB0E036A
:1021600023612EE008681A6810F0800F496903D0D7
:10217000101D1860136808E010F0400F02F1040011
:102180001860136801D0198000E0196000232361F2
:10219000754616E01A68111D1960156800216268FD
:1021A000284600F049F808B1401B6060636804E00D
:1021B00004F1420584F8422001232361002384F8BE
:1021C0004330CDF800803B4603AA21463046FFF756
:1021D00097FE013002D14FF0FF3026E023692A46F6
:1021E00039463046C0470130F5D023689B0710D5EB
:1021F000002504F1190907E001234A463946304613
:10220000C0470130E7D00135E368039A9B1A9D422D
:10221000F2DBE068039B9842B8BF184605E00B78F4
:1022200004F1420584F842308AE705B0BDE8F08346
:10223000812600089226000810B5C9B202449042D7
:10224000034605D01C7801308C42F8D1184610BDE9
:10225000002010BD10B5431E0A44914204D011F86D
:10226000014B03F8014FF8E710BD884210B501EBB0
:10227000020301D8421E0BE09842FBD28118D21A09
:10228000D34204D013F8014D01F8014DF8E710BD19
:10229000994204D011F8014B02F8014FF8E710BD44
:1022A00038B50546002944D051F8043C0C1F002BDA
:1022B000B8BFE41800F0D4F81E4A1368114613B9E9
:1022C0006360146030E0A3420DD92268A0188342F5
:1022D00001BF18685B681218226063600C6023E01D
:1022E000A24203D813465A68002AF9D1186819186F
:1022F000A1420BD12168014458188242196013D1C0
:1023000010685268014419605A600DE002D90C232C
:102310002B6009E021686018824201BF1068526892
:102320000918216062605C602846BDE8384000F012
:1023300098B838BD5402002070B5CD1C25F00305B7
:1023400008350C2D38BF0C25002D064601DBA942AF
:1023500002D90C23336046E000F082F8234B1C685E
:102360001A462146A1B10B685B1B0ED40B2B03D977
:102370000B60CC18CD501EE08C420BBF63684B68DD
:102380001360636018BF0C4615E00C464968E9E726
:10239000174C23681BB9304600F052F820602946DC
:1023A000304600F04DF8431C18D0C41C24F0030440
:1023B000A0420DD12560304600F053F804F10B0027
:1023C000231D20F00700C31A0ED05A42E25070BD00
:1023D000211A304600F034F80130EBD10C23336081
:1023E000304600F03EF8002070BD00BF54020020CF
:1023F00050020020F8B5074615460E4621B9114691
:10240000BDE8F840FFF798BF1AB9FFF749FF284623
:10241000F8BD00F027F885420ED929463846FFF767
:102420008BFF044650B131462A46FFF713FF314671
:102430003846FFF735FF01E03046F8BD2046F8BDCD
:1024400038B5064C0023054608462360FDF79AFF81
:10245000431C02D1236803B12B6038BD5802002011
:102460007047704751F8040C0028BEBF091851F896
:10247000043CC01804387047537461636B20667263
:10248000616D653A0A000000205230203D20202571
:102490003038580A00000000205231203D2020250D
:1024A0003038580A00000000205232203D202025FC
:1024B0003038580A00000000205233203D202025EB
:1024C0003038580A0000000020523132203D2025CB
:1024D0003038580A00000000204C52203D202025B2
:1024E0003038580A00000000205043203D202025AD
:1024F0003038580A0000000020505352203D20255B
:102500003038580A000000004653522F4641523AD4
:102510000A0000002043465352203D202025303839
:10252000580A00002048465352203D2020253038CC
:10253000580A00002044465352203D2020253038C0
:10254000580A00002041465352203D2020253038B3
:10255000580A0000204D4D464152203D202530387C
:10256000580A00002042464152203D2020253038A4
:10257000580A00004D6973630A000000204C522F76
:102580004558435F52455455524E3D2025303858EA
:102590000A0000005B486172644661756C745D0AF4
:1025A000000000005B4275734661756C745D0A0043
:1025B0005B55736167654661756C745D0A00000068
:1025C00068656C6C6F0A0000FFFFFFFF0FF0FFFFF4
:1025D000000000009004000000080140000000001E
:1025E0000B000000420000000C0000000000000092
:1025F00000000000000000000000000000000000DB
:1026000000000000000000000000000000000000CA
:102610000000000000000000000000005915000844
:1026200005000000391700082917000801170008E5
:1026300029170008D916000829170008B116000844
:1026400029170008C1180008050000004C43442069
:10265000696E69740000000021180008D517000891
:1026600061170008256C75001D1B00081E00000086
:10267000232D302B2000686C4C006566674546476B
:1026800000303132333435363738394142434445EE
:10269000460030313233343536373839616263645D
:0326A0006566006C
:1026A400785634129400002000000000000000005E
:1026B40000000000010203040607080900A24A04FE
:1026C4005C02FFFF000000000000000000000000AA
:1026D40000000000000000000000000000000000F6
:1026E40000000000000000000000000000000000E6
:1026F40000000000000000000000000000000000D6
:1027040000000000000000000000000000000000C5
:1027140000000000000000000000000000000000B5
:0C272400000000002400002032547698D1
:040000050800010DE1
:00000001FF
