:020000040800F2
:100000000050002021020008270200082B020008EF
:100010009D020008A1020008E9020008000000009B
:100020000000000000000000000000003103000894
:100030003503000800000000390300089D10000887
:100040004D0300084D0300084D0300084D03000850
:100050004D0300084D0300084D0300084D03000840
:100060004D0300084D0300084D0300084D03000830
:100070004D0300084D0300084D0300084D03000820
:100080004D0300084D0300084D0300084D03000810
:100090004D0300084D0300084D0300084D03000800
:1000A0004D0300084D0300084D0300084D030008F0
:1000B0004D0300084D0300084D0300084D030008E0
:1000C0004D0300084D0300084D0300084D030008D0
:1000D0004D030008C51200084D0300084D03000839
:1000E0004D0300084D0300084D0300080000000008
:1000F0000000000000000000000000000000000000
:1001000000000000000000005FF808F100B583B0B7
:1001100000F0AAF9304B314A1360314A1360314B79
:10012000314A32498B4204D21168196004330432D7
:10013000F7E72A4B1A682E4B9A4200D0FEE7284B6D
:100140001A682C4B9A42F9D1234B2B4A13602B4A45
:1001500013602B4B02E000221A600433294A9342B9
:10016000F9D3254B1B6813B9244B1B6803B1FEE779
:1001700000F086F9694601A800F022F9224C234BD1
:10018000E41AA4100025AC4214DC214C214BE41AE3
:10019000A4100025AC4213DC0099019801F0E8F9A5
:1001A00005461D4C1D4BE41AA410002C0EDC2846FD
:1001B00000F0E2F8154B53F8253098470135E2E797
:1001C000144B53F8253098470135E3E7013C134BB6
:1001D00053F824309847E8E7BABADECA0000002096
:1001E0008800002000000020A82000088C000020CB
:1001F00078563412325476988C000020D4020020B5
:100200008C000020D8020020780300087803000842
:1002100078030008780300087803000878030008D2
:1002200008B5FFF773FF00BEFEE71EF0040F0CBF1A
:10023000EFF30880EFF309807146414A10472DE93A
:10024000F04182B004468846124B5E6B9F6B9D6AFC
:100250001B6B13F0020F03D00E4BDB6A002B0CDB81
:100260000D4800F0B5F8CDF800803B4632462946EF
:10027000204600F009F900BEFEE74BF6AB6100F046
:100280007DF90028ECD0034B4FF00042DA6202B057
:10029000BDE8F08100ED00E0901F000800BEFEE721
:1002A0001EF0040F0CBFEFF30880EFF309807146D6
:1002B000244A10472DE9F04182B004468846084B95
:1002C0005E6B9F6B9D6A074800F082F8CDF8008056
:1002D0003B4632462946204600F0D6F800BEFEE7EF
:1002E00000ED00E0A01F00081EF0040F0CBFEFF3AC
:1002F0000880EFF309807146134A10472DE9F04159
:1003000082B004468846084B5E6B9F6B9D6A074827
:1003100000F05EF8CDF800803B4632462946204684
:1003200000F0B2F800BEFEE700ED00E0AC1F0008F0
:1003300000BEFEE700BEFEE700BEFEE7704700001D
:100340003F020008B5020008FD02000800BEFEE7FB
:10035000A8200008000000208C000020A820000831
:1003600000000000000000008C000020D8020020E7
:08037000000000000000000085
:10037800FEE7000008B503460C4A12685AB10B4A5A
:100388001068033323F003030344094A934206D851
:10039800064A136008BD054A06491160EFE701F0F7
:1003A80035F90C2303604FF0FF30F3E7900000208D
:1003B800004C0020D802002001230360014B0B6091
:1003C800704700BF040000200FB400B583B004AB31
:1003D80053F8042B01938021064801F049F90028BD
:1003E80003DD0146034800F037F803B05DF804EB7D
:1003F80004B07047980000202DE9F04385B004460A
:100408000F4643560BB10E461EE0042528462146EA
:10041800ABBE0446384605B0BDE8F08314F9011BAD
:1004280004AA1A4402F8101C0133AB42F6D304AAFA
:100438001344002203F8102C4FF00408E946404604
:100448004946ABBE8046761B002EE3D03546102EBB
:1004580028BF10250023E8E708B5FFF7CDFF08BD42
:1004680008B500F0FDF8024A024B9A6008BD00BFCB
:100478000000000800ED00E008B500F019F908BD1B
:10048800F8B504460D4617461E462748FFF79CFF59
:1004980021682648FFF798FF61682548FFF794FF11
:1004A800A1682448FFF790FFE1682348FFF78CFF15
:1004B80021692248FFF788FF61692148FFF784FF17
:1004C800A1692048FFF780FFE1691F48FFF77CFF1B
:1004D8001E48FFF779FF29461D48FFF775FF1D4C99
:1004E800E16A1D48FFF770FF216B1C48FFF76CFF9E
:1004F800E16B1B48FFF768FF15F0800F0AD115F470
:10050800004F0CD11748FFF75FFF06991648FFF711
:100518005BFFF8BD39461548FFF756FFEFE7314650
:100528001348FFF751FFEDE7741E0008841E00080A
:10053800941E0008A41E0008B41E0008C41E00086B
:10054800D41E0008E41E0008F41E0008041F00085A
:10055800101F000800ED00E0201F0008301F0008F1
:10056800401F0008701F0008781F0008501F00086F
:10057800601F000883691A888A4201D000207047EA
:100588000268033A012A03D80233836101207047C5
:100598000020704782B00023019300932C4A13680F
:1005A80043F4803313602A4B1B6803F40033009331
:1005B800019B01330193009B1BB9019BB3F5A06F0D
:1005C800F1D1234B1B6813F4003F06D0012300939D
:1005D800009B012B04D002B0704700230093F7E77B
:1005E8001C4B1A6842F010021A601A6822F00302C3
:1005F8001A601A6842F002021A60A3F580535A681A
:100608005A605A685A605A6842F480625A605A6856
:1006180022F47C125A605A6842F4E8125A601A6846
:1006280042F080721A600A4B1B6813F0007FFAD000
:10063800074B5A6822F003025A605A6842F00202D5
:100648005A60034B5B6803F00C03082BF9D1C2E72F
:10065800001002400020024008B5FFF79BFF08BDCC
:1006680008B5104B1A6842F001021A6059680E4A20
:100678000A405A601A6822F0847222F480321A60A2
:100688001A6822F480221A605A6822F4FE025A601C
:100698004FF41F029A60FFF7DFFF044B4FF0006230
:1006A8009A6008BD001002400000FFF800ED00E06D
:1006B8001F4B5B6803F00C03042B15D0082B17D0D5
:1006C8001BB11C4B1C4A1A6002E01A4B1A4A1A60EA
:1006D800174B5B68C3F30313184AD35CDAB21549A6
:1006E8000B68D3400B607047124B134A1A60EFE750
:1006F8000F4A53685268C3F38343023312F4803FAE
:100708000AD00B4A526812F4003F0BD00C4A02FB85
:1007180003F3084A1360DBE7094A02FB03F3054ABF
:100728001360D5E7044A02FB03F3024A1360CFE7DC
:10073800001002401C00002000127A000C0000206B
:1007480000093D0010B4422825D0432843D0412851
:1007580001D010BC7047072910D90F29F9D8A1F189
:100768000800C0B280000F238340254C216821EA8D
:10077800030302FA00F119432160EAE789000F2315
:1007880003FA01F01F4C236823EA000302FA01F17F
:1007980019432160DDE7072910D90F29D9D8A1F11C
:1007A8000803DBB29B000F209840174C216821EA10
:1007B800000002FA03F101432160CAE789000F2310
:1007C80003FA01F0114C236823EA000302FA01F14D
:1007D80019432160BDE7A1F10D03DBB2022BB8D8A4
:1007E8000839C9B289000F2303FA01F0084C2368BD
:1007F80023EA000302FA01F119432160A9E700BFC7
:100808000408014000080140040C0140000C0140AC
:1008180004100140422817D0432828D0412800D08E
:100828007047012A08D0012303FA01F1194A136815
:1008380023EA010313607047012303FA01F1154A03
:1008480013680B4313607047012A08D0012303FA89
:1008580001F1114A136823EA010313607047012369
:1008680003FA01F10C4A13680B4313607047012A1D
:1008780008D0012303FA01F1084A136823EA0103A7
:100888001360CDE7012303FA01F1044A13680B430F
:10089800136070470C0801400C0C01400C1001401B
:1008A80042280BD043280FD0412801D000207047A0
:1008B800084B1868C84000F001007047064B1868DC
:1008C800C84000F001007047044B1868C84000F0A9
:1008D8000100704708080140080C01400810014059
:1008E8002DE9F04F83B0002127E04FF00F0EACF157
:1008F8002009CCF120080EFA09FB2EFA08F84BEA79
:10090800080B0EFA0CFA24EA0A0425EA0B054FF044
:10091800080ECCF120080EFA09F72EFA08F847EA73
:1009280008070EFA0CF634433D43C0E90245056951
:1009380001248C402C610131C9B20F2929D8D0E992
:10094800024500914FEA810CCCF12008ACF1200E51
:1009580024FA0CF205FA08F842EA080225FA0EFE13
:1009680042EA0E0202F00C084FF00009B9F1000F3C
:1009780008BFB8F10C0FB8D002F0080400252C43CA
:10098800D9D0056901950124009DAC40019D6C6199
:10099800D1E70169D0E90045D1E9002302EA04065C
:1009A80003EA0507C1E900670169D0E90245D1E911
:1009B800002342EA040643EA0507C1E9006701206B
:1009C80003B0BDE8F08F000008B5084B1B68052B85
:1009D80008DC074A52F823309847044A1368013361
:1009E800136008BD034B01221A70FAE71C010020AE
:1009F800BC1F00082101002008B500220721412062
:100A0800FFF708FF08BD08B5002207214120FFF7BE
:100A180001FF08BD08B5002207214120FFF7FAFEB3
:100A280008BD08B5002207214120FFF7F3FE08BDE5
:100A380010B5044600F001020B214120FFF7EAFE41
:100A4800C4F340020A214120FFF7E4FEC4F3800208
:100A580009214120FFF7DEFEC4F3C002082141202E
:100A6800FFF7D8FEC4F300120F214220FFF7D2FE91
:100A7800C4F340120E214220FFF7CCFEC4F38012CB
:100A88000D214220FFF7C6FEE2090C214220FFF7A4
:100A9800C1FE10BD08B5002205214120FFF7BAFEAE
:100AA800002206214120FFF7B5FE0120FFF7C0FF15
:100AB800012207214120FFF7ADFE08BD08B500223D
:100AC80005214120FFF7A6FE002206214120FFF75D
:100AD800A1FE0C20FFF7ACFF012207214120FFF700
:100AE80099FE08BD08B5002205214120FFF792FEB6
:100AF800002206214120FFF78DFE3820FFF798FFDE
:100B0800012207214120FFF785FE08BD10B50446E4
:100B1800012205214120FFF77DFE00220621412008
:100B2800FFF778FE2046FFF783FF012207214120C7
:100B3800FFF770FE10BD000008B5134B1B7813B10A
:100B4800012B16D008BD002205214120FFF762FEC7
:100B5800002206214120FFF75DFE0120FFF768FF14
:100B6800012207214120FFF755FE074B01221A7089
:100B7800E8E7002207214120FFF74CFE0023024A44
:100B88001370024A1370DDE71901002018010020D4
:100B980010B539B980F08004154B1B783BB1012B97
:100BA8001BD010BD0129F7D14038C4B2F4E70022A8
:100BB80005214120FFF72EFE002206214120FFF7E4
:100BC80029FE2046FFF734FF012207214120FFF7C5
:100BD80021FE074B01221A70E3E70022072141207A
:100BE800FFF718FE0023024A1370024A1370D8E771
:100BF8001A0100201801002008B50F4B1B78C05CB3
:100C0800A0B10E4B1B785BB1012B14D1FFF709FF84
:100C18000A4B00221A70084A1378013313700AE04D
:100C2800FFF774FF054B01221A7004E00023044A01
:100C38001370014A137008BD200100201B01002019
:100C48001801002008B507214120FFF729FE0E4BA7
:100C58001B78B3B10D4B1B78012B04D0022B06D0A7
:100C6800032B07D008BD0A48FFF7C6FFFAE7FFF7CE
:100C780063FFF7E7074B1978074B1878FFF788FFEA
:100C8800F0E7FFF7A1FEEDE72101002018010020A1
:100C980048010020440100205A010020F0280ED805
:100CA80010B44409074951F8242000F01F0301201B
:100CB80000FA03F3134341F8243010BC70470020B6
:100CC800704700BF00E100E0034B5B6803F00C03D2
:100CD80003700120704700BF00100240002801DBAC
:100CE8000020704749B1012910D1094A136820F042
:100CF80000401843106008467047054A136820F002
:100D0800004023EA0000106001207047002070476F
:100D180000100240034A536823F00303184350604D
:100D2800012070470010024010F0005F14D0FE2927
:100D380009D0FF293FD1244A536920F000501843B5
:100D4800506101207047204A536920F0005023EA7F
:100D5800000050610120704700280EDB10F0804F22
:100D68002DD0FE291ED0FF292BD1174A936920F0D8
:100D780080401843906101207047FE2909D0FF295F
:100D88001BD1114AD36920F000401843D0610120DB
:100D980070470D4AD36920F0004023EA0000D06173
:100DA80001207047084A936920F0804023EA000038
:100DB8009061012070470020704700207047002094
:100DC80070470020704700BF0010024000B583B094
:100DD8000DF10700FFF778FF9DF8073063B3042B88
:100DE80003D0082B08D0002027E0164B1B6813F40B
:100DF800802F25D0002020E0124B5B6813F4803F41
:100E08000ED0104B1B6813F4802F07D000200D4B19
:100E18005B6813F4003F04D0400802E00A48F6E794
:100E28000A48084B5B68C3F383430233102B00D98D
:100E3800102300FB03F000E0034803B05DF804FB57
:100E48000148FAE70010024000127A0000093D004C
:100E580008B5FFF7BBFF204B5B6803F0F003802B5E
:100E68002BD01D4B5B6803F0F003902B27D01A4B57
:100E78005B6803F0F003A02B23D0174B5B6803F0EB
:100E8800F003B02B1FD0144B5B6803F0F003C02BAA
:100E98001BD0114B5B6803F0F003D02B17D00E4B1F
:100EA8005B6803F0F003E02B13D00B4B5B6803F097
:100EB800F003F02B02D1400A00E0400808BD80088A
:100EC800FCE7C008FAE70009F8E78009F6E7C00977
:100ED800F4E7000AF2E700BF0010024008B5FFF788
:100EE800B7FF084B5B6813F4005F09D0054B5B68DC
:100EF800C3F3C2231A1F02239340DBB2B0FBF3F003
:100F080008BD00BF00100240024A13780133137075
:100F1800704700BF22010020184B00221A60174BAF
:100F28001B68022B29D810B50DE014480368144A31
:100F380002EB0312916801399160013303600F4B92
:100F48001B68022B18D80E4A02EB03129268002A7B
:100F5800EBD10B4A02EB0312D268002AE5D1084C08
:100F68001B01E3581B681B689847044B1B6804EB7C
:100F780003146368A360D8E710BD704724010020FC
:100F88005C01002070B500F049F8144800F078F8CA
:100F9800082141F2883000F063F8012800D070BDC4
:100FA8000F4B00221A6013E00E4A02EBC3040E4EE8
:100FB8001D017119745152F8332052680B4DA5FB6D
:100FC800025292084A6062688A600133044A1360D8
:100FD800034B1B68022BE7D9E1E700BF110F00089C
:100FE80024010020D41F00085C010020CDCCCCCC0B
:100FF80008B500F025F8012804D101221146412046
:10100800FFF708FC044B1B78002BFBD0024B002297
:101018001A70FFF781FFF5E722010020064B1A68D6
:1010280042F002021A601A6842F004021A600120B3
:10103800024B1870704700BF10E000E02C01002040
:10104800054B1878012801D000207047034A13681F
:1010580043F00103136070472C01002010E000E00A
:10106800054B1B78012B02D000231846704700FB64
:1010780001F0024A1060F8E72C01002014E000E0BB
:1010880018B1034A1060012070470020704700BF64
:101098002801002008B5024B1B6803B1984708BD1A
:1010A8002801002070B5002414E017481146831861
:1010B8000122415C1879FFF7ADFB134E6B005919FB
:1010C8008A001146B0180822715C0079FFF73AFBD4
:1010D8000134E4B2022C15D8254604EB44039A00E7
:1010E800094B13449B680C2BDFD0082BE5D106482D
:1010F80063002344990043180022415C1879FFF7E4
:1011080089FBDAE770BD00BFEC1F0008014B185CD3
:10111800704700BF8C01002038B51C491C48FFF7F8
:1011280053F900240FE01B4A135D013313551DE0EA
:1011380080F00103184A5355164B00225A55174B95
:1011480058550134E4B2022C1FD8254614496300CF
:1011580023449A008B18895C1879FFF7A1FB0F4B81
:101168001B5D8342DFD00B4B00221A55094B5B5D98
:10117800042BE4D105EB45039A00094B13449B6803
:101188000C2BD5D0044B5855D6E738BD1020000895
:1011980018200008300100208C01002034010020B4
:1011A800EC1F0008024B1868C0F3C010704700BF5E
:1011B80000380140024B1868C0F34010704700BF68
:1011C80000380140034AD36823F080031843D060F5
:1011D800704700BF00380140034AD36823F020035A
:1011E8001843D060704700BF0038014038B50C4C38
:1011F800247B5C2C01D0002038BD094D0D242C73B4
:10120800696028602A616B610023AB600278054B36
:101218005A600124AC608020FFF7D4FF2046EBE73A
:101228009001002000380140034AD36823F400539A
:101238001843D060704700BF00380140034AD368A4
:1012480023F008031843D060704700BF00380140FE
:10125800034AD36823F004031843D060704700BFE3
:101268000038014010B504464FF40050FFF7DCFF8A
:101278000820FFF7E3FF0420FFF7EAFF0B4BDA68CB
:1012880022F48052DA60DA6822F4C062DA601A69FD
:1012980022F440521A61064AA2FB0424A40A9C6064
:1012A8005C23044A1373044A137310BD00380140C9
:1012B800B5814E1B90010020A801002010B5FFF752
:1012C80079FFD8B11E4B58681E4B19689A68885424
:1012D8009A6801329A605B689A4200D010BD194C36
:1012E8005C2323730020FFF777FF236903B1984736
:1012F800144B5B69002BF1D09847EFE7FFF752FFDB
:101308000028EBD0104B9A685B689A4208D20E4BC3
:101318001968895C0A4A51609A6801329A60DDE767
:10132800094C5C2323730020FFF74CFF236903B1AA
:101338009847054B5B69002BD0D09847CEE700BF94
:1013480000380140A801002090010020074B0A2224
:101358001A705A70064959609960D960054B1A701D
:101368005A70054A5A609A60DA607047C0010020D6
:10137800E0010020D0010020580200204078B0FA97
:1013880080F04009704742780078824214BF0020FC
:101398000120704738B504460D46FFF7EFFFB0B996
:1013A800636895E8070083E8070061680C316160AD
:1013B800E068237803EB43039A000244914204D087
:1013C8006378013B6370012038BD6060F8E7002056
:1013D800FAE738B504460D46FFF7D5FFB0B9A3685C
:1013E80093E8070085E80700A1680C31A160E06870
:1013F800237803EB43039A000244914204D06378B4
:1014080001336370012038BDA060F8E70020FAE7D7
:1014180030B587B0FF214FF04020FFF785FCFF2152
:101428000C48FFF781FC6C460B4D0FCD0FC495E8B7
:10143800030084E803006846FFF752FA2520FFF707
:101448002DFCFFF74BFDFFF70DFFFFF77FFF07B000
:1014580030BD00BF0400004020200008F0B585B072
:1014680007460E4615460B4BFFF7C0FE044638B933
:1014780001978DF8086003950748FFF77FFF10B1C3
:10148800204605B0F0BD01A90348FFF783FF0124FA
:10149800F6E700BFA5140008C001002000B585B01C
:1014A8000848FFF770FF10B105B05DF804FB01A90B
:1014B8000448FFF78EFF039A9DF808100198FFF77C
:1014C800CDFFF1E7C001002008B5FFF725FE08BDF4
:1014D80010B50020FFF71AFE044601461E48FEF725
:1014E80073FF012C31D11D4AD3780133DBB2D3709D
:1014F800392B0ED0002204211848FFF7AFFF012234
:1015080000214120FFF786F915491648FEF75CFFD0
:1015180010BD3023D37093780133DBB29370392B2D
:10152800E8D13023937053780133DBB25370392BF1
:10153800E0D13023537013780133DBB21370392BA9
:10154800D8D1134630221A70D4E700221146412020
:10155800FFF760F9DCE700BF6820000820000020E2
:101568006C2000081820000800B587B00121224827
:10157800FFF7B4FB0120FFF7CDFBFF211F48FFF762
:10158800D3FBFF211E48FFF7CFFB01220D2143208B
:10159800FFF7D8F8012211464120FFF7D3F86C462F
:1015A800184D0FCD0FC495E8030084E80300684682
:1015B800FFF796F9FFF72CFFFFF774FDFFF7E2FC42
:1015C800FFF716FDFFF7A8FD0020FFF79FFD0E4B64
:1015D800187004E0002211464120FFF71BF9002093
:1015E800FFF794FD084B18700028F3D00122002162
:1015F8004120FFF70FF9F2E70000018004000040E6
:101608001000004038200008D0020020014B186864
:10161800704700BF2400002030B5141E05469BB05B
:10162800184605DA8B234FF0FF302B601BB030BD16
:101638004FF40273ADF80C300CBF234604F1FF33AE
:10164800029305934FF6FF7300910491ADF80E30A5
:1016580002461E9B6946284600F072F8431CBCBF30
:101668008B232B60002CE1D00022009B1A70DDE751
:1016780007B5009313460A46014603480068FFF77A
:10168800CBFF03B05DF804FB240000202DE9F047F0
:101698008E6882469E420C469046994637D88A897B
:1016A80012F4906F31D00223256809696F1A6569B1
:1016B80005EB450595FBF3F509F101033B449D4214
:1016C80038BF1D46530530D5294600F035FB064680
:1016D80050B90C234FF0FF30CAF80030A38943F00B
:1016E8004003A381BDE8F0873A46216900F0B4FAC7
:1016F800A38923F4906343F08003A38126613E44C9
:1017080026604E466561ED1BA5604E4500D94E46E4
:1017180032464146206800F0AAFAA36800209B1BC5
:10172800A36023681E442660DCE72A4600F05EFBBF
:1017380006460028E2D12169504600F0B1FAC8E710
:101748002DE9F04F9DB003938B8980461D060C460A
:1017580016460FD50B696BB9402100F0EDFA2060F1
:10176800206128B90C23C8F800304FF0FF30C7E0DB
:10177800402363610023099320238DF82930302307
:101788004FF0010B8DF82A3037463D4615F8013BDE
:101798000BB1252B3ED1B7EB060A0BD05346324688
:1017A80021464046FFF772FF013000F0A480099BF4
:1017B800534409933B78002B00F09D8000234FF0A1
:1017C800FF32CDE90523049307938DF853301A931C
:1017D8002F46052217F8011B4F4800F02FFA049BEB
:1017E800D0B9D90644BF20228DF853201A0744BF28
:1017F8002B228DF853202A782A2A15D02F4600202C
:101808000A25079A394611F8013B303B092B4DD977
:10181800B8B10FE02F46B8E73F4A3D46801A0BFAA9
:1018280000F018430490D3E7039A111D126803913E
:10183800002A01DB079204E0524243F002030792B8
:1018480004933B782E2B0CD17B782A2B33D1039B26
:1018580002371A1D1B680392002BB8BF4FF0FF33E5
:1018680005932E4D03223978284600F0E7F938B160
:101878004023401B03FA00F0049B01370343049301
:101888003978062226487E1C8DF8281000F0D6F9F3
:10189800002838D0234B13BB039B073323F00703DF
:1018A80008330393099B4B4409936DE705FB023208
:1018B80001200F46A6E700230A251946013705939C
:1018C800384610F8012B303A092A03D9002BC8D022
:1018D8000591C6E705FB012101230746F0E703ABA5
:1018E80000932246104B04A94046AFF30080B0F1A4
:1018F800FF3F8146D6D1A3895B063FF536AF0998ED
:101908001DB0BDE8F08F03AB00932246064B04A937
:10191800404600F081F8EAE7742000087A200008C1
:101928007E20000800000000951600082DE9F04709
:1019380091461F468A680B6906469342B8BF13460C
:10194800C9F8003091F843200C46DDF8208012B128
:101958000133C9F800302368990642BFD9F800302E
:101968000233C9F80030256815F0060507D104F1DF
:10197800190AE368D9F800209B1AAB4229DC94F8CD
:1019880043302268003318BF012392062ED404F195
:10199800430239463046C047013021D02368E56804
:1019A80003F00603042B18BF0025D9F800204FF0D8
:1019B800000908BFAD1AA368226908BF25EAE575C2
:1019C8009342C4BF9B1AED181A344D451AD1002012
:1019D80008E00123524639463046C047013003D15A
:1019E8004FF0FF30BDE8F0870135C2E73020E1183D
:1019F80081F843005A1C94F845102244023382F8B7
:101A08004310C4E70123224639463046C047013017
:101A1800E6D009F10109D8E72DE9F04301F1430CBB
:101A28000C46097E85B06E291746064698460C9ADC
:101A380000F0B38022D8632936D00AD8002900F0F4
:101A4800B980582900F0838004F1420584F84210D7
:101A580032E0642901D06929F6D1206813680506A7
:101A680003F104012AD51B681160002B03DA2D222B
:101A78005B4284F843206F480A2239E0732900F05A
:101A88009D8008D86F2920D07029DDD1236843F0C4
:101A98002003236003E0752917D07829D4D178234F
:101AA800654884F8453055E0136804F14205191D6E
:101AB8001B68116084F8423001238CE01B6810F029
:101AC800400F116018BF1BB2CFE713682568181DB7
:101AD8001060280601D51B6802E06806FBD51B8844
:101AE8006F2914BF0A2208225248002184F84310A3
:101AF8006568002DA560C0F29580216821F0040179
:101B08002160002B3DD1002D40F08E806546082ACB
:101B18000BD12368DB0708D5236962689A42DEBFC8
:101B2800302305F8013C05F1FF35ACEB05032361D3
:101B3800CDF800803B4603AA21463046FFF7F6FE63
:101B480001304DD14FF0FF3005B0BDE8F083394882
:101B580084F84510136821681D1D1B6815600A0666
:101B68000BD5CA0744BF41F0200121601BB9226888
:101B780022F0200222601022B7E74D0648BF9BB230
:101B8800EFE76546B3FBF2F102FB1133C35C05F8DE
:101B9800013D0B460029F5D1B9E713682568181DE2
:101BA8006169106028061B6801D5196002E06A06A1
:101BB800FBD51980002365462361B9E71368191D11
:101BC80011601D6862680021284600F037F808B1E6
:101BD800401B606063682361002384F84330A7E7F3
:101BE80023692A4639463046C0470130AAD02368BF
:101BF8009B0713D4E068039B9842B8BF1846A3E735
:101C080001234A4639463046C04701309AD001354B
:101C1800E368039A9B1AAB42F2DCEBE7002504F178
:101C28001909F5E7002BACD1037804F1420584F8D3
:101C380042306CE7852000089620000810B5C9B22C
:101C480002449042034601D1002303E01C7801308E
:101C58008C42F6D1184610BD10B5431E0A44914275
:101C680000D110BD11F8014B03F8014FF7E7884286
:101C780010B501EB020307D8421E99420AD011F8A9
:101C8800014B02F8014FF8E78342F5D98118D21ABF
:101C9800D34200D110BD13F8014D01F8014DF7E70B
:101CA80038B50546002943D051F8043C0C1F002BD9
:101CB800B8BFE41800F0D0F81E4A1368104633B9CC
:101CC800636014602846BDE8384000F0C6B8A342F7
:101CD8000BD921686218934201BF1A685B685218D1
:101CE800226063600460EDE713465A680AB1A242B5
:101CF800FAD919685818A0420BD12068014458181D
:101D080082421960DED110685268014419605A6035
:101D1800D8E702D90C232B60D4E7206821188A421F
:101D280001BF116852680918216062605C60C9E7E8
:101D380038BD00BF3801002070B5CD1C25F0030563
:101D480008350C2D38BF0C25002D064601DBA942AD
:101D580003D90C233360002070BD00F07DF8214AC0
:101D68001468214691B9204C23681BB9304600F00D
:101D780063F820602946304600F05EF8431C24D101
:101D88000C233046336000F068F8E4E70B685B1B0F
:101D980018D40B2B0FD90B60CC18CD50304600F05F
:101DA8005CF804F10B00231D20F00700C31AD3D000
:101DB8005A42E250D0E74B688C4216BF636013600A
:101DC8000C46EBE70C464968CCE7C41C24F0030436
:101DD800A04205D0211A304600F02EF80130CFD0AD
:101DE8002560DBE7380100203C010020F8B50746F4
:101DF80014460E4621B9BDE8F8401146FFF79CBFCE
:101E080022B9FFF74DFF25462846F8BD00F026F811
:101E1800A0420FD221463846FFF78EFF054600281C
:101E2800F2D031462246FFF717FF31463846FFF712
:101E380037FFE9E73546E7E738B50023054C05469F
:101E480008462360FEF796FA431C02D1236803B1C3
:101E58002B6038BD400100207047704751F8043CA2
:101E6800181F002BBCBF0B58C01870475374616310
:101E78006B206672616D653A0A00000020523020BE
:101E88003D2020253038580A00000000205231201B
:101E98003D2020253038580A00000000205232200A
:101EA8003D2020253038580A0000000020523320F9
:101EB8003D2020253038580A0000000020523132D9
:101EC800203D20253038580A00000000204C5220C0
:101ED8003D2020253038580A0000000020504320BB
:101EE8003D2020253038580A000000002050535269
:101EF800203D20253038580A000000004653522F54
:101F08004641523A0A0000002043465352203D20E1
:101F180020253038580A00002048465352203D20DA
:101F280020253038580A00002044465352203D20CE
:101F380020253038580A00002041465352203D20C1
:101F480020253038580A0000204D4D464152203D8A
:101F580020253038580A00002042464152203D20B2
:101F680020253038580A00004D6973630A000000C4
:101F7800204C522F4558435F52455455524E3D20F0
:101F8800253038580A0000005B4861726446617564
:101F98006C745D0A000000005B4275734661756CE5
:101FA800745D0A005B55736167654661756C745DA5
:101FB8000A000000ED0A00081D0A0008C50A00080A
:101FC8000F0A00089D0A0008010A000850200008AE
:101FD8000A000000582000080400000060200008E3
:101FE8000700000002000000410000000800000097
:101FF80003000000410000000C0000000400000085
:10200800410000000800000048616D616461000043
:102018002573000000000000FFFFFFFF0FF0FFFF27
:1020280000000000900400000008014000000000CB
:10203800F0FFFFFFFFFFFFFF0100000000000000AE
:1020480000080140000000004D0C0008640000007A
:10205800D114000805000000D91400080A00000087
:10206800256400004C45445F4F4E2000232D302B43
:102078002000686C4C006566674546470030313281
:1020880033343536373839414243444546003031D8
:0F20980032333435363738396162636465660038
:1020A8007856341294000020000000000000000060
:1020B80000000000010203040607080900A24A0400
:1020C8003030303028000020000000000000000000
:1020D80000000000000000000000000000000000F8
:1020E80000000000000000000000000000000000E8
:1020F80000000000000000000000000000000000D8
:1021080000000000000000000000000000000000C7
:1021180000000000000000000000000000000000B7
:0C21280000000000000000003254769817
:040000050800010DE1
:00000001FF
